{
  "_format": "hh-sol-artifact-1",
  "contractName": "DwarfityCore",
  "sourceName": "contracts/DwarfityCore.sol",
  "abi": [
    {
      "inputs": [],
      "stateMutability": "nonpayable",
      "type": "constructor"
    },
    {
      "anonymous": false,
      "inputs": [
        {
          "indexed": true,
          "internalType": "address",
          "name": "owner",
          "type": "address"
        },
        {
          "indexed": true,
          "internalType": "address",
          "name": "approved",
          "type": "address"
        },
        {
          "indexed": true,
          "internalType": "uint256",
          "name": "tokenId",
          "type": "uint256"
        }
      ],
      "name": "Approval",
      "type": "event"
    },
    {
      "anonymous": false,
      "inputs": [
        {
          "indexed": true,
          "internalType": "address",
          "name": "owner",
          "type": "address"
        },
        {
          "indexed": true,
          "internalType": "address",
          "name": "operator",
          "type": "address"
        },
        {
          "indexed": false,
          "internalType": "bool",
          "name": "approved",
          "type": "bool"
        }
      ],
      "name": "ApprovalForAll",
      "type": "event"
    },
    {
      "anonymous": false,
      "inputs": [
        {
          "indexed": false,
          "internalType": "address",
          "name": "owner",
          "type": "address"
        },
        {
          "indexed": false,
          "internalType": "uint256",
          "name": "tokenId",
          "type": "uint256"
        },
        {
          "indexed": false,
          "internalType": "uint256",
          "name": "fatherTokenId",
          "type": "uint256"
        },
        {
          "indexed": false,
          "internalType": "uint256",
          "name": "motherTokenId",
          "type": "uint256"
        },
        {
          "indexed": false,
          "internalType": "string",
          "name": "genes",
          "type": "string"
        }
      ],
      "name": "Birth",
      "type": "event"
    },
    {
      "anonymous": false,
      "inputs": [
        {
          "indexed": false,
          "internalType": "address",
          "name": "",
          "type": "address"
        },
        {
          "indexed": false,
          "internalType": "uint256",
          "name": "",
          "type": "uint256"
        }
      ],
      "name": "Received",
      "type": "event"
    },
    {
      "anonymous": false,
      "inputs": [
        {
          "indexed": true,
          "internalType": "address",
          "name": "from",
          "type": "address"
        },
        {
          "indexed": true,
          "internalType": "address",
          "name": "to",
          "type": "address"
        },
        {
          "indexed": true,
          "internalType": "uint256",
          "name": "tokenId",
          "type": "uint256"
        }
      ],
      "name": "Transfer",
      "type": "event"
    },
    {
      "inputs": [
        {
          "internalType": "address",
          "name": "to",
          "type": "address"
        },
        {
          "internalType": "uint256",
          "name": "tokenId",
          "type": "uint256"
        }
      ],
      "name": "approve",
      "outputs": [],
      "stateMutability": "nonpayable",
      "type": "function"
    },
    {
      "inputs": [
        {
          "internalType": "address",
          "name": "owner",
          "type": "address"
        }
      ],
      "name": "balanceOf",
      "outputs": [
        {
          "internalType": "uint256",
          "name": "",
          "type": "uint256"
        }
      ],
      "stateMutability": "view",
      "type": "function"
    },
    {
      "inputs": [
        {
          "internalType": "uint256",
          "name": "_fatherTokenId",
          "type": "uint256"
        },
        {
          "internalType": "uint256",
          "name": "_motherTokenId",
          "type": "uint256"
        }
      ],
      "name": "breedDwarves",
      "outputs": [],
      "stateMutability": "nonpayable",
      "type": "function"
    },
    {
      "inputs": [],
      "name": "deployer",
      "outputs": [
        {
          "internalType": "address",
          "name": "",
          "type": "address"
        }
      ],
      "stateMutability": "view",
      "type": "function"
    },
    {
      "inputs": [
        {
          "internalType": "string",
          "name": "",
          "type": "string"
        }
      ],
      "name": "dwarfCountPerGene",
      "outputs": [
        {
          "internalType": "uint256",
          "name": "",
          "type": "uint256"
        }
      ],
      "stateMutability": "view",
      "type": "function"
    },
    {
      "inputs": [],
      "name": "dwarfIndexTracker",
      "outputs": [
        {
          "internalType": "uint256",
          "name": "_value",
          "type": "uint256"
        }
      ],
      "stateMutability": "view",
      "type": "function"
    },
    {
      "inputs": [
        {
          "internalType": "uint256",
          "name": "",
          "type": "uint256"
        }
      ],
      "name": "dwarves",
      "outputs": [
        {
          "internalType": "string",
          "name": "genes",
          "type": "string"
        },
        {
          "internalType": "uint256",
          "name": "fatherTokenId",
          "type": "uint256"
        },
        {
          "internalType": "uint256",
          "name": "motherTokenId",
          "type": "uint256"
        }
      ],
      "stateMutability": "view",
      "type": "function"
    },
    {
      "inputs": [
        {
          "internalType": "uint256",
          "name": "tokenId",
          "type": "uint256"
        }
      ],
      "name": "getApproved",
      "outputs": [
        {
          "internalType": "address",
          "name": "",
          "type": "address"
        }
      ],
      "stateMutability": "view",
      "type": "function"
    },
    {
      "inputs": [],
      "name": "getContractBalance",
      "outputs": [
        {
          "internalType": "uint256",
          "name": "",
          "type": "uint256"
        }
      ],
      "stateMutability": "view",
      "type": "function"
    },
    {
      "inputs": [
        {
          "internalType": "uint256",
          "name": "_tokenId",
          "type": "uint256"
        }
      ],
      "name": "getDwarfByTokenId",
      "outputs": [
        {
          "internalType": "string",
          "name": "_genes",
          "type": "string"
        },
        {
          "internalType": "uint256",
          "name": "_fatherTokenId",
          "type": "uint256"
        },
        {
          "internalType": "uint256",
          "name": "_motherTokenId",
          "type": "uint256"
        },
        {
          "internalType": "uint256",
          "name": "_rarity",
          "type": "uint256"
        }
      ],
      "stateMutability": "view",
      "type": "function"
    },
    {
      "inputs": [
        {
          "internalType": "address",
          "name": "_owner",
          "type": "address"
        }
      ],
      "name": "getTokenIds",
      "outputs": [
        {
          "internalType": "uint256[]",
          "name": "",
          "type": "uint256[]"
        }
      ],
      "stateMutability": "view",
      "type": "function"
    },
    {
      "inputs": [],
      "name": "getTokensOfDeployer",
      "outputs": [
        {
          "internalType": "uint256[]",
          "name": "",
          "type": "uint256[]"
        }
      ],
      "stateMutability": "view",
      "type": "function"
    },
    {
      "inputs": [
        {
          "internalType": "address",
          "name": "owner",
          "type": "address"
        },
        {
          "internalType": "address",
          "name": "operator",
          "type": "address"
        }
      ],
      "name": "isApprovedForAll",
      "outputs": [
        {
          "internalType": "bool",
          "name": "",
          "type": "bool"
        }
      ],
      "stateMutability": "view",
      "type": "function"
    },
    {
      "inputs": [
        {
          "internalType": "string",
          "name": "_genes",
          "type": "string"
        }
      ],
      "name": "mintGenesisDwarf",
      "outputs": [],
      "stateMutability": "nonpayable",
      "type": "function"
    },
    {
      "inputs": [],
      "name": "name",
      "outputs": [
        {
          "internalType": "string",
          "name": "",
          "type": "string"
        }
      ],
      "stateMutability": "view",
      "type": "function"
    },
    {
      "inputs": [
        {
          "internalType": "uint256",
          "name": "tokenId",
          "type": "uint256"
        }
      ],
      "name": "ownerOf",
      "outputs": [
        {
          "internalType": "address",
          "name": "",
          "type": "address"
        }
      ],
      "stateMutability": "view",
      "type": "function"
    },
    {
      "inputs": [
        {
          "internalType": "address",
          "name": "",
          "type": "address"
        },
        {
          "internalType": "uint256",
          "name": "",
          "type": "uint256"
        }
      ],
      "name": "ownersTokenIds",
      "outputs": [
        {
          "internalType": "uint256",
          "name": "",
          "type": "uint256"
        }
      ],
      "stateMutability": "view",
      "type": "function"
    },
    {
      "inputs": [
        {
          "internalType": "uint256",
          "name": "tokenId",
          "type": "uint256"
        }
      ],
      "name": "purchaseDwarfFromDeployer",
      "outputs": [],
      "stateMutability": "payable",
      "type": "function"
    },
    {
      "inputs": [
        {
          "internalType": "address",
          "name": "from",
          "type": "address"
        },
        {
          "internalType": "address",
          "name": "to",
          "type": "address"
        },
        {
          "internalType": "uint256",
          "name": "tokenId",
          "type": "uint256"
        }
      ],
      "name": "safeTransferFrom",
      "outputs": [],
      "stateMutability": "nonpayable",
      "type": "function"
    },
    {
      "inputs": [
        {
          "internalType": "address",
          "name": "from",
          "type": "address"
        },
        {
          "internalType": "address",
          "name": "to",
          "type": "address"
        },
        {
          "internalType": "uint256",
          "name": "tokenId",
          "type": "uint256"
        },
        {
          "internalType": "bytes",
          "name": "_data",
          "type": "bytes"
        }
      ],
      "name": "safeTransferFrom",
      "outputs": [],
      "stateMutability": "nonpayable",
      "type": "function"
    },
    {
      "inputs": [
        {
          "internalType": "address",
          "name": "operator",
          "type": "address"
        },
        {
          "internalType": "bool",
          "name": "approved",
          "type": "bool"
        }
      ],
      "name": "setApprovalForAll",
      "outputs": [],
      "stateMutability": "nonpayable",
      "type": "function"
    },
    {
      "inputs": [
        {
          "internalType": "bytes4",
          "name": "interfaceId",
          "type": "bytes4"
        }
      ],
      "name": "supportsInterface",
      "outputs": [
        {
          "internalType": "bool",
          "name": "",
          "type": "bool"
        }
      ],
      "stateMutability": "view",
      "type": "function"
    },
    {
      "inputs": [],
      "name": "symbol",
      "outputs": [
        {
          "internalType": "string",
          "name": "",
          "type": "string"
        }
      ],
      "stateMutability": "view",
      "type": "function"
    },
    {
      "inputs": [
        {
          "internalType": "uint256",
          "name": "tokenId",
          "type": "uint256"
        }
      ],
      "name": "tokenURI",
      "outputs": [
        {
          "internalType": "string",
          "name": "",
          "type": "string"
        }
      ],
      "stateMutability": "view",
      "type": "function"
    },
    {
      "inputs": [
        {
          "internalType": "address",
          "name": "from",
          "type": "address"
        },
        {
          "internalType": "address",
          "name": "to",
          "type": "address"
        },
        {
          "internalType": "uint256",
          "name": "tokenId",
          "type": "uint256"
        }
      ],
      "name": "transferFrom",
      "outputs": [],
      "stateMutability": "nonpayable",
      "type": "function"
    },
    {
      "stateMutability": "payable",
      "type": "receive"
    }
  ],
  "bytecode": "0x60806040523480156200001157600080fd5b506040518060400160405280600881526020017f44776172666974790000000000000000000000000000000000000000000000008152506040518060400160405280600281526020017f44570000000000000000000000000000000000000000000000000000000000008152508181816000908051906020019062000098929190620005cb565b508060019080519060200190620000b1929190620005cb565b5050506001600860146101000a81548160ff02191690831515021790555050506200011b6000806040518060400160405280600981526020017f3030303030303030300000000000000000000000000000000000000000000000815250336200013360201b60201c565b506200012d33620002f960201b60201c565b62000979565b600062000146836200033d60201b60201c565b62000188576040517f08c379a00000000000000000000000000000000000000000000000000000000081526004016200017f9062000740565b60405180910390fd5b6000620001a160076200035060201b620019f61760201c565b905060006040518060600160405280868152602001888152602001878152509050620001d484836200035e60201b60201c565b600681908060018154018082558091505060019003906000526020600020906003020160009091909190915060008201518160000190805190602001906200021e929190620005cb565b5060208201518160010155604082015181600201555050600960008573ffffffffffffffffffffffffffffffffffffffff1673ffffffffffffffffffffffffffffffffffffffff168152602001908152602001600020829080600181540180825580915050600190039060005260206000200160009091909190915055620002b260076200054460201b62001a041760201c565b6001600a86604051620002c6919062000727565b90815260200160405180910390206000828254620002e59190620007cd565b925050819055508192505050949350505050565b80600860006101000a81548173ffffffffffffffffffffffffffffffffffffffff021916908373ffffffffffffffffffffffffffffffffffffffff16021790555050565b6000808290506009815114915050919050565b600081600001549050919050565b600073ffffffffffffffffffffffffffffffffffffffff168273ffffffffffffffffffffffffffffffffffffffff161415620003d1576040517f08c379a0000000000000000000000000000000000000000000000000000000008152600401620003c89062000784565b60405180910390fd5b620003e2816200055a60201b60201c565b1562000425576040517f08c379a00000000000000000000000000000000000000000000000000000000081526004016200041c9062000762565b60405180910390fd5b6200043960008383620005c660201b60201c565b6001600360008473ffffffffffffffffffffffffffffffffffffffff1673ffffffffffffffffffffffffffffffffffffffff16815260200190815260200160002060008282546200048b9190620007cd565b92505081905550816002600083815260200190815260200160002060006101000a81548173ffffffffffffffffffffffffffffffffffffffff021916908373ffffffffffffffffffffffffffffffffffffffff160217905550808273ffffffffffffffffffffffffffffffffffffffff16600073ffffffffffffffffffffffffffffffffffffffff167fddf252ad1be2c89b69c2b068fc378daa952ba7f163c4a11628f55a4df523b3ef60405160405180910390a45050565b6001816000016000828254019250508190555050565b60008073ffffffffffffffffffffffffffffffffffffffff166002600084815260200190815260200160002060009054906101000a900473ffffffffffffffffffffffffffffffffffffffff1673ffffffffffffffffffffffffffffffffffffffff1614159050919050565b505050565b828054620005d9906200086a565b90600052602060002090601f016020900481019282620005fd576000855562000649565b82601f106200061857805160ff191683800117855562000649565b8280016001018555821562000649579182015b82811115620006485782518255916020019190600101906200062b565b5b5090506200065891906200065c565b5090565b5b80821115620006775760008160009055506001016200065d565b5090565b60006200068882620007a6565b620006948185620007c2565b9350620006a681856020860162000834565b80840191505092915050565b6000620006c1601383620007b1565b9150620006ce82620008fe565b602082019050919050565b6000620006e8601c83620007b1565b9150620006f58262000927565b602082019050919050565b60006200070f602083620007b1565b91506200071c8262000950565b602082019050919050565b60006200073582846200067b565b915081905092915050565b600060208201905081810360008301526200075b81620006b2565b9050919050565b600060208201905081810360008301526200077d81620006d9565b9050919050565b600060208201905081810360008301526200079f8162000700565b9050919050565b600081519050919050565b600082825260208201905092915050565b600081905092915050565b6000620007da826200082a565b9150620007e7836200082a565b9250827fffffffffffffffffffffffffffffffffffffffffffffffffffffffffffffffff038211156200081f576200081e620008a0565b5b828201905092915050565b6000819050919050565b60005b838110156200085457808201518184015260208101905062000837565b8381111562000864576000848401525b50505050565b600060028204905060018216806200088357607f821691505b602082108114156200089a5762000899620008cf565b5b50919050565b7f4e487b7100000000000000000000000000000000000000000000000000000000600052601160045260246000fd5b7f4e487b7100000000000000000000000000000000000000000000000000000000600052602260045260246000fd5b7f47656e6573206d7573742062652076616c696400000000000000000000000000600082015250565b7f4552433732313a20746f6b656e20616c7265616479206d696e74656400000000600082015250565b7f4552433732313a206d696e7420746f20746865207a65726f2061646472657373600082015250565b6146a380620009896000396000f3fe60806040526004361061016a5760003560e01c806370a08231116100d1578063b88d4fde1161008a578063d004b03611610064578063d004b036146105ac578063d5f39488146105e9578063e985e9c514610614578063f8e9390c14610651576101aa565b8063b88d4fde14610506578063c87b56dd1461052f578063c912ee201461056c576101aa565b806370a08231146103d05780637783adc61461040d5780638ed9a4d61461044a57806395d89b4114610475578063a22cb465146104a0578063b2ef480c146104c9576101aa565b806323b872dd1161012357806323b872dd146102c257806333dc2d04146102eb57806342842e0e14610314578063442aa76e1461033d5780636352211e146103685780636f9fb98a146103a5576101aa565b806301ffc9a7146101af57806306fdde03146101ec578063081812fc14610217578063095ea7b3146102545780630fd484341461027d5780631b43783d146102a6576101aa565b366101aa577f88a5966d370b9919b20f3e2c13ff65706f196a4e32cc2c12bf57088f8852587433346040516101a092919061377e565b60405180910390a1005b600080fd5b3480156101bb57600080fd5b506101d660048036038101906101d19190613080565b610690565b6040516101e39190613823565b60405180910390f35b3480156101f857600080fd5b50610201610772565b60405161020e919061383e565b60405180910390f35b34801561022357600080fd5b5061023e60048036038101906102399190613113565b610804565b60405161024b9190613717565b60405180910390f35b34801561026057600080fd5b5061027b60048036038101906102769190613044565b610889565b005b34801561028957600080fd5b506102a4600480360381019061029f91906130d2565b6109a1565b005b6102c060048036038101906102bb9190613113565b610ad4565b005b3480156102ce57600080fd5b506102e960048036038101906102e49190612f3e565b610c13565b005b3480156102f757600080fd5b50610312600480360381019061030d919061313c565b610c73565b005b34801561032057600080fd5b5061033b60048036038101906103369190612f3e565b610e75565b005b34801561034957600080fd5b50610352610e95565b60405161035f9190613801565b60405180910390f35b34801561037457600080fd5b5061038f600480360381019061038a9190613113565b610fde565b60405161039c9190613717565b60405180910390f35b3480156103b157600080fd5b506103ba611090565b6040516103c79190613bca565b60405180910390f35b3480156103dc57600080fd5b506103f760048036038101906103f29190612ed9565b6111b9565b6040516104049190613bca565b60405180910390f35b34801561041957600080fd5b50610434600480360381019061042f9190613044565b611271565b6040516104419190613bca565b60405180910390f35b34801561045657600080fd5b5061045f6112a2565b60405161046c9190613bca565b60405180910390f35b34801561048157600080fd5b5061048a6112ae565b604051610497919061383e565b60405180910390f35b3480156104ac57600080fd5b506104c760048036038101906104c29190613008565b611340565b005b3480156104d557600080fd5b506104f060048036038101906104eb91906130d2565b6114c1565b6040516104fd9190613bca565b60405180910390f35b34801561051257600080fd5b5061052d60048036038101906105289190612f8d565b6114ef565b005b34801561053b57600080fd5b5061055660048036038101906105519190613113565b611551565b604051610563919061383e565b60405180910390f35b34801561057857600080fd5b50610593600480360381019061058e9190613113565b6115f8565b6040516105a3949392919061389e565b60405180910390f35b3480156105b857600080fd5b506105d360048036038101906105ce9190612ed9565b6117e3565b6040516105e09190613801565b60405180910390f35b3480156105f557600080fd5b506105fe61187a565b60405161060b9190613717565b60405180910390f35b34801561062057600080fd5b5061063b60048036038101906106369190612f02565b6118a0565b6040516106489190613823565b60405180910390f35b34801561065d57600080fd5b5061067860048036038101906106739190613113565b611934565b60405161068793929190613860565b60405180910390f35b60007f80ac58cd000000000000000000000000000000000000000000000000000000007bffffffffffffffffffffffffffffffffffffffffffffffffffffffff1916827bffffffffffffffffffffffffffffffffffffffffffffffffffffffff1916148061075b57507f5b5e139f000000000000000000000000000000000000000000000000000000007bffffffffffffffffffffffffffffffffffffffffffffffffffffffff1916827bffffffffffffffffffffffffffffffffffffffffffffffffffffffff1916145b8061076b575061076a82611a1a565b5b9050919050565b60606000805461078190613f0c565b80601f01602080910402602001604051908101604052809291908181526020018280546107ad90613f0c565b80156107fa5780601f106107cf576101008083540402835291602001916107fa565b820191906000526020600020905b8154815290600101906020018083116107dd57829003601f168201915b5050505050905090565b600061080f82611a84565b61084e576040517f08c379a000000000000000000000000000000000000000000000000000000000815260040161084590613aea565b60405180910390fd5b6004600083815260200190815260200160002060009054906101000a900473ffffffffffffffffffffffffffffffffffffffff169050919050565b600061089482610fde565b90508073ffffffffffffffffffffffffffffffffffffffff168373ffffffffffffffffffffffffffffffffffffffff161415610905576040517f08c379a00000000000000000000000000000000000000000000000000000000081526004016108fc90613b6a565b60405180910390fd5b8073ffffffffffffffffffffffffffffffffffffffff16610924611af0565b73ffffffffffffffffffffffffffffffffffffffff16148061095357506109528161094d611af0565b6118a0565b5b610992576040517f08c379a000000000000000000000000000000000000000000000000000000000815260040161098990613a2a565b60405180910390fd5b61099c8383611af8565b505050565b600073ffffffffffffffffffffffffffffffffffffffff16600860009054906101000a900473ffffffffffffffffffffffffffffffffffffffff1673ffffffffffffffffffffffffffffffffffffffff161415610a33576040517f08c379a0000000000000000000000000000000000000000000000000000000008152600401610a2a906138ea565b60405180910390fd5b600860009054906101000a900473ffffffffffffffffffffffffffffffffffffffff1673ffffffffffffffffffffffffffffffffffffffff163373ffffffffffffffffffffffffffffffffffffffff1614610ac3576040517f08c379a0000000000000000000000000000000000000000000000000000000008152600401610aba90613a0a565b60405180910390fd5b610ad06000808333611bb1565b5050565b3373ffffffffffffffffffffffffffffffffffffffff16610af482610fde565b73ffffffffffffffffffffffffffffffffffffffff161415610b4b576040517f08c379a0000000000000000000000000000000000000000000000000000000008152600401610b42906139ca565b60405180910390fd5b600860009054906101000a900473ffffffffffffffffffffffffffffffffffffffff1673ffffffffffffffffffffffffffffffffffffffff16610b8d82610fde565b73ffffffffffffffffffffffffffffffffffffffff1614610be3576040517f08c379a0000000000000000000000000000000000000000000000000000000008152600401610bda90613b2a565b60405180910390fd5b610c10600860009054906101000a900473ffffffffffffffffffffffffffffffffffffffff163383611d44565b50565b610c24610c1e611af0565b82611fa0565b610c63576040517f08c379a0000000000000000000000000000000000000000000000000000000008152600401610c5a90613baa565b60405180910390fd5b610c6e838383611d44565b505050565b600860009054906101000a900473ffffffffffffffffffffffffffffffffffffffff1673ffffffffffffffffffffffffffffffffffffffff163373ffffffffffffffffffffffffffffffffffffffff161415610d04576040517f08c379a0000000000000000000000000000000000000000000000000000000008152600401610cfb90613aaa565b60405180910390fd5b3373ffffffffffffffffffffffffffffffffffffffff16610d2483610fde565b73ffffffffffffffffffffffffffffffffffffffff1614610d7a576040517f08c379a0000000000000000000000000000000000000000000000000000000008152600401610d7190613a4a565b60405180910390fd5b3373ffffffffffffffffffffffffffffffffffffffff16610d9a82610fde565b73ffffffffffffffffffffffffffffffffffffffff1614610df0576040517f08c379a0000000000000000000000000000000000000000000000000000000008152600401610de790613b8a565b60405180910390fd5b6000610dfb836115f8565b50505090506000610e0b836115f8565b50505090506000610e1c838361207e565b90506000610e2c86868433611bb1565b90507f4e6455c91928c274385a73f9a414dadc99be42d2c970d057edbebcf5aa1312223382888886604051610e659594939291906137a7565b60405180910390a1505050505050565b610e90838383604051806020016040528060008152506114ef565b505050565b6060600073ffffffffffffffffffffffffffffffffffffffff16600860009054906101000a900473ffffffffffffffffffffffffffffffffffffffff1673ffffffffffffffffffffffffffffffffffffffff161415610f29576040517f08c379a0000000000000000000000000000000000000000000000000000000008152600401610f20906138ea565b60405180910390fd5b60096000600860009054906101000a900473ffffffffffffffffffffffffffffffffffffffff1673ffffffffffffffffffffffffffffffffffffffff1673ffffffffffffffffffffffffffffffffffffffff168152602001908152602001600020805480602002602001604051908101604052809291908181526020018280548015610fd457602002820191906000526020600020905b815481526020019060010190808311610fc0575b5050505050905090565b6000806002600084815260200190815260200160002060009054906101000a900473ffffffffffffffffffffffffffffffffffffffff169050600073ffffffffffffffffffffffffffffffffffffffff168173ffffffffffffffffffffffffffffffffffffffff161415611087576040517f08c379a000000000000000000000000000000000000000000000000000000000815260040161107e90613a8a565b60405180910390fd5b80915050919050565b60008073ffffffffffffffffffffffffffffffffffffffff16600860009054906101000a900473ffffffffffffffffffffffffffffffffffffffff1673ffffffffffffffffffffffffffffffffffffffff161415611123576040517f08c379a000000000000000000000000000000000000000000000000000000000815260040161111a906138ea565b60405180910390fd5b600860009054906101000a900473ffffffffffffffffffffffffffffffffffffffff1673ffffffffffffffffffffffffffffffffffffffff163373ffffffffffffffffffffffffffffffffffffffff16146111b3576040517f08c379a00000000000000000000000000000000000000000000000000000000081526004016111aa90613a0a565b60405180910390fd5b47905090565b60008073ffffffffffffffffffffffffffffffffffffffff168273ffffffffffffffffffffffffffffffffffffffff16141561122a576040517f08c379a000000000000000000000000000000000000000000000000000000000815260040161122190613a6a565b60405180910390fd5b600360008373ffffffffffffffffffffffffffffffffffffffff1673ffffffffffffffffffffffffffffffffffffffff168152602001908152602001600020549050919050565b6009602052816000526040600020818154811061128d57600080fd5b90600052602060002001600091509150505481565b60078060000154905081565b6060600180546112bd90613f0c565b80601f01602080910402602001604051908101604052809291908181526020018280546112e990613f0c565b80156113365780601f1061130b57610100808354040283529160200191611336565b820191906000526020600020905b81548152906001019060200180831161131957829003601f168201915b5050505050905090565b611348611af0565b73ffffffffffffffffffffffffffffffffffffffff168273ffffffffffffffffffffffffffffffffffffffff1614156113b6576040517f08c379a00000000000000000000000000000000000000000000000000000000081526004016113ad9061398a565b60405180910390fd5b80600560006113c3611af0565b73ffffffffffffffffffffffffffffffffffffffff1673ffffffffffffffffffffffffffffffffffffffff16815260200190815260200160002060008473ffffffffffffffffffffffffffffffffffffffff1673ffffffffffffffffffffffffffffffffffffffff16815260200190815260200160002060006101000a81548160ff0219169083151502179055508173ffffffffffffffffffffffffffffffffffffffff16611470611af0565b73ffffffffffffffffffffffffffffffffffffffff167f17307eab39ab6107e8899845ad3d59bd9653f200f220920489ca2b5937696c31836040516114b59190613823565b60405180910390a35050565b600a818051602081018201805184825260208301602085012081835280955050505050506000915090505481565b6115006114fa611af0565b83611fa0565b61153f576040517f08c379a000000000000000000000000000000000000000000000000000000000815260040161153690613baa565b60405180910390fd5b61154b84848484612467565b50505050565b606061155c82611a84565b61159b576040517f08c379a000000000000000000000000000000000000000000000000000000000815260040161159290613b4a565b60405180910390fd5b60006115a56124c3565b905060008151116115c557604051806020016040528060008152506115f0565b806115cf846124da565b6040516020016115e092919061369f565b6040516020818303038152906040525b915050919050565b6060600080600060068581548110611639577f4e487b7100000000000000000000000000000000000000000000000000000000600052603260045260246000fd5b9060005260206000209060030201600001805461165590613f0c565b80601f016020809104026020016040519081016040528092919081815260200182805461168190613f0c565b80156116ce5780601f106116a3576101008083540402835291602001916116ce565b820191906000526020600020905b8154815290600101906020018083116116b157829003601f168201915b505050505093506006858154811061170f577f4e487b7100000000000000000000000000000000000000000000000000000000600052603260045260246000fd5b90600052602060002090600302016001015492506006858154811061175d577f4e487b7100000000000000000000000000000000000000000000000000000000600052603260045260246000fd5b9060005260206000209060030201600201549150600a600686815481106117ad577f4e487b7100000000000000000000000000000000000000000000000000000000600052603260045260246000fd5b90600052602060002090600302016000016040516117cb91906136c3565b90815260200160405180910390205490509193509193565b6060600960008373ffffffffffffffffffffffffffffffffffffffff1673ffffffffffffffffffffffffffffffffffffffff16815260200190815260200160002080548060200260200160405190810160405280929190818152602001828054801561186e57602002820191906000526020600020905b81548152602001906001019080831161185a575b50505050509050919050565b600860009054906101000a900473ffffffffffffffffffffffffffffffffffffffff1681565b6000600560008473ffffffffffffffffffffffffffffffffffffffff1673ffffffffffffffffffffffffffffffffffffffff16815260200190815260200160002060008373ffffffffffffffffffffffffffffffffffffffff1673ffffffffffffffffffffffffffffffffffffffff16815260200190815260200160002060009054906101000a900460ff16905092915050565b6006818154811061194457600080fd5b906000526020600020906003020160009150905080600001805461196790613f0c565b80601f016020809104026020016040519081016040528092919081815260200182805461199390613f0c565b80156119e05780601f106119b5576101008083540402835291602001916119e0565b820191906000526020600020905b8154815290600101906020018083116119c357829003601f168201915b5050505050908060010154908060020154905083565b600081600001549050919050565b6001816000016000828254019250508190555050565b60007f01ffc9a7000000000000000000000000000000000000000000000000000000007bffffffffffffffffffffffffffffffffffffffffffffffffffffffff1916827bffffffffffffffffffffffffffffffffffffffffffffffffffffffff1916149050919050565b60008073ffffffffffffffffffffffffffffffffffffffff166002600084815260200190815260200160002060009054906101000a900473ffffffffffffffffffffffffffffffffffffffff1673ffffffffffffffffffffffffffffffffffffffff1614159050919050565b600033905090565b816004600083815260200190815260200160002060006101000a81548173ffffffffffffffffffffffffffffffffffffffff021916908373ffffffffffffffffffffffffffffffffffffffff160217905550808273ffffffffffffffffffffffffffffffffffffffff16611b6b83610fde565b73ffffffffffffffffffffffffffffffffffffffff167f8c5be1e5ebec7d5bd14f71427d1e84f3dd0314c0f7b2291e5b200ac8c7c3b92560405160405180910390a45050565b6000611bbc83612687565b611bfb576040517f08c379a0000000000000000000000000000000000000000000000000000000008152600401611bf29061390a565b60405180910390fd5b6000611c0760076119f6565b905060006040518060600160405280868152602001888152602001878152509050611c32848361269a565b60068190806001815401808255809150506001900390600052602060002090600302016000909190919091506000820151816000019080519060200190611c7a929190612cfd565b5060208201518160010155604082015181600201555050600960008573ffffffffffffffffffffffffffffffffffffffff1673ffffffffffffffffffffffffffffffffffffffff168152602001908152602001600020829080600181540180825580915050600190039060005260206000200160009091909190915055611d016007611a04565b6001600a86604051611d139190613688565b90815260200160405180910390206000828254611d309190613cfd565b925050819055508192505050949350505050565b8273ffffffffffffffffffffffffffffffffffffffff16611d6482610fde565b73ffffffffffffffffffffffffffffffffffffffff1614611dba576040517f08c379a0000000000000000000000000000000000000000000000000000000008152600401611db190613b0a565b60405180910390fd5b600073ffffffffffffffffffffffffffffffffffffffff168273ffffffffffffffffffffffffffffffffffffffff161415611e2a576040517f08c379a0000000000000000000000000000000000000000000000000000000008152600401611e219061396a565b60405180910390fd5b611e35838383612868565b611e40600082611af8565b6001600360008573ffffffffffffffffffffffffffffffffffffffff1673ffffffffffffffffffffffffffffffffffffffff1681526020019081526020016000206000828254611e909190613e15565b925050819055506001600360008473ffffffffffffffffffffffffffffffffffffffff1673ffffffffffffffffffffffffffffffffffffffff1681526020019081526020016000206000828254611ee79190613cfd565b92505081905550816002600083815260200190815260200160002060006101000a81548173ffffffffffffffffffffffffffffffffffffffff021916908373ffffffffffffffffffffffffffffffffffffffff160217905550808273ffffffffffffffffffffffffffffffffffffffff168473ffffffffffffffffffffffffffffffffffffffff167fddf252ad1be2c89b69c2b068fc378daa952ba7f163c4a11628f55a4df523b3ef60405160405180910390a4505050565b6000611fab82611a84565b611fea576040517f08c379a0000000000000000000000000000000000000000000000000000000008152600401611fe1906139aa565b60405180910390fd5b6000611ff583610fde565b90508073ffffffffffffffffffffffffffffffffffffffff168473ffffffffffffffffffffffffffffffffffffffff16148061206457508373ffffffffffffffffffffffffffffffffffffffff1661204c84610804565b73ffffffffffffffffffffffffffffffffffffffff16145b80612075575061207481856118a0565b5b91505092915050565b606061208983612687565b6120c8576040517f08c379a00000000000000000000000000000000000000000000000000000000081526004016120bf906139ea565b60405180910390fd5b6120d182612687565b612110576040517f08c379a0000000000000000000000000000000000000000000000000000000008152600401612107906139ea565b60405180910390fd5b600083905060008390506000600967ffffffffffffffff81111561215d577f4e487b7100000000000000000000000000000000000000000000000000000000600052604160045260246000fd5b6040519080825280601f01601f19166020018201604052801561218f5781602001600182028036833780820191505090505b5090506000600260096121a29190613d8a565b905060005b81811015612285578481815181106121e8577f4e487b7100000000000000000000000000000000000000000000000000000000600052603260045260246000fd5b602001015160f81c60f81b83600184846122029190613cfd565b61220c9190613cfd565b81518110612243577f4e487b7100000000000000000000000000000000000000000000000000000000600052603260045260246000fd5b60200101907effffffffffffffffffffffffffffffffffffffffffffffffffffffffffffff1916908160001a905350808061227d90613f6f565b9150506121a7565b5060008190505b600981101561235f578381815181106122ce577f4e487b7100000000000000000000000000000000000000000000000000000000600052603260045260246000fd5b602001015160f81c60f81b8383836122e69190613e15565b8151811061231d577f4e487b7100000000000000000000000000000000000000000000000000000000600052603260045260246000fd5b60200101907effffffffffffffffffffffffffffffffffffffffffffffffffffffffffffff1916908160001a905350808061235790613f6f565b91505061228c565b5060008061236b61286d565b915091507fffffffffffffffffffffffffffffffffffffffffffffffffffffffffffffffff82146124585760006123a18261297e565b90506000819050806000815181106123e2577f4e487b7100000000000000000000000000000000000000000000000000000000600052603260045260246000fd5b602001015160f81c60f81b868581518110612426577f4e487b7100000000000000000000000000000000000000000000000000000000600052603260045260246000fd5b60200101907effffffffffffffffffffffffffffffffffffffffffffffffffffffffffffff1916908160001a90535050505b83965050505050505092915050565b612472848484611d44565b61247e84848484612b53565b6124bd576040517f08c379a00000000000000000000000000000000000000000000000000000000081526004016124b49061392a565b60405180910390fd5b50505050565b606060405180602001604052806000815250905090565b60606000821415612522576040518060400160405280600181526020017f30000000000000000000000000000000000000000000000000000000000000008152509050612682565b600082905060005b6000821461255457808061253d90613f6f565b915050600a8261254d9190613d8a565b915061252a565b60008167ffffffffffffffff811115612596577f4e487b7100000000000000000000000000000000000000000000000000000000600052604160045260246000fd5b6040519080825280601f01601f1916602001820160405280156125c85781602001600182028036833780820191505090505b5090505b6000851461267b576001826125e19190613e15565b9150600a856125f09190613fc2565b60306125fc9190613cfd565b60f81b818381518110612638577f4e487b7100000000000000000000000000000000000000000000000000000000600052603260045260246000fd5b60200101907effffffffffffffffffffffffffffffffffffffffffffffffffffffffffffff1916908160001a905350600a856126749190613d8a565b94506125cc565b8093505050505b919050565b6000808290506009815114915050919050565b600073ffffffffffffffffffffffffffffffffffffffff168273ffffffffffffffffffffffffffffffffffffffff16141561270a576040517f08c379a000000000000000000000000000000000000000000000000000000000815260040161270190613aca565b60405180910390fd5b61271381611a84565b15612753576040517f08c379a000000000000000000000000000000000000000000000000000000000815260040161274a9061394a565b60405180910390fd5b61275f60008383612868565b6001600360008473ffffffffffffffffffffffffffffffffffffffff1673ffffffffffffffffffffffffffffffffffffffff16815260200190815260200160002060008282546127af9190613cfd565b92505081905550816002600083815260200190815260200160002060006101000a81548173ffffffffffffffffffffffffffffffffffffffff021916908373ffffffffffffffffffffffffffffffffffffffff160217905550808273ffffffffffffffffffffffffffffffffffffffff16600073ffffffffffffffffffffffffffffffffffffffff167fddf252ad1be2c89b69c2b068fc378daa952ba7f163c4a11628f55a4df523b3ef60405160405180910390a45050565b505050565b600080600044426064604051602001612888939291906136da565b6040516020818303038152906040528051906020012060001c905060006064826128b29190613fc2565b90506000600f821090508015612950576000444260646040516020016128da939291906136da565b6040516020818303038152906040528051906020012060001c905060004442606460405160200161290d939291906136da565b6040516020818303038152906040528051906020012060001c90506009826129359190613fc2565b6003826129429190613fc2565b96509650505050505061297a565b7fffffffffffffffffffffffffffffffffffffffffffffffffffffffffffffffff80945094505050505b9091565b606060008214156129c6576040518060400160405280600181526020017f30000000000000000000000000000000000000000000000000000000000000008152509050612b4e565b600082905060005b600082146129f85780806129e190613f6f565b915050600a826129f19190613d8a565b91506129ce565b60008167ffffffffffffffff811115612a3a577f4e487b7100000000000000000000000000000000000000000000000000000000600052604160045260246000fd5b6040519080825280601f01601f191660200182016040528015612a6c5781602001600182028036833780820191505090505b50905060008290505b60008614612b4657600181612a8a9190613e15565b90506000600a8088612a9c9190613d8a565b612aa69190613dbb565b87612ab19190613e15565b6030612abd9190613d53565b905060008160f81b905080848481518110612b01577f4e487b7100000000000000000000000000000000000000000000000000000000600052603260045260246000fd5b60200101907effffffffffffffffffffffffffffffffffffffffffffffffffffffffffffff1916908160001a905350600a88612b3d9190613d8a565b97505050612a75565b819450505050505b919050565b6000612b748473ffffffffffffffffffffffffffffffffffffffff16612cea565b15612cdd578373ffffffffffffffffffffffffffffffffffffffff1663150b7a02612b9d611af0565b8786866040518563ffffffff1660e01b8152600401612bbf9493929190613732565b602060405180830381600087803b158015612bd957600080fd5b505af1925050508015612c0a57506040513d601f19601f82011682018060405250810190612c0791906130a9565b60015b612c8d573d8060008114612c3a576040519150601f19603f3d011682016040523d82523d6000602084013e612c3f565b606091505b50600081511415612c85576040517f08c379a0000000000000000000000000000000000000000000000000000000008152600401612c7c9061392a565b60405180910390fd5b805181602001fd5b63150b7a0260e01b7bffffffffffffffffffffffffffffffffffffffffffffffffffffffff1916817bffffffffffffffffffffffffffffffffffffffffffffffffffffffff191614915050612ce2565b600190505b949350505050565b600080823b905060008111915050919050565b828054612d0990613f0c565b90600052602060002090601f016020900481019282612d2b5760008555612d72565b82601f10612d4457805160ff1916838001178555612d72565b82800160010185558215612d72579182015b82811115612d71578251825591602001919060010190612d56565b5b509050612d7f9190612d83565b5090565b5b80821115612d9c576000816000905550600101612d84565b5090565b6000612db3612dae84613c0a565b613be5565b905082815260208101848484011115612dcb57600080fd5b612dd6848285613eca565b509392505050565b6000612df1612dec84613c3b565b613be5565b905082815260208101848484011115612e0957600080fd5b612e14848285613eca565b509392505050565b600081359050612e2b81614611565b92915050565b600081359050612e4081614628565b92915050565b600081359050612e558161463f565b92915050565b600081519050612e6a8161463f565b92915050565b600082601f830112612e8157600080fd5b8135612e91848260208601612da0565b91505092915050565b600082601f830112612eab57600080fd5b8135612ebb848260208601612dde565b91505092915050565b600081359050612ed381614656565b92915050565b600060208284031215612eeb57600080fd5b6000612ef984828501612e1c565b91505092915050565b60008060408385031215612f1557600080fd5b6000612f2385828601612e1c565b9250506020612f3485828601612e1c565b9150509250929050565b600080600060608486031215612f5357600080fd5b6000612f6186828701612e1c565b9350506020612f7286828701612e1c565b9250506040612f8386828701612ec4565b9150509250925092565b60008060008060808587031215612fa357600080fd5b6000612fb187828801612e1c565b9450506020612fc287828801612e1c565b9350506040612fd387828801612ec4565b925050606085013567ffffffffffffffff811115612ff057600080fd5b612ffc87828801612e70565b91505092959194509250565b6000806040838503121561301b57600080fd5b600061302985828601612e1c565b925050602061303a85828601612e31565b9150509250929050565b6000806040838503121561305757600080fd5b600061306585828601612e1c565b925050602061307685828601612ec4565b9150509250929050565b60006020828403121561309257600080fd5b60006130a084828501612e46565b91505092915050565b6000602082840312156130bb57600080fd5b60006130c984828501612e5b565b91505092915050565b6000602082840312156130e457600080fd5b600082013567ffffffffffffffff8111156130fe57600080fd5b61310a84828501612e9a565b91505092915050565b60006020828403121561312557600080fd5b600061313384828501612ec4565b91505092915050565b6000806040838503121561314f57600080fd5b600061315d85828601612ec4565b925050602061316e85828601612ec4565b9150509250929050565b60006131848383613653565b60208301905092915050565b61319981613e49565b82525050565b60006131aa82613c91565b6131b48185613cbf565b93506131bf83613c6c565b8060005b838110156131f05781516131d78882613178565b97506131e283613cb2565b9250506001810190506131c3565b5085935050505092915050565b61320681613e5b565b82525050565b600061321782613c9c565b6132218185613cd0565b9350613231818560208601613ed9565b61323a816140af565b840191505092915050565b600061325082613ca7565b61325a8185613ce1565b935061326a818560208601613ed9565b613273816140af565b840191505092915050565b600061328982613ca7565b6132938185613cf2565b93506132a3818560208601613ed9565b80840191505092915050565b600081546132bc81613f0c565b6132c68186613cf2565b945060018216600081146132e157600181146132f257613325565b60ff19831686528186019350613325565b6132fb85613c7c565b60005b8381101561331d578154818901526001820191506020810190506132fe565b838801955050505b50505092915050565b600061333b601783613ce1565b9150613346826140c0565b602082019050919050565b600061335e601383613ce1565b9150613369826140e9565b602082019050919050565b6000613381603283613ce1565b915061338c82614112565b604082019050919050565b60006133a4601c83613ce1565b91506133af82614161565b602082019050919050565b60006133c7602483613ce1565b91506133d28261418a565b604082019050919050565b60006133ea601983613ce1565b91506133f5826141d9565b602082019050919050565b600061340d602c83613ce1565b915061341882614202565b604082019050919050565b6000613430601383613ce1565b915061343b82614251565b602082019050919050565b6000613453601483613ce1565b915061345e8261427a565b602082019050919050565b6000613476600d83613ce1565b9150613481826142a3565b602082019050919050565b6000613499603883613ce1565b91506134a4826142cc565b604082019050919050565b60006134bc601983613ce1565b91506134c78261431b565b602082019050919050565b60006134df602a83613ce1565b91506134ea82614344565b604082019050919050565b6000613502602983613ce1565b915061350d82614393565b604082019050919050565b6000613525601a83613ce1565b9150613530826143e2565b602082019050919050565b6000613548602083613ce1565b91506135538261440b565b602082019050919050565b600061356b602c83613ce1565b915061357682614434565b604082019050919050565b600061358e602983613ce1565b915061359982614483565b604082019050919050565b60006135b1601b83613ce1565b91506135bc826144d2565b602082019050919050565b60006135d4602f83613ce1565b91506135df826144fb565b604082019050919050565b60006135f7602183613ce1565b91506136028261454a565b604082019050919050565b600061361a601983613ce1565b915061362582614599565b602082019050919050565b600061363d603183613ce1565b9150613648826145c2565b604082019050919050565b61365c81613eb3565b82525050565b61366b81613eb3565b82525050565b61368261367d82613eb3565b613fb8565b82525050565b6000613694828461327e565b915081905092915050565b60006136ab828561327e565b91506136b7828461327e565b91508190509392505050565b60006136cf82846132af565b915081905092915050565b60006136e68286613671565b6020820191506136f68285613671565b6020820191506137068284613671565b602082019150819050949350505050565b600060208201905061372c6000830184613190565b92915050565b60006080820190506137476000830187613190565b6137546020830186613190565b6137616040830185613662565b8181036060830152613773818461320c565b905095945050505050565b60006040820190506137936000830185613190565b6137a06020830184613662565b9392505050565b600060a0820190506137bc6000830188613190565b6137c96020830187613662565b6137d66040830186613662565b6137e36060830185613662565b81810360808301526137f58184613245565b90509695505050505050565b6000602082019050818103600083015261381b818461319f565b905092915050565b600060208201905061383860008301846131fd565b92915050565b600060208201905081810360008301526138588184613245565b905092915050565b6000606082019050818103600083015261387a8186613245565b90506138896020830185613662565b6138966040830184613662565b949350505050565b600060808201905081810360008301526138b88187613245565b90506138c76020830186613662565b6138d46040830185613662565b6138e16060830184613662565b95945050505050565b600060208201905081810360008301526139038161332e565b9050919050565b6000602082019050818103600083015261392381613351565b9050919050565b6000602082019050818103600083015261394381613374565b9050919050565b6000602082019050818103600083015261396381613397565b9050919050565b60006020820190508181036000830152613983816133ba565b9050919050565b600060208201905081810360008301526139a3816133dd565b9050919050565b600060208201905081810360008301526139c381613400565b9050919050565b600060208201905081810360008301526139e381613423565b9050919050565b60006020820190508181036000830152613a0381613446565b9050919050565b60006020820190508181036000830152613a2381613469565b9050919050565b60006020820190508181036000830152613a438161348c565b9050919050565b60006020820190508181036000830152613a63816134af565b9050919050565b60006020820190508181036000830152613a83816134d2565b9050919050565b60006020820190508181036000830152613aa3816134f5565b9050919050565b60006020820190508181036000830152613ac381613518565b9050919050565b60006020820190508181036000830152613ae38161353b565b9050919050565b60006020820190508181036000830152613b038161355e565b9050919050565b60006020820190508181036000830152613b2381613581565b9050919050565b60006020820190508181036000830152613b43816135a4565b9050919050565b60006020820190508181036000830152613b63816135c7565b9050919050565b60006020820190508181036000830152613b83816135ea565b9050919050565b60006020820190508181036000830152613ba38161360d565b9050919050565b60006020820190508181036000830152613bc381613630565b9050919050565b6000602082019050613bdf6000830184613662565b92915050565b6000613bef613c00565b9050613bfb8282613f3e565b919050565b6000604051905090565b600067ffffffffffffffff821115613c2557613c24614080565b5b613c2e826140af565b9050602081019050919050565b600067ffffffffffffffff821115613c5657613c55614080565b5b613c5f826140af565b9050602081019050919050565b6000819050602082019050919050565b60008190508160005260206000209050919050565b600081519050919050565b600081519050919050565b600081519050919050565b6000602082019050919050565b600082825260208201905092915050565b600082825260208201905092915050565b600082825260208201905092915050565b600081905092915050565b6000613d0882613eb3565b9150613d1383613eb3565b9250827fffffffffffffffffffffffffffffffffffffffffffffffffffffffffffffffff03821115613d4857613d47613ff3565b5b828201905092915050565b6000613d5e82613ebd565b9150613d6983613ebd565b92508260ff03821115613d7f57613d7e613ff3565b5b828201905092915050565b6000613d9582613eb3565b9150613da083613eb3565b925082613db057613daf614022565b5b828204905092915050565b6000613dc682613eb3565b9150613dd183613eb3565b9250817fffffffffffffffffffffffffffffffffffffffffffffffffffffffffffffffff0483118215151615613e0a57613e09613ff3565b5b828202905092915050565b6000613e2082613eb3565b9150613e2b83613eb3565b925082821015613e3e57613e3d613ff3565b5b828203905092915050565b6000613e5482613e93565b9050919050565b60008115159050919050565b60007fffffffff0000000000000000000000000000000000000000000000000000000082169050919050565b600073ffffffffffffffffffffffffffffffffffffffff82169050919050565b6000819050919050565b600060ff82169050919050565b82818337600083830152505050565b60005b83811015613ef7578082015181840152602081019050613edc565b83811115613f06576000848401525b50505050565b60006002820490506001821680613f2457607f821691505b60208210811415613f3857613f37614051565b5b50919050565b613f47826140af565b810181811067ffffffffffffffff82111715613f6657613f65614080565b5b80604052505050565b6000613f7a82613eb3565b91507fffffffffffffffffffffffffffffffffffffffffffffffffffffffffffffffff821415613fad57613fac613ff3565b5b600182019050919050565b6000819050919050565b6000613fcd82613eb3565b9150613fd883613eb3565b925082613fe857613fe7614022565b5b828206905092915050565b7f4e487b7100000000000000000000000000000000000000000000000000000000600052601160045260246000fd5b7f4e487b7100000000000000000000000000000000000000000000000000000000600052601260045260246000fd5b7f4e487b7100000000000000000000000000000000000000000000000000000000600052602260045260246000fd5b7f4e487b7100000000000000000000000000000000000000000000000000000000600052604160045260246000fd5b6000601f19601f8301169050919050565b7f4465706c6f796572206d75737420736574206669727374000000000000000000600082015250565b7f47656e6573206d7573742062652076616c696400000000000000000000000000600082015250565b7f4552433732313a207472616e7366657220746f206e6f6e20455243373231526560008201527f63656976657220696d706c656d656e7465720000000000000000000000000000602082015250565b7f4552433732313a20746f6b656e20616c7265616479206d696e74656400000000600082015250565b7f4552433732313a207472616e7366657220746f20746865207a65726f2061646460008201527f7265737300000000000000000000000000000000000000000000000000000000602082015250565b7f4552433732313a20617070726f766520746f2063616c6c657200000000000000600082015250565b7f4552433732313a206f70657261746f7220717565727920666f72206e6f6e657860008201527f697374656e7420746f6b656e0000000000000000000000000000000000000000602082015250565b7f41766f69642073656c6620707572636861736500000000000000000000000000600082015250565b7f4d75737420626520612076616c69642067656e65000000000000000000000000600082015250565b7f4d757374204465706c6f79657200000000000000000000000000000000000000600082015250565b7f4552433732313a20617070726f76652063616c6c6572206973206e6f74206f7760008201527f6e6572206e6f7220617070726f76656420666f7220616c6c0000000000000000602082015250565b7f53656e646572206d757374206f776e2074686520746f6b656e00000000000000600082015250565b7f4552433732313a2062616c616e636520717565727920666f7220746865207a6560008201527f726f206164647265737300000000000000000000000000000000000000000000602082015250565b7f4552433732313a206f776e657220717565727920666f72206e6f6e657869737460008201527f656e7420746f6b656e0000000000000000000000000000000000000000000000602082015250565b7f446973616c6c6f77206465706c6f79657220746f206272656564000000000000600082015250565b7f4552433732313a206d696e7420746f20746865207a65726f2061646472657373600082015250565b7f4552433732313a20617070726f76656420717565727920666f72206e6f6e657860008201527f697374656e7420746f6b656e0000000000000000000000000000000000000000602082015250565b7f4552433732313a207472616e73666572206f6620746f6b656e2074686174206960008201527f73206e6f74206f776e0000000000000000000000000000000000000000000000602082015250565b7f5075726368617365206f6e6c792066726f6d206465706c6f7965720000000000600082015250565b7f4552433732314d657461646174613a2055524920717565727920666f72206e6f60008201527f6e6578697374656e7420746f6b656e0000000000000000000000000000000000602082015250565b7f4552433732313a20617070726f76616c20746f2063757272656e74206f776e6560008201527f7200000000000000000000000000000000000000000000000000000000000000602082015250565b7f53656e646572206d757374206f776e2074686520746f6b656d00000000000000600082015250565b7f4552433732313a207472616e736665722063616c6c6572206973206e6f74206f60008201527f776e6572206e6f7220617070726f766564000000000000000000000000000000602082015250565b61461a81613e49565b811461462557600080fd5b50565b61463181613e5b565b811461463c57600080fd5b50565b61464881613e67565b811461465357600080fd5b50565b61465f81613eb3565b811461466a57600080fd5b5056fea264697066735822122063c380c585f9ba2ce8cd85ddfc8821480927338a24608f629013e451482236cf64736f6c63430008040033",
  "linkReferences": {},
  "deployedLinkReferences": {}
}