{
  "_format": "hh-sol-artifact-1",
  "contractName": "DwarfityCore",
  "sourceName": "contracts/DwarfityCore.sol",
  "abi": [
    {
      "inputs": [],
      "stateMutability": "nonpayable",
      "type": "constructor"
    },
    {
      "anonymous": false,
      "inputs": [
        {
          "indexed": true,
          "internalType": "address",
          "name": "owner",
          "type": "address"
        },
        {
          "indexed": true,
          "internalType": "address",
          "name": "approved",
          "type": "address"
        },
        {
          "indexed": true,
          "internalType": "uint256",
          "name": "tokenId",
          "type": "uint256"
        }
      ],
      "name": "Approval",
      "type": "event"
    },
    {
      "anonymous": false,
      "inputs": [
        {
          "indexed": true,
          "internalType": "address",
          "name": "owner",
          "type": "address"
        },
        {
          "indexed": true,
          "internalType": "address",
          "name": "operator",
          "type": "address"
        },
        {
          "indexed": false,
          "internalType": "bool",
          "name": "approved",
          "type": "bool"
        }
      ],
      "name": "ApprovalForAll",
      "type": "event"
    },
    {
      "anonymous": false,
      "inputs": [
        {
          "indexed": false,
          "internalType": "address",
          "name": "owner",
          "type": "address"
        },
        {
          "indexed": false,
          "internalType": "uint256",
          "name": "tokenId",
          "type": "uint256"
        },
        {
          "indexed": false,
          "internalType": "uint256",
          "name": "fatherTokenId",
          "type": "uint256"
        },
        {
          "indexed": false,
          "internalType": "uint256",
          "name": "motherTokenId",
          "type": "uint256"
        },
        {
          "indexed": false,
          "internalType": "string",
          "name": "genes",
          "type": "string"
        }
      ],
      "name": "Birth",
      "type": "event"
    },
    {
      "anonymous": false,
      "inputs": [
        {
          "indexed": false,
          "internalType": "address",
          "name": "",
          "type": "address"
        },
        {
          "indexed": false,
          "internalType": "uint256",
          "name": "",
          "type": "uint256"
        }
      ],
      "name": "Received",
      "type": "event"
    },
    {
      "anonymous": false,
      "inputs": [
        {
          "indexed": true,
          "internalType": "address",
          "name": "from",
          "type": "address"
        },
        {
          "indexed": true,
          "internalType": "address",
          "name": "to",
          "type": "address"
        },
        {
          "indexed": true,
          "internalType": "uint256",
          "name": "tokenId",
          "type": "uint256"
        }
      ],
      "name": "Transfer",
      "type": "event"
    },
    {
      "inputs": [
        {
          "internalType": "address",
          "name": "to",
          "type": "address"
        },
        {
          "internalType": "uint256",
          "name": "tokenId",
          "type": "uint256"
        }
      ],
      "name": "approve",
      "outputs": [],
      "stateMutability": "nonpayable",
      "type": "function"
    },
    {
      "inputs": [
        {
          "internalType": "address",
          "name": "owner",
          "type": "address"
        }
      ],
      "name": "balanceOf",
      "outputs": [
        {
          "internalType": "uint256",
          "name": "",
          "type": "uint256"
        }
      ],
      "stateMutability": "view",
      "type": "function"
    },
    {
      "inputs": [],
      "name": "baseUri",
      "outputs": [
        {
          "internalType": "string",
          "name": "",
          "type": "string"
        }
      ],
      "stateMutability": "view",
      "type": "function"
    },
    {
      "inputs": [
        {
          "internalType": "uint256",
          "name": "_fatherTokenId",
          "type": "uint256"
        },
        {
          "internalType": "uint256",
          "name": "_motherTokenId",
          "type": "uint256"
        }
      ],
      "name": "breedDwarves",
      "outputs": [],
      "stateMutability": "nonpayable",
      "type": "function"
    },
    {
      "inputs": [],
      "name": "deployer",
      "outputs": [
        {
          "internalType": "address",
          "name": "",
          "type": "address"
        }
      ],
      "stateMutability": "view",
      "type": "function"
    },
    {
      "inputs": [
        {
          "internalType": "string",
          "name": "",
          "type": "string"
        }
      ],
      "name": "dwarfCountPerGene",
      "outputs": [
        {
          "internalType": "uint256",
          "name": "",
          "type": "uint256"
        }
      ],
      "stateMutability": "view",
      "type": "function"
    },
    {
      "inputs": [],
      "name": "dwarfIndexTracker",
      "outputs": [
        {
          "internalType": "uint256",
          "name": "_value",
          "type": "uint256"
        }
      ],
      "stateMutability": "view",
      "type": "function"
    },
    {
      "inputs": [
        {
          "internalType": "uint256",
          "name": "",
          "type": "uint256"
        }
      ],
      "name": "dwarves",
      "outputs": [
        {
          "internalType": "string",
          "name": "genes",
          "type": "string"
        },
        {
          "internalType": "uint256",
          "name": "fatherTokenId",
          "type": "uint256"
        },
        {
          "internalType": "uint256",
          "name": "motherTokenId",
          "type": "uint256"
        }
      ],
      "stateMutability": "view",
      "type": "function"
    },
    {
      "inputs": [
        {
          "internalType": "uint256",
          "name": "tokenId",
          "type": "uint256"
        }
      ],
      "name": "getApproved",
      "outputs": [
        {
          "internalType": "address",
          "name": "",
          "type": "address"
        }
      ],
      "stateMutability": "view",
      "type": "function"
    },
    {
      "inputs": [],
      "name": "getContractBalance",
      "outputs": [
        {
          "internalType": "uint256",
          "name": "",
          "type": "uint256"
        }
      ],
      "stateMutability": "view",
      "type": "function"
    },
    {
      "inputs": [
        {
          "internalType": "uint256",
          "name": "_tokenId",
          "type": "uint256"
        }
      ],
      "name": "getDwarfByTokenId",
      "outputs": [
        {
          "internalType": "string",
          "name": "_genes",
          "type": "string"
        },
        {
          "internalType": "uint256",
          "name": "_fatherTokenId",
          "type": "uint256"
        },
        {
          "internalType": "uint256",
          "name": "_motherTokenId",
          "type": "uint256"
        },
        {
          "internalType": "uint256",
          "name": "_rarity",
          "type": "uint256"
        }
      ],
      "stateMutability": "view",
      "type": "function"
    },
    {
      "inputs": [
        {
          "internalType": "address",
          "name": "_owner",
          "type": "address"
        }
      ],
      "name": "getTokenIds",
      "outputs": [
        {
          "internalType": "uint256[]",
          "name": "",
          "type": "uint256[]"
        }
      ],
      "stateMutability": "view",
      "type": "function"
    },
    {
      "inputs": [],
      "name": "getTokensOfDeployer",
      "outputs": [
        {
          "internalType": "uint256[]",
          "name": "",
          "type": "uint256[]"
        }
      ],
      "stateMutability": "view",
      "type": "function"
    },
    {
      "inputs": [
        {
          "internalType": "address",
          "name": "owner",
          "type": "address"
        },
        {
          "internalType": "address",
          "name": "operator",
          "type": "address"
        }
      ],
      "name": "isApprovedForAll",
      "outputs": [
        {
          "internalType": "bool",
          "name": "",
          "type": "bool"
        }
      ],
      "stateMutability": "view",
      "type": "function"
    },
    {
      "inputs": [
        {
          "internalType": "string",
          "name": "_genes",
          "type": "string"
        }
      ],
      "name": "mintGenesisDwarf",
      "outputs": [],
      "stateMutability": "nonpayable",
      "type": "function"
    },
    {
      "inputs": [],
      "name": "name",
      "outputs": [
        {
          "internalType": "string",
          "name": "",
          "type": "string"
        }
      ],
      "stateMutability": "view",
      "type": "function"
    },
    {
      "inputs": [
        {
          "internalType": "uint256",
          "name": "tokenId",
          "type": "uint256"
        }
      ],
      "name": "ownerOf",
      "outputs": [
        {
          "internalType": "address",
          "name": "",
          "type": "address"
        }
      ],
      "stateMutability": "view",
      "type": "function"
    },
    {
      "inputs": [
        {
          "internalType": "address",
          "name": "",
          "type": "address"
        },
        {
          "internalType": "uint256",
          "name": "",
          "type": "uint256"
        }
      ],
      "name": "ownersTokenIdAtIndex",
      "outputs": [
        {
          "internalType": "int256",
          "name": "",
          "type": "int256"
        }
      ],
      "stateMutability": "view",
      "type": "function"
    },
    {
      "inputs": [
        {
          "internalType": "address",
          "name": "",
          "type": "address"
        },
        {
          "internalType": "uint256",
          "name": "",
          "type": "uint256"
        }
      ],
      "name": "ownersTokenIds",
      "outputs": [
        {
          "internalType": "uint256",
          "name": "",
          "type": "uint256"
        }
      ],
      "stateMutability": "view",
      "type": "function"
    },
    {
      "inputs": [
        {
          "internalType": "uint256",
          "name": "tokenId",
          "type": "uint256"
        }
      ],
      "name": "purchaseDwarfFromDeployer",
      "outputs": [],
      "stateMutability": "payable",
      "type": "function"
    },
    {
      "inputs": [
        {
          "internalType": "address",
          "name": "from",
          "type": "address"
        },
        {
          "internalType": "address",
          "name": "to",
          "type": "address"
        },
        {
          "internalType": "uint256",
          "name": "tokenId",
          "type": "uint256"
        }
      ],
      "name": "safeTransferFrom",
      "outputs": [],
      "stateMutability": "nonpayable",
      "type": "function"
    },
    {
      "inputs": [
        {
          "internalType": "address",
          "name": "from",
          "type": "address"
        },
        {
          "internalType": "address",
          "name": "to",
          "type": "address"
        },
        {
          "internalType": "uint256",
          "name": "tokenId",
          "type": "uint256"
        },
        {
          "internalType": "bytes",
          "name": "_data",
          "type": "bytes"
        }
      ],
      "name": "safeTransferFrom",
      "outputs": [],
      "stateMutability": "nonpayable",
      "type": "function"
    },
    {
      "inputs": [
        {
          "internalType": "address",
          "name": "operator",
          "type": "address"
        },
        {
          "internalType": "bool",
          "name": "approved",
          "type": "bool"
        }
      ],
      "name": "setApprovalForAll",
      "outputs": [],
      "stateMutability": "nonpayable",
      "type": "function"
    },
    {
      "inputs": [
        {
          "internalType": "string",
          "name": "_baseUri",
          "type": "string"
        }
      ],
      "name": "setBaseUri",
      "outputs": [],
      "stateMutability": "nonpayable",
      "type": "function"
    },
    {
      "inputs": [
        {
          "internalType": "bytes4",
          "name": "interfaceId",
          "type": "bytes4"
        }
      ],
      "name": "supportsInterface",
      "outputs": [
        {
          "internalType": "bool",
          "name": "",
          "type": "bool"
        }
      ],
      "stateMutability": "view",
      "type": "function"
    },
    {
      "inputs": [],
      "name": "symbol",
      "outputs": [
        {
          "internalType": "string",
          "name": "",
          "type": "string"
        }
      ],
      "stateMutability": "view",
      "type": "function"
    },
    {
      "inputs": [
        {
          "internalType": "uint256",
          "name": "tokenId",
          "type": "uint256"
        }
      ],
      "name": "tokenURI",
      "outputs": [
        {
          "internalType": "string",
          "name": "",
          "type": "string"
        }
      ],
      "stateMutability": "view",
      "type": "function"
    },
    {
      "inputs": [
        {
          "internalType": "address",
          "name": "from",
          "type": "address"
        },
        {
          "internalType": "address",
          "name": "to",
          "type": "address"
        },
        {
          "internalType": "uint256",
          "name": "tokenId",
          "type": "uint256"
        }
      ],
      "name": "transferFrom",
      "outputs": [],
      "stateMutability": "nonpayable",
      "type": "function"
    },
    {
      "stateMutability": "payable",
      "type": "receive"
    }
  ],
  "bytecode": "0x60806040523480156200001157600080fd5b506040518060400160405280600881526020017f44776172666974790000000000000000000000000000000000000000000000008152506040518060400160405280600281526020017f445700000000000000000000000000000000000000000000000000000000000081525081818160009080519060200190620000989291906200070c565b508060019080519060200190620000b19291906200070c565b5050506040518060200160405280600081525060099080519060200190620000db9291906200070c565b505050620001286000806040518060400160405280600981526020017f3030303030303030300000000000000000000000000000000000000000000000815250336200014060201b60201c565b506200013a33620002b260201b60201c565b62000b67565b60006200015383620002f660201b60201c565b62000195576040517f08c379a00000000000000000000000000000000000000000000000000000000081526004016200018c90620008a8565b60405180910390fd5b6000620001ae60066200030960201b620021261760201c565b905060006040518060600160405280868152602001888152602001878152509050620001e184836200031760201b60201c565b620001f38483620004fd60201b60201c565b600781908060018154018082558091505060019003906000526020600020906003020160009091909190915060008201518160000190805190602001906200023d9291906200070c565b50602082015181600101556040820151816002015550506200026b60066200068560201b620021341760201c565b6001600c866040516200027f91906200088f565b908152602001604051809103902060008282546200029e919062000957565b925050819055508192505050949350505050565b80600860006101000a81548173ffffffffffffffffffffffffffffffffffffffff021916908373ffffffffffffffffffffffffffffffffffffffff16021790555050565b6000808290506009815114915050919050565b600081600001549050919050565b600073ffffffffffffffffffffffffffffffffffffffff168273ffffffffffffffffffffffffffffffffffffffff1614156200038a576040517f08c379a000000000000000000000000000000000000000000000000000000000815260040162000381906200090e565b60405180910390fd5b6200039b816200069b60201b60201c565b15620003de576040517f08c379a0000000000000000000000000000000000000000000000000000000008152600401620003d590620008ca565b60405180910390fd5b620003f2600083836200070760201b60201c565b6001600360008473ffffffffffffffffffffffffffffffffffffffff1673ffffffffffffffffffffffffffffffffffffffff168152602001908152602001600020600082825462000444919062000957565b92505081905550816002600083815260200190815260200160002060006101000a81548173ffffffffffffffffffffffffffffffffffffffff021916908373ffffffffffffffffffffffffffffffffffffffff160217905550808273ffffffffffffffffffffffffffffffffffffffff16600073ffffffffffffffffffffffffffffffffffffffff167fddf252ad1be2c89b69c2b068fc378daa952ba7f163c4a11628f55a4df523b3ef60405160405180910390a45050565b600073ffffffffffffffffffffffffffffffffffffffff168273ffffffffffffffffffffffffffffffffffffffff16141562000570576040517f08c379a00000000000000000000000000000000000000000000000000000000081526004016200056790620008ec565b60405180910390fd5b600a60008373ffffffffffffffffffffffffffffffffffffffff1673ffffffffffffffffffffffffffffffffffffffff16815260200190815260200160002081908060018154018082558091505060019003906000526020600020016000909190919091505560006001600a60008573ffffffffffffffffffffffffffffffffffffffff1673ffffffffffffffffffffffffffffffffffffffff16815260200190815260200160002080549050620006299190620009b4565b905080600b60008573ffffffffffffffffffffffffffffffffffffffff1673ffffffffffffffffffffffffffffffffffffffff168152602001908152602001600020600084815260200190815260200160002081905550505050565b6001816000016000828254019250508190555050565b60008073ffffffffffffffffffffffffffffffffffffffff166002600084815260200190815260200160002060009054906101000a900473ffffffffffffffffffffffffffffffffffffffff1673ffffffffffffffffffffffffffffffffffffffff1614159050919050565b505050565b8280546200071a9062000a2f565b90600052602060002090601f0160209004810192826200073e57600085556200078a565b82601f106200075957805160ff19168380011785556200078a565b828001600101855582156200078a579182015b82811115620007895782518255916020019190600101906200076c565b5b5090506200079991906200079d565b5090565b5b80821115620007b85760008160009055506001016200079e565b5090565b6000620007c98262000930565b620007d581856200094c565b9350620007e7818560208601620009f9565b80840191505092915050565b6000620008026013836200093b565b91506200080f8262000ac3565b602082019050919050565b600062000829601c836200093b565b9150620008368262000aec565b602082019050919050565b600062000850601a836200093b565b91506200085d8262000b15565b602082019050919050565b6000620008776020836200093b565b9150620008848262000b3e565b602082019050919050565b60006200089d8284620007bc565b915081905092915050565b60006020820190508181036000830152620008c381620007f3565b9050919050565b60006020820190508181036000830152620008e5816200081a565b9050919050565b60006020820190508181036000830152620009078162000841565b9050919050565b60006020820190508181036000830152620009298162000868565b9050919050565b600081519050919050565b600082825260208201905092915050565b600081905092915050565b60006200096482620009ef565b91506200097183620009ef565b9250827fffffffffffffffffffffffffffffffffffffffffffffffffffffffffffffffff03821115620009a957620009a862000a65565b5b828201905092915050565b6000620009c182620009ef565b9150620009ce83620009ef565b925082821015620009e457620009e362000a65565b5b828203905092915050565b6000819050919050565b60005b8381101562000a19578082015181840152602081019050620009fc565b8381111562000a29576000848401525b50505050565b6000600282049050600182168062000a4857607f821691505b6020821081141562000a5f5762000a5e62000a94565b5b50919050565b7f4e487b7100000000000000000000000000000000000000000000000000000000600052601160045260246000fd5b7f4e487b7100000000000000000000000000000000000000000000000000000000600052602260045260246000fd5b7f47656e6573206d7573742062652076616c696400000000000000000000000000600082015250565b7f4552433732313a20746f6b656e20616c7265616479206d696e74656400000000600082015250565b7f4f776e6572206d75737420612076616c69642061646472657373000000000000600082015250565b7f4552433732313a206d696e7420746f20746865207a65726f2061646472657373600082015250565b6150158062000b776000396000f3fe6080604052600436106101bb5760003560e01c80638afb50ec116100ec578063b88d4fde1161008a578063d004b03611610064578063d004b0361461068e578063d5f39488146106cb578063e985e9c5146106f6578063f8e9390c14610733576101fb565b8063b88d4fde146105e8578063c87b56dd14610611578063c912ee201461064e576101fb565b80639abc8320116100c65780639abc83201461052e578063a0bcfc7f14610559578063a22cb46514610582578063b2ef480c146105ab576101fb565b80638afb50ec1461049b5780638ed9a4d6146104d857806395d89b4114610503576101fb565b806333dc2d04116101595780636352211e116101335780636352211e146103b95780636f9fb98a146103f657806370a08231146104215780637783adc61461045e576101fb565b806333dc2d041461033c57806342842e0e14610365578063442aa76e1461038e576101fb565b8063095ea7b311610195578063095ea7b3146102a55780630fd48434146102ce5780631b43783d146102f757806323b872dd14610313576101fb565b806301ffc9a71461020057806306fdde031461023d578063081812fc14610268576101fb565b366101fb577f88a5966d370b9919b20f3e2c13ff65706f196a4e32cc2c12bf57088f8852587433346040516101f1929190614082565b60405180910390a1005b600080fd5b34801561020c57600080fd5b5061022760048036038101906102229190613952565b610772565b6040516102349190614127565b60405180910390f35b34801561024957600080fd5b50610252610854565b60405161025f919061415d565b60405180910390f35b34801561027457600080fd5b5061028f600480360381019061028a91906139e5565b6108e6565b60405161029c919061401b565b60405180910390f35b3480156102b157600080fd5b506102cc60048036038101906102c79190613916565b61096b565b005b3480156102da57600080fd5b506102f560048036038101906102f091906139a4565b610a83565b005b610311600480360381019061030c91906139e5565b610bb6565b005b34801561031f57600080fd5b5061033a60048036038101906103359190613810565b610d96565b005b34801561034857600080fd5b50610363600480360381019061035e9190613a0e565b610df6565b005b34801561037157600080fd5b5061038c60048036038101906103879190613810565b610ff8565b005b34801561039a57600080fd5b506103a3611018565b6040516103b09190614105565b60405180910390f35b3480156103c557600080fd5b506103e060048036038101906103db91906139e5565b611373565b6040516103ed919061401b565b60405180910390f35b34801561040257600080fd5b5061040b611425565b6040516104189190614509565b60405180910390f35b34801561042d57600080fd5b50610448600480360381019061044391906137ab565b61154e565b6040516104559190614509565b60405180910390f35b34801561046a57600080fd5b5061048560048036038101906104809190613916565b611606565b6040516104929190614509565b60405180910390f35b3480156104a757600080fd5b506104c260048036038101906104bd9190613916565b611637565b6040516104cf9190614142565b60405180910390f35b3480156104e457600080fd5b506104ed61165c565b6040516104fa9190614509565b60405180910390f35b34801561050f57600080fd5b50610518611668565b604051610525919061415d565b60405180910390f35b34801561053a57600080fd5b506105436116fa565b604051610550919061415d565b60405180910390f35b34801561056557600080fd5b50610580600480360381019061057b91906139a4565b611788565b005b34801561058e57600080fd5b506105a960048036038101906105a491906138da565b6118c4565b005b3480156105b757600080fd5b506105d260048036038101906105cd91906139a4565b611a45565b6040516105df9190614509565b60405180910390f35b3480156105f457600080fd5b5061060f600480360381019061060a919061385f565b611a73565b005b34801561061d57600080fd5b50610638600480360381019061063391906139e5565b611ad5565b604051610645919061415d565b60405180910390f35b34801561065a57600080fd5b50610675600480360381019061067091906139e5565b611b7c565b60405161068594939291906141bd565b60405180910390f35b34801561069a57600080fd5b506106b560048036038101906106b091906137ab565b611d67565b6040516106c29190614105565b60405180910390f35b3480156106d757600080fd5b506106e0611faa565b6040516106ed919061401b565b60405180910390f35b34801561070257600080fd5b5061071d600480360381019061071891906137d4565b611fd0565b60405161072a9190614127565b60405180910390f35b34801561073f57600080fd5b5061075a600480360381019061075591906139e5565b612064565b6040516107699392919061417f565b60405180910390f35b60007f80ac58cd000000000000000000000000000000000000000000000000000000007bffffffffffffffffffffffffffffffffffffffffffffffffffffffff1916827bffffffffffffffffffffffffffffffffffffffffffffffffffffffff1916148061083d57507f5b5e139f000000000000000000000000000000000000000000000000000000007bffffffffffffffffffffffffffffffffffffffffffffffffffffffff1916827bffffffffffffffffffffffffffffffffffffffffffffffffffffffff1916145b8061084d575061084c8261214a565b5b9050919050565b60606000805461086390614855565b80601f016020809104026020016040519081016040528092919081815260200182805461088f90614855565b80156108dc5780601f106108b1576101008083540402835291602001916108dc565b820191906000526020600020905b8154815290600101906020018083116108bf57829003601f168201915b5050505050905090565b60006108f1826121b4565b610930576040517f08c379a000000000000000000000000000000000000000000000000000000000815260040161092790614429565b60405180910390fd5b6004600083815260200190815260200160002060009054906101000a900473ffffffffffffffffffffffffffffffffffffffff169050919050565b600061097682611373565b90508073ffffffffffffffffffffffffffffffffffffffff168373ffffffffffffffffffffffffffffffffffffffff1614156109e7576040517f08c379a00000000000000000000000000000000000000000000000000000000081526004016109de906144a9565b60405180910390fd5b8073ffffffffffffffffffffffffffffffffffffffff16610a06612220565b73ffffffffffffffffffffffffffffffffffffffff161480610a355750610a3481610a2f612220565b611fd0565b5b610a74576040517f08c379a0000000000000000000000000000000000000000000000000000000008152600401610a6b90614369565b60405180910390fd5b610a7e8383612228565b505050565b600073ffffffffffffffffffffffffffffffffffffffff16600860009054906101000a900473ffffffffffffffffffffffffffffffffffffffff1673ffffffffffffffffffffffffffffffffffffffff161415610b15576040517f08c379a0000000000000000000000000000000000000000000000000000000008152600401610b0c90614209565b60405180910390fd5b600860009054906101000a900473ffffffffffffffffffffffffffffffffffffffff1673ffffffffffffffffffffffffffffffffffffffff163373ffffffffffffffffffffffffffffffffffffffff1614610ba5576040517f08c379a0000000000000000000000000000000000000000000000000000000008152600401610b9c90614349565b60405180910390fd5b610bb260008083336122e1565b5050565b3373ffffffffffffffffffffffffffffffffffffffff16610bd682611373565b73ffffffffffffffffffffffffffffffffffffffff161415610c2d576040517f08c379a0000000000000000000000000000000000000000000000000000000008152600401610c24906142e9565b60405180910390fd5b600860009054906101000a900473ffffffffffffffffffffffffffffffffffffffff1673ffffffffffffffffffffffffffffffffffffffff16610c6f82611373565b73ffffffffffffffffffffffffffffffffffffffff1614610cc5576040517f08c379a0000000000000000000000000000000000000000000000000000000008152600401610cbc90614469565b60405180910390fd5b610ccf3382612418565b7fffffffffffffffffffffffffffffffffffffffffffffffffffffffffffffffff600b6000600860009054906101000a900473ffffffffffffffffffffffffffffffffffffffff1673ffffffffffffffffffffffffffffffffffffffff1673ffffffffffffffffffffffffffffffffffffffff168152602001908152602001600020600083815260200190815260200160002081905550610d93600860009054906101000a900473ffffffffffffffffffffffffffffffffffffffff16338361259b565b50565b610da7610da1612220565b826127f7565b610de6576040517f08c379a0000000000000000000000000000000000000000000000000000000008152600401610ddd906144e9565b60405180910390fd5b610df183838361259b565b505050565b600860009054906101000a900473ffffffffffffffffffffffffffffffffffffffff1673ffffffffffffffffffffffffffffffffffffffff163373ffffffffffffffffffffffffffffffffffffffff161415610e87576040517f08c379a0000000000000000000000000000000000000000000000000000000008152600401610e7e906143e9565b60405180910390fd5b3373ffffffffffffffffffffffffffffffffffffffff16610ea783611373565b73ffffffffffffffffffffffffffffffffffffffff1614610efd576040517f08c379a0000000000000000000000000000000000000000000000000000000008152600401610ef490614389565b60405180910390fd5b3373ffffffffffffffffffffffffffffffffffffffff16610f1d82611373565b73ffffffffffffffffffffffffffffffffffffffff1614610f73576040517f08c379a0000000000000000000000000000000000000000000000000000000008152600401610f6a906144c9565b60405180910390fd5b6000610f7e83611b7c565b50505090506000610f8e83611b7c565b50505090506000610f9f83836128d5565b90506000610faf868684336122e1565b90507f4e6455c91928c274385a73f9a414dadc99be42d2c970d057edbebcf5aa1312223382888886604051610fe89594939291906140ab565b60405180910390a1505050505050565b61101383838360405180602001604052806000815250611a73565b505050565b6060600073ffffffffffffffffffffffffffffffffffffffff16600860009054906101000a900473ffffffffffffffffffffffffffffffffffffffff1673ffffffffffffffffffffffffffffffffffffffff1614156110ac576040517f08c379a00000000000000000000000000000000000000000000000000000000081526004016110a390614209565b60405180910390fd5b6000600a6000600860009054906101000a900473ffffffffffffffffffffffffffffffffffffffff1673ffffffffffffffffffffffffffffffffffffffff1673ffffffffffffffffffffffffffffffffffffffff1681526020019081526020016000208054905090506000611142600860009054906101000a900473ffffffffffffffffffffffffffffffffffffffff1661154e565b67ffffffffffffffff811115611181577f4e487b7100000000000000000000000000000000000000000000000000000000600052604160045260246000fd5b6040519080825280602002602001820160405280156111af5781602001602082028036833780820191505090505b5090506000805b83811015611369576000600a6000600860009054906101000a900473ffffffffffffffffffffffffffffffffffffffff1673ffffffffffffffffffffffffffffffffffffffff1673ffffffffffffffffffffffffffffffffffffffff1681526020019081526020016000208281548110611259577f4e487b7100000000000000000000000000000000000000000000000000000000600052603260045260246000fd5b906000526020600020015490507fffffffffffffffffffffffffffffffffffffffffffffffffffffffffffffffff600b6000600860009054906101000a900473ffffffffffffffffffffffffffffffffffffffff1673ffffffffffffffffffffffffffffffffffffffff1673ffffffffffffffffffffffffffffffffffffffff168152602001908152602001600020600083815260200190815260200160002054146113555780848481518110611339577f4e487b7100000000000000000000000000000000000000000000000000000000600052603260045260246000fd5b602002602001018181525050600183611352919061463c565b92505b508080611361906148b8565b9150506111b6565b5081935050505090565b6000806002600084815260200190815260200160002060009054906101000a900473ffffffffffffffffffffffffffffffffffffffff169050600073ffffffffffffffffffffffffffffffffffffffff168173ffffffffffffffffffffffffffffffffffffffff16141561141c576040517f08c379a0000000000000000000000000000000000000000000000000000000008152600401611413906143c9565b60405180910390fd5b80915050919050565b60008073ffffffffffffffffffffffffffffffffffffffff16600860009054906101000a900473ffffffffffffffffffffffffffffffffffffffff1673ffffffffffffffffffffffffffffffffffffffff1614156114b8576040517f08c379a00000000000000000000000000000000000000000000000000000000081526004016114af90614209565b60405180910390fd5b600860009054906101000a900473ffffffffffffffffffffffffffffffffffffffff1673ffffffffffffffffffffffffffffffffffffffff163373ffffffffffffffffffffffffffffffffffffffff1614611548576040517f08c379a000000000000000000000000000000000000000000000000000000000815260040161153f90614349565b60405180910390fd5b47905090565b60008073ffffffffffffffffffffffffffffffffffffffff168273ffffffffffffffffffffffffffffffffffffffff1614156115bf576040517f08c379a00000000000000000000000000000000000000000000000000000000081526004016115b6906143a9565b60405180910390fd5b600360008373ffffffffffffffffffffffffffffffffffffffff1673ffffffffffffffffffffffffffffffffffffffff168152602001908152602001600020549050919050565b600a602052816000526040600020818154811061162257600080fd5b90600052602060002001600091509150505481565b600b602052816000526040600020602052806000526040600020600091509150505481565b60068060000154905081565b60606001805461167790614855565b80601f01602080910402602001604051908101604052809291908181526020018280546116a390614855565b80156116f05780601f106116c5576101008083540402835291602001916116f0565b820191906000526020600020905b8154815290600101906020018083116116d357829003601f168201915b5050505050905090565b6009805461170790614855565b80601f016020809104026020016040519081016040528092919081815260200182805461173390614855565b80156117805780601f1061175557610100808354040283529160200191611780565b820191906000526020600020905b81548152906001019060200180831161176357829003601f168201915b505050505081565b600073ffffffffffffffffffffffffffffffffffffffff16600860009054906101000a900473ffffffffffffffffffffffffffffffffffffffff1673ffffffffffffffffffffffffffffffffffffffff16141561181a576040517f08c379a000000000000000000000000000000000000000000000000000000000815260040161181190614209565b60405180910390fd5b600860009054906101000a900473ffffffffffffffffffffffffffffffffffffffff1673ffffffffffffffffffffffffffffffffffffffff163373ffffffffffffffffffffffffffffffffffffffff16146118aa576040517f08c379a00000000000000000000000000000000000000000000000000000000081526004016118a190614349565b60405180910390fd5b80600990805190602001906118c09291906135cf565b5050565b6118cc612220565b73ffffffffffffffffffffffffffffffffffffffff168273ffffffffffffffffffffffffffffffffffffffff16141561193a576040517f08c379a0000000000000000000000000000000000000000000000000000000008152600401611931906142a9565b60405180910390fd5b8060056000611947612220565b73ffffffffffffffffffffffffffffffffffffffff1673ffffffffffffffffffffffffffffffffffffffff16815260200190815260200160002060008473ffffffffffffffffffffffffffffffffffffffff1673ffffffffffffffffffffffffffffffffffffffff16815260200190815260200160002060006101000a81548160ff0219169083151502179055508173ffffffffffffffffffffffffffffffffffffffff166119f4612220565b73ffffffffffffffffffffffffffffffffffffffff167f17307eab39ab6107e8899845ad3d59bd9653f200f220920489ca2b5937696c3183604051611a399190614127565b60405180910390a35050565b600c818051602081018201805184825260208301602085012081835280955050505050506000915090505481565b611a84611a7e612220565b836127f7565b611ac3576040517f08c379a0000000000000000000000000000000000000000000000000000000008152600401611aba906144e9565b60405180910390fd5b611acf84848484612cbe565b50505050565b6060611ae0826121b4565b611b1f576040517f08c379a0000000000000000000000000000000000000000000000000000000008152600401611b1690614489565b60405180910390fd5b6000611b29612d1a565b90506000815111611b495760405180602001604052806000815250611b74565b80611b5384612dac565b604051602001611b64929190613fa3565b6040516020818303038152906040525b915050919050565b6060600080600060078581548110611bbd577f4e487b7100000000000000000000000000000000000000000000000000000000600052603260045260246000fd5b90600052602060002090600302016000018054611bd990614855565b80601f0160208091040260200160405190810160405280929190818152602001828054611c0590614855565b8015611c525780601f10611c2757610100808354040283529160200191611c52565b820191906000526020600020905b815481529060010190602001808311611c3557829003601f168201915b5050505050935060078581548110611c93577f4e487b7100000000000000000000000000000000000000000000000000000000600052603260045260246000fd5b906000526020600020906003020160010154925060078581548110611ce1577f4e487b7100000000000000000000000000000000000000000000000000000000600052603260045260246000fd5b9060005260206000209060030201600201549150600c60078681548110611d31577f4e487b7100000000000000000000000000000000000000000000000000000000600052603260045260246000fd5b9060005260206000209060030201600001604051611d4f9190613fc7565b90815260200160405180910390205490509193509193565b60606000600a60008473ffffffffffffffffffffffffffffffffffffffff1673ffffffffffffffffffffffffffffffffffffffff1681526020019081526020016000208054905090506000611dbb8461154e565b67ffffffffffffffff811115611dfa577f4e487b7100000000000000000000000000000000000000000000000000000000600052604160045260246000fd5b604051908082528060200260200182016040528015611e285781602001602082028036833780820191505090505b5090506000805b83811015611f9e576000600a60008873ffffffffffffffffffffffffffffffffffffffff1673ffffffffffffffffffffffffffffffffffffffff1681526020019081526020016000208281548110611eb0577f4e487b7100000000000000000000000000000000000000000000000000000000600052603260045260246000fd5b906000526020600020015490507fffffffffffffffffffffffffffffffffffffffffffffffffffffffffffffffff600b60008973ffffffffffffffffffffffffffffffffffffffff1673ffffffffffffffffffffffffffffffffffffffff16815260200190815260200160002060008381526020019081526020016000205414611f8a5780848481518110611f6e577f4e487b7100000000000000000000000000000000000000000000000000000000600052603260045260246000fd5b602002602001018181525050600183611f87919061463c565b92505b508080611f96906148b8565b915050611e2f565b50819350505050919050565b600860009054906101000a900473ffffffffffffffffffffffffffffffffffffffff1681565b6000600560008473ffffffffffffffffffffffffffffffffffffffff1673ffffffffffffffffffffffffffffffffffffffff16815260200190815260200160002060008373ffffffffffffffffffffffffffffffffffffffff1673ffffffffffffffffffffffffffffffffffffffff16815260200190815260200160002060009054906101000a900460ff16905092915050565b6007818154811061207457600080fd5b906000526020600020906003020160009150905080600001805461209790614855565b80601f01602080910402602001604051908101604052809291908181526020018280546120c390614855565b80156121105780601f106120e557610100808354040283529160200191612110565b820191906000526020600020905b8154815290600101906020018083116120f357829003601f168201915b5050505050908060010154908060020154905083565b600081600001549050919050565b6001816000016000828254019250508190555050565b60007f01ffc9a7000000000000000000000000000000000000000000000000000000007bffffffffffffffffffffffffffffffffffffffffffffffffffffffff1916827bffffffffffffffffffffffffffffffffffffffffffffffffffffffff1916149050919050565b60008073ffffffffffffffffffffffffffffffffffffffff166002600084815260200190815260200160002060009054906101000a900473ffffffffffffffffffffffffffffffffffffffff1673ffffffffffffffffffffffffffffffffffffffff1614159050919050565b600033905090565b816004600083815260200190815260200160002060006101000a81548173ffffffffffffffffffffffffffffffffffffffff021916908373ffffffffffffffffffffffffffffffffffffffff160217905550808273ffffffffffffffffffffffffffffffffffffffff1661229b83611373565b73ffffffffffffffffffffffffffffffffffffffff167f8c5be1e5ebec7d5bd14f71427d1e84f3dd0314c0f7b2291e5b200ac8c7c3b92560405160405180910390a45050565b60006122ec83612f59565b61232b576040517f08c379a000000000000000000000000000000000000000000000000000000000815260040161232290614229565b60405180910390fd5b60006123376006612126565b9050600060405180606001604052808681526020018881526020018781525090506123628483612f6c565b61236c8483612418565b600781908060018154018082558091505060019003906000526020600020906003020160009091909190915060008201518160000190805190602001906123b49291906135cf565b50602082015181600101556040820151816002015550506123d56006612134565b6001600c866040516123e79190613f8c565b90815260200160405180910390206000828254612404919061463c565b925050819055508192505050949350505050565b600073ffffffffffffffffffffffffffffffffffffffff168273ffffffffffffffffffffffffffffffffffffffff161415612488576040517f08c379a000000000000000000000000000000000000000000000000000000000815260040161247f90614329565b60405180910390fd5b600a60008373ffffffffffffffffffffffffffffffffffffffff1673ffffffffffffffffffffffffffffffffffffffff16815260200190815260200160002081908060018154018082558091505060019003906000526020600020016000909190919091505560006001600a60008573ffffffffffffffffffffffffffffffffffffffff1673ffffffffffffffffffffffffffffffffffffffff1681526020019081526020016000208054905061253f9190614754565b905080600b60008573ffffffffffffffffffffffffffffffffffffffff1673ffffffffffffffffffffffffffffffffffffffff168152602001908152602001600020600084815260200190815260200160002081905550505050565b8273ffffffffffffffffffffffffffffffffffffffff166125bb82611373565b73ffffffffffffffffffffffffffffffffffffffff1614612611576040517f08c379a000000000000000000000000000000000000000000000000000000000815260040161260890614449565b60405180910390fd5b600073ffffffffffffffffffffffffffffffffffffffff168273ffffffffffffffffffffffffffffffffffffffff161415612681576040517f08c379a000000000000000000000000000000000000000000000000000000000815260040161267890614289565b60405180910390fd5b61268c83838361313a565b612697600082612228565b6001600360008573ffffffffffffffffffffffffffffffffffffffff1673ffffffffffffffffffffffffffffffffffffffff16815260200190815260200160002060008282546126e79190614754565b925050819055506001600360008473ffffffffffffffffffffffffffffffffffffffff1673ffffffffffffffffffffffffffffffffffffffff168152602001908152602001600020600082825461273e919061463c565b92505081905550816002600083815260200190815260200160002060006101000a81548173ffffffffffffffffffffffffffffffffffffffff021916908373ffffffffffffffffffffffffffffffffffffffff160217905550808273ffffffffffffffffffffffffffffffffffffffff168473ffffffffffffffffffffffffffffffffffffffff167fddf252ad1be2c89b69c2b068fc378daa952ba7f163c4a11628f55a4df523b3ef60405160405180910390a4505050565b6000612802826121b4565b612841576040517f08c379a0000000000000000000000000000000000000000000000000000000008152600401612838906142c9565b60405180910390fd5b600061284c83611373565b90508073ffffffffffffffffffffffffffffffffffffffff168473ffffffffffffffffffffffffffffffffffffffff1614806128bb57508373ffffffffffffffffffffffffffffffffffffffff166128a3846108e6565b73ffffffffffffffffffffffffffffffffffffffff16145b806128cc57506128cb8185611fd0565b5b91505092915050565b60606128e083612f59565b61291f576040517f08c379a000000000000000000000000000000000000000000000000000000000815260040161291690614309565b60405180910390fd5b61292882612f59565b612967576040517f08c379a000000000000000000000000000000000000000000000000000000000815260040161295e90614309565b60405180910390fd5b600083905060008390506000600967ffffffffffffffff8111156129b4577f4e487b7100000000000000000000000000000000000000000000000000000000600052604160045260246000fd5b6040519080825280601f01601f1916602001820160405280156129e65781602001600182028036833780820191505090505b5090506000600260096129f991906146c9565b905060005b81811015612adc57848181518110612a3f577f4e487b7100000000000000000000000000000000000000000000000000000000600052603260045260246000fd5b602001015160f81c60f81b8360018484612a59919061463c565b612a63919061463c565b81518110612a9a577f4e487b7100000000000000000000000000000000000000000000000000000000600052603260045260246000fd5b60200101907effffffffffffffffffffffffffffffffffffffffffffffffffffffffffffff1916908160001a9053508080612ad4906148b8565b9150506129fe565b5060008190505b6009811015612bb657838181518110612b25577f4e487b7100000000000000000000000000000000000000000000000000000000600052603260045260246000fd5b602001015160f81c60f81b838383612b3d9190614754565b81518110612b74577f4e487b7100000000000000000000000000000000000000000000000000000000600052603260045260246000fd5b60200101907effffffffffffffffffffffffffffffffffffffffffffffffffffffffffffff1916908160001a9053508080612bae906148b8565b915050612ae3565b50600080612bc261313f565b915091507fffffffffffffffffffffffffffffffffffffffffffffffffffffffffffffffff8214612caf576000612bf882613250565b9050600081905080600081518110612c39577f4e487b7100000000000000000000000000000000000000000000000000000000600052603260045260246000fd5b602001015160f81c60f81b868581518110612c7d577f4e487b7100000000000000000000000000000000000000000000000000000000600052603260045260246000fd5b60200101907effffffffffffffffffffffffffffffffffffffffffffffffffffffffffffff1916908160001a90535050505b83965050505050505092915050565b612cc984848461259b565b612cd584848484613425565b612d14576040517f08c379a0000000000000000000000000000000000000000000000000000000008152600401612d0b90614249565b60405180910390fd5b50505050565b606060098054612d2990614855565b80601f0160208091040260200160405190810160405280929190818152602001828054612d5590614855565b8015612da25780601f10612d7757610100808354040283529160200191612da2565b820191906000526020600020905b815481529060010190602001808311612d8557829003601f168201915b5050505050905090565b60606000821415612df4576040518060400160405280600181526020017f30000000000000000000000000000000000000000000000000000000000000008152509050612f54565b600082905060005b60008214612e26578080612e0f906148b8565b915050600a82612e1f91906146c9565b9150612dfc565b60008167ffffffffffffffff811115612e68577f4e487b7100000000000000000000000000000000000000000000000000000000600052604160045260246000fd5b6040519080825280601f01601f191660200182016040528015612e9a5781602001600182028036833780820191505090505b5090505b60008514612f4d57600182612eb39190614754565b9150600a85612ec2919061490b565b6030612ece919061463c565b60f81b818381518110612f0a577f4e487b7100000000000000000000000000000000000000000000000000000000600052603260045260246000fd5b60200101907effffffffffffffffffffffffffffffffffffffffffffffffffffffffffffff1916908160001a905350600a85612f4691906146c9565b9450612e9e565b8093505050505b919050565b6000808290506009815114915050919050565b600073ffffffffffffffffffffffffffffffffffffffff168273ffffffffffffffffffffffffffffffffffffffff161415612fdc576040517f08c379a0000000000000000000000000000000000000000000000000000000008152600401612fd390614409565b60405180910390fd5b612fe5816121b4565b15613025576040517f08c379a000000000000000000000000000000000000000000000000000000000815260040161301c90614269565b60405180910390fd5b6130316000838361313a565b6001600360008473ffffffffffffffffffffffffffffffffffffffff1673ffffffffffffffffffffffffffffffffffffffff1681526020019081526020016000206000828254613081919061463c565b92505081905550816002600083815260200190815260200160002060006101000a81548173ffffffffffffffffffffffffffffffffffffffff021916908373ffffffffffffffffffffffffffffffffffffffff160217905550808273ffffffffffffffffffffffffffffffffffffffff16600073ffffffffffffffffffffffffffffffffffffffff167fddf252ad1be2c89b69c2b068fc378daa952ba7f163c4a11628f55a4df523b3ef60405160405180910390a45050565b505050565b60008060004442606460405160200161315a93929190613fde565b6040516020818303038152906040528051906020012060001c90506000606482613184919061490b565b90506000600f821090508015613222576000444260646040516020016131ac93929190613fde565b6040516020818303038152906040528051906020012060001c90506000444260646040516020016131df93929190613fde565b6040516020818303038152906040528051906020012060001c9050600982613207919061490b565b600382613214919061490b565b96509650505050505061324c565b7fffffffffffffffffffffffffffffffffffffffffffffffffffffffffffffffff80945094505050505b9091565b60606000821415613298576040518060400160405280600181526020017f30000000000000000000000000000000000000000000000000000000000000008152509050613420565b600082905060005b600082146132ca5780806132b3906148b8565b915050600a826132c391906146c9565b91506132a0565b60008167ffffffffffffffff81111561330c577f4e487b7100000000000000000000000000000000000000000000000000000000600052604160045260246000fd5b6040519080825280601f01601f19166020018201604052801561333e5781602001600182028036833780820191505090505b50905060008290505b600086146134185760018161335c9190614754565b90506000600a808861336e91906146c9565b61337891906146fa565b876133839190614754565b603061338f9190614692565b905060008160f81b9050808484815181106133d3577f4e487b7100000000000000000000000000000000000000000000000000000000600052603260045260246000fd5b60200101907effffffffffffffffffffffffffffffffffffffffffffffffffffffffffffff1916908160001a905350600a8861340f91906146c9565b97505050613347565b819450505050505b919050565b60006134468473ffffffffffffffffffffffffffffffffffffffff166135bc565b156135af578373ffffffffffffffffffffffffffffffffffffffff1663150b7a0261346f612220565b8786866040518563ffffffff1660e01b81526004016134919493929190614036565b602060405180830381600087803b1580156134ab57600080fd5b505af19250505080156134dc57506040513d601f19601f820116820180604052508101906134d9919061397b565b60015b61355f573d806000811461350c576040519150601f19603f3d011682016040523d82523d6000602084013e613511565b606091505b50600081511415613557576040517f08c379a000000000000000000000000000000000000000000000000000000000815260040161354e90614249565b60405180910390fd5b805181602001fd5b63150b7a0260e01b7bffffffffffffffffffffffffffffffffffffffffffffffffffffffff1916817bffffffffffffffffffffffffffffffffffffffffffffffffffffffff1916149150506135b4565b600190505b949350505050565b600080823b905060008111915050919050565b8280546135db90614855565b90600052602060002090601f0160209004810192826135fd5760008555613644565b82601f1061361657805160ff1916838001178555613644565b82800160010185558215613644579182015b82811115613643578251825591602001919060010190613628565b5b5090506136519190613655565b5090565b5b8082111561366e576000816000905550600101613656565b5090565b600061368561368084614549565b614524565b90508281526020810184848401111561369d57600080fd5b6136a8848285614813565b509392505050565b60006136c36136be8461457a565b614524565b9050828152602081018484840111156136db57600080fd5b6136e6848285614813565b509392505050565b6000813590506136fd81614f83565b92915050565b60008135905061371281614f9a565b92915050565b60008135905061372781614fb1565b92915050565b60008151905061373c81614fb1565b92915050565b600082601f83011261375357600080fd5b8135613763848260208601613672565b91505092915050565b600082601f83011261377d57600080fd5b813561378d8482602086016136b0565b91505092915050565b6000813590506137a581614fc8565b92915050565b6000602082840312156137bd57600080fd5b60006137cb848285016136ee565b91505092915050565b600080604083850312156137e757600080fd5b60006137f5858286016136ee565b9250506020613806858286016136ee565b9150509250929050565b60008060006060848603121561382557600080fd5b6000613833868287016136ee565b9350506020613844868287016136ee565b925050604061385586828701613796565b9150509250925092565b6000806000806080858703121561387557600080fd5b6000613883878288016136ee565b9450506020613894878288016136ee565b93505060406138a587828801613796565b925050606085013567ffffffffffffffff8111156138c257600080fd5b6138ce87828801613742565b91505092959194509250565b600080604083850312156138ed57600080fd5b60006138fb858286016136ee565b925050602061390c85828601613703565b9150509250929050565b6000806040838503121561392957600080fd5b6000613937858286016136ee565b925050602061394885828601613796565b9150509250929050565b60006020828403121561396457600080fd5b600061397284828501613718565b91505092915050565b60006020828403121561398d57600080fd5b600061399b8482850161372d565b91505092915050565b6000602082840312156139b657600080fd5b600082013567ffffffffffffffff8111156139d057600080fd5b6139dc8482850161376c565b91505092915050565b6000602082840312156139f757600080fd5b6000613a0584828501613796565b91505092915050565b60008060408385031215613a2157600080fd5b6000613a2f85828601613796565b9250506020613a4085828601613796565b9150509250929050565b6000613a568383613f57565b60208301905092915050565b613a6b81614788565b82525050565b6000613a7c826145d0565b613a8681856145fe565b9350613a91836145ab565b8060005b83811015613ac2578151613aa98882613a4a565b9750613ab4836145f1565b925050600181019050613a95565b5085935050505092915050565b613ad88161479a565b82525050565b6000613ae9826145db565b613af3818561460f565b9350613b03818560208601614822565b613b0c816149f8565b840191505092915050565b613b20816147d2565b82525050565b6000613b31826145e6565b613b3b8185614620565b9350613b4b818560208601614822565b613b54816149f8565b840191505092915050565b6000613b6a826145e6565b613b748185614631565b9350613b84818560208601614822565b80840191505092915050565b60008154613b9d81614855565b613ba78186614631565b94506001821660008114613bc25760018114613bd357613c06565b60ff19831686528186019350613c06565b613bdc856145bb565b60005b83811015613bfe57815481890152600182019150602081019050613bdf565b838801955050505b50505092915050565b6000613c1c601783614620565b9150613c2782614a09565b602082019050919050565b6000613c3f601383614620565b9150613c4a82614a32565b602082019050919050565b6000613c62603283614620565b9150613c6d82614a5b565b604082019050919050565b6000613c85601c83614620565b9150613c9082614aaa565b602082019050919050565b6000613ca8602483614620565b9150613cb382614ad3565b604082019050919050565b6000613ccb601983614620565b9150613cd682614b22565b602082019050919050565b6000613cee602c83614620565b9150613cf982614b4b565b604082019050919050565b6000613d11601383614620565b9150613d1c82614b9a565b602082019050919050565b6000613d34601483614620565b9150613d3f82614bc3565b602082019050919050565b6000613d57601a83614620565b9150613d6282614bec565b602082019050919050565b6000613d7a600d83614620565b9150613d8582614c15565b602082019050919050565b6000613d9d603883614620565b9150613da882614c3e565b604082019050919050565b6000613dc0601983614620565b9150613dcb82614c8d565b602082019050919050565b6000613de3602a83614620565b9150613dee82614cb6565b604082019050919050565b6000613e06602983614620565b9150613e1182614d05565b604082019050919050565b6000613e29601a83614620565b9150613e3482614d54565b602082019050919050565b6000613e4c602083614620565b9150613e5782614d7d565b602082019050919050565b6000613e6f602c83614620565b9150613e7a82614da6565b604082019050919050565b6000613e92602983614620565b9150613e9d82614df5565b604082019050919050565b6000613eb5601b83614620565b9150613ec082614e44565b602082019050919050565b6000613ed8602f83614620565b9150613ee382614e6d565b604082019050919050565b6000613efb602183614620565b9150613f0682614ebc565b604082019050919050565b6000613f1e601983614620565b9150613f2982614f0b565b602082019050919050565b6000613f41603183614620565b9150613f4c82614f34565b604082019050919050565b613f60816147fc565b82525050565b613f6f816147fc565b82525050565b613f86613f81826147fc565b614901565b82525050565b6000613f988284613b5f565b915081905092915050565b6000613faf8285613b5f565b9150613fbb8284613b5f565b91508190509392505050565b6000613fd38284613b90565b915081905092915050565b6000613fea8286613f75565b602082019150613ffa8285613f75565b60208201915061400a8284613f75565b602082019150819050949350505050565b60006020820190506140306000830184613a62565b92915050565b600060808201905061404b6000830187613a62565b6140586020830186613a62565b6140656040830185613f66565b81810360608301526140778184613ade565b905095945050505050565b60006040820190506140976000830185613a62565b6140a46020830184613f66565b9392505050565b600060a0820190506140c06000830188613a62565b6140cd6020830187613f66565b6140da6040830186613f66565b6140e76060830185613f66565b81810360808301526140f98184613b26565b90509695505050505050565b6000602082019050818103600083015261411f8184613a71565b905092915050565b600060208201905061413c6000830184613acf565b92915050565b60006020820190506141576000830184613b17565b92915050565b600060208201905081810360008301526141778184613b26565b905092915050565b600060608201905081810360008301526141998186613b26565b90506141a86020830185613f66565b6141b56040830184613f66565b949350505050565b600060808201905081810360008301526141d78187613b26565b90506141e66020830186613f66565b6141f36040830185613f66565b6142006060830184613f66565b95945050505050565b6000602082019050818103600083015261422281613c0f565b9050919050565b6000602082019050818103600083015261424281613c32565b9050919050565b6000602082019050818103600083015261426281613c55565b9050919050565b6000602082019050818103600083015261428281613c78565b9050919050565b600060208201905081810360008301526142a281613c9b565b9050919050565b600060208201905081810360008301526142c281613cbe565b9050919050565b600060208201905081810360008301526142e281613ce1565b9050919050565b6000602082019050818103600083015261430281613d04565b9050919050565b6000602082019050818103600083015261432281613d27565b9050919050565b6000602082019050818103600083015261434281613d4a565b9050919050565b6000602082019050818103600083015261436281613d6d565b9050919050565b6000602082019050818103600083015261438281613d90565b9050919050565b600060208201905081810360008301526143a281613db3565b9050919050565b600060208201905081810360008301526143c281613dd6565b9050919050565b600060208201905081810360008301526143e281613df9565b9050919050565b6000602082019050818103600083015261440281613e1c565b9050919050565b6000602082019050818103600083015261442281613e3f565b9050919050565b6000602082019050818103600083015261444281613e62565b9050919050565b6000602082019050818103600083015261446281613e85565b9050919050565b6000602082019050818103600083015261448281613ea8565b9050919050565b600060208201905081810360008301526144a281613ecb565b9050919050565b600060208201905081810360008301526144c281613eee565b9050919050565b600060208201905081810360008301526144e281613f11565b9050919050565b6000602082019050818103600083015261450281613f34565b9050919050565b600060208201905061451e6000830184613f66565b92915050565b600061452e61453f565b905061453a8282614887565b919050565b6000604051905090565b600067ffffffffffffffff821115614564576145636149c9565b5b61456d826149f8565b9050602081019050919050565b600067ffffffffffffffff821115614595576145946149c9565b5b61459e826149f8565b9050602081019050919050565b6000819050602082019050919050565b60008190508160005260206000209050919050565b600081519050919050565b600081519050919050565b600081519050919050565b6000602082019050919050565b600082825260208201905092915050565b600082825260208201905092915050565b600082825260208201905092915050565b600081905092915050565b6000614647826147fc565b9150614652836147fc565b9250827fffffffffffffffffffffffffffffffffffffffffffffffffffffffffffffffff038211156146875761468661493c565b5b828201905092915050565b600061469d82614806565b91506146a883614806565b92508260ff038211156146be576146bd61493c565b5b828201905092915050565b60006146d4826147fc565b91506146df836147fc565b9250826146ef576146ee61496b565b5b828204905092915050565b6000614705826147fc565b9150614710836147fc565b9250817fffffffffffffffffffffffffffffffffffffffffffffffffffffffffffffffff04831182151516156147495761474861493c565b5b828202905092915050565b600061475f826147fc565b915061476a836147fc565b92508282101561477d5761477c61493c565b5b828203905092915050565b6000614793826147dc565b9050919050565b60008115159050919050565b60007fffffffff0000000000000000000000000000000000000000000000000000000082169050919050565b6000819050919050565b600073ffffffffffffffffffffffffffffffffffffffff82169050919050565b6000819050919050565b600060ff82169050919050565b82818337600083830152505050565b60005b83811015614840578082015181840152602081019050614825565b8381111561484f576000848401525b50505050565b6000600282049050600182168061486d57607f821691505b602082108114156148815761488061499a565b5b50919050565b614890826149f8565b810181811067ffffffffffffffff821117156148af576148ae6149c9565b5b80604052505050565b60006148c3826147fc565b91507fffffffffffffffffffffffffffffffffffffffffffffffffffffffffffffffff8214156148f6576148f561493c565b5b600182019050919050565b6000819050919050565b6000614916826147fc565b9150614921836147fc565b9250826149315761493061496b565b5b828206905092915050565b7f4e487b7100000000000000000000000000000000000000000000000000000000600052601160045260246000fd5b7f4e487b7100000000000000000000000000000000000000000000000000000000600052601260045260246000fd5b7f4e487b7100000000000000000000000000000000000000000000000000000000600052602260045260246000fd5b7f4e487b7100000000000000000000000000000000000000000000000000000000600052604160045260246000fd5b6000601f19601f8301169050919050565b7f4465706c6f796572206d75737420736574206669727374000000000000000000600082015250565b7f47656e6573206d7573742062652076616c696400000000000000000000000000600082015250565b7f4552433732313a207472616e7366657220746f206e6f6e20455243373231526560008201527f63656976657220696d706c656d656e7465720000000000000000000000000000602082015250565b7f4552433732313a20746f6b656e20616c7265616479206d696e74656400000000600082015250565b7f4552433732313a207472616e7366657220746f20746865207a65726f2061646460008201527f7265737300000000000000000000000000000000000000000000000000000000602082015250565b7f4552433732313a20617070726f766520746f2063616c6c657200000000000000600082015250565b7f4552433732313a206f70657261746f7220717565727920666f72206e6f6e657860008201527f697374656e7420746f6b656e0000000000000000000000000000000000000000602082015250565b7f41766f69642073656c6620707572636861736500000000000000000000000000600082015250565b7f4d75737420626520612076616c69642067656e65000000000000000000000000600082015250565b7f4f776e6572206d75737420612076616c69642061646472657373000000000000600082015250565b7f4d757374204465706c6f79657200000000000000000000000000000000000000600082015250565b7f4552433732313a20617070726f76652063616c6c6572206973206e6f74206f7760008201527f6e6572206e6f7220617070726f76656420666f7220616c6c0000000000000000602082015250565b7f53656e646572206d757374206f776e2074686520746f6b656e00000000000000600082015250565b7f4552433732313a2062616c616e636520717565727920666f7220746865207a6560008201527f726f206164647265737300000000000000000000000000000000000000000000602082015250565b7f4552433732313a206f776e657220717565727920666f72206e6f6e657869737460008201527f656e7420746f6b656e0000000000000000000000000000000000000000000000602082015250565b7f446973616c6c6f77206465706c6f79657220746f206272656564000000000000600082015250565b7f4552433732313a206d696e7420746f20746865207a65726f2061646472657373600082015250565b7f4552433732313a20617070726f76656420717565727920666f72206e6f6e657860008201527f697374656e7420746f6b656e0000000000000000000000000000000000000000602082015250565b7f4552433732313a207472616e73666572206f6620746f6b656e2074686174206960008201527f73206e6f74206f776e0000000000000000000000000000000000000000000000602082015250565b7f5075726368617365206f6e6c792066726f6d206465706c6f7965720000000000600082015250565b7f4552433732314d657461646174613a2055524920717565727920666f72206e6f60008201527f6e6578697374656e7420746f6b656e0000000000000000000000000000000000602082015250565b7f4552433732313a20617070726f76616c20746f2063757272656e74206f776e6560008201527f7200000000000000000000000000000000000000000000000000000000000000602082015250565b7f53656e646572206d757374206f776e2074686520746f6b656d00000000000000600082015250565b7f4552433732313a207472616e736665722063616c6c6572206973206e6f74206f60008201527f776e6572206e6f7220617070726f766564000000000000000000000000000000602082015250565b614f8c81614788565b8114614f9757600080fd5b50565b614fa38161479a565b8114614fae57600080fd5b50565b614fba816147a6565b8114614fc557600080fd5b50565b614fd1816147fc565b8114614fdc57600080fd5b5056fea26469706673582212200e0cddcbbd80f29f0ef2f3fadfc762521edf5478030250402446c84d3b5108dd64736f6c63430008040033",
  "linkReferences": {},
  "deployedLinkReferences": {}
}