{
  "_format": "hh-sol-artifact-1",
  "contractName": "DwarfityCore",
  "sourceName": "contracts/DwarfityCore.sol",
  "abi": [
    {
      "inputs": [],
      "stateMutability": "nonpayable",
      "type": "constructor"
    },
    {
      "anonymous": false,
      "inputs": [
        {
          "indexed": true,
          "internalType": "address",
          "name": "owner",
          "type": "address"
        },
        {
          "indexed": true,
          "internalType": "address",
          "name": "approved",
          "type": "address"
        },
        {
          "indexed": true,
          "internalType": "uint256",
          "name": "tokenId",
          "type": "uint256"
        }
      ],
      "name": "Approval",
      "type": "event"
    },
    {
      "anonymous": false,
      "inputs": [
        {
          "indexed": true,
          "internalType": "address",
          "name": "owner",
          "type": "address"
        },
        {
          "indexed": true,
          "internalType": "address",
          "name": "operator",
          "type": "address"
        },
        {
          "indexed": false,
          "internalType": "bool",
          "name": "approved",
          "type": "bool"
        }
      ],
      "name": "ApprovalForAll",
      "type": "event"
    },
    {
      "anonymous": false,
      "inputs": [
        {
          "indexed": false,
          "internalType": "address",
          "name": "owner",
          "type": "address"
        },
        {
          "indexed": false,
          "internalType": "uint256",
          "name": "tokenId",
          "type": "uint256"
        },
        {
          "indexed": false,
          "internalType": "uint256",
          "name": "fatherTokenId",
          "type": "uint256"
        },
        {
          "indexed": false,
          "internalType": "uint256",
          "name": "motherTokenId",
          "type": "uint256"
        },
        {
          "indexed": false,
          "internalType": "string",
          "name": "genes",
          "type": "string"
        }
      ],
      "name": "Birth",
      "type": "event"
    },
    {
      "anonymous": false,
      "inputs": [
        {
          "indexed": false,
          "internalType": "address",
          "name": "",
          "type": "address"
        },
        {
          "indexed": false,
          "internalType": "uint256",
          "name": "",
          "type": "uint256"
        }
      ],
      "name": "Received",
      "type": "event"
    },
    {
      "anonymous": false,
      "inputs": [
        {
          "indexed": true,
          "internalType": "address",
          "name": "from",
          "type": "address"
        },
        {
          "indexed": true,
          "internalType": "address",
          "name": "to",
          "type": "address"
        },
        {
          "indexed": true,
          "internalType": "uint256",
          "name": "tokenId",
          "type": "uint256"
        }
      ],
      "name": "Transfer",
      "type": "event"
    },
    {
      "inputs": [
        {
          "internalType": "address",
          "name": "to",
          "type": "address"
        },
        {
          "internalType": "uint256",
          "name": "tokenId",
          "type": "uint256"
        }
      ],
      "name": "approve",
      "outputs": [],
      "stateMutability": "nonpayable",
      "type": "function"
    },
    {
      "inputs": [
        {
          "internalType": "address",
          "name": "owner",
          "type": "address"
        }
      ],
      "name": "balanceOf",
      "outputs": [
        {
          "internalType": "uint256",
          "name": "",
          "type": "uint256"
        }
      ],
      "stateMutability": "view",
      "type": "function"
    },
    {
      "inputs": [],
      "name": "baseUri",
      "outputs": [
        {
          "internalType": "string",
          "name": "",
          "type": "string"
        }
      ],
      "stateMutability": "view",
      "type": "function"
    },
    {
      "inputs": [
        {
          "internalType": "uint256",
          "name": "_fatherTokenId",
          "type": "uint256"
        },
        {
          "internalType": "uint256",
          "name": "_motherTokenId",
          "type": "uint256"
        }
      ],
      "name": "breedDwarves",
      "outputs": [],
      "stateMutability": "nonpayable",
      "type": "function"
    },
    {
      "inputs": [],
      "name": "deployer",
      "outputs": [
        {
          "internalType": "address",
          "name": "",
          "type": "address"
        }
      ],
      "stateMutability": "view",
      "type": "function"
    },
    {
      "inputs": [
        {
          "internalType": "string",
          "name": "",
          "type": "string"
        }
      ],
      "name": "dwarfCountPerGene",
      "outputs": [
        {
          "internalType": "uint256",
          "name": "",
          "type": "uint256"
        }
      ],
      "stateMutability": "view",
      "type": "function"
    },
    {
      "inputs": [],
      "name": "dwarfIndexTracker",
      "outputs": [
        {
          "internalType": "uint256",
          "name": "_value",
          "type": "uint256"
        }
      ],
      "stateMutability": "view",
      "type": "function"
    },
    {
      "inputs": [
        {
          "internalType": "uint256",
          "name": "",
          "type": "uint256"
        }
      ],
      "name": "dwarves",
      "outputs": [
        {
          "internalType": "string",
          "name": "genes",
          "type": "string"
        },
        {
          "internalType": "uint256",
          "name": "fatherTokenId",
          "type": "uint256"
        },
        {
          "internalType": "uint256",
          "name": "motherTokenId",
          "type": "uint256"
        }
      ],
      "stateMutability": "view",
      "type": "function"
    },
    {
      "inputs": [
        {
          "internalType": "uint256",
          "name": "tokenId",
          "type": "uint256"
        }
      ],
      "name": "getApproved",
      "outputs": [
        {
          "internalType": "address",
          "name": "",
          "type": "address"
        }
      ],
      "stateMutability": "view",
      "type": "function"
    },
    {
      "inputs": [],
      "name": "getContractBalance",
      "outputs": [
        {
          "internalType": "uint256",
          "name": "",
          "type": "uint256"
        }
      ],
      "stateMutability": "view",
      "type": "function"
    },
    {
      "inputs": [
        {
          "internalType": "uint256",
          "name": "_tokenId",
          "type": "uint256"
        }
      ],
      "name": "getDwarfByTokenId",
      "outputs": [
        {
          "internalType": "string",
          "name": "_genes",
          "type": "string"
        },
        {
          "internalType": "uint256",
          "name": "_fatherTokenId",
          "type": "uint256"
        },
        {
          "internalType": "uint256",
          "name": "_motherTokenId",
          "type": "uint256"
        },
        {
          "internalType": "uint256",
          "name": "_rarity",
          "type": "uint256"
        }
      ],
      "stateMutability": "view",
      "type": "function"
    },
    {
      "inputs": [
        {
          "internalType": "address",
          "name": "_owner",
          "type": "address"
        }
      ],
      "name": "getTokenIds",
      "outputs": [
        {
          "internalType": "uint256[]",
          "name": "",
          "type": "uint256[]"
        }
      ],
      "stateMutability": "view",
      "type": "function"
    },
    {
      "inputs": [],
      "name": "getTokensOfDeployer",
      "outputs": [
        {
          "internalType": "uint256[]",
          "name": "",
          "type": "uint256[]"
        }
      ],
      "stateMutability": "view",
      "type": "function"
    },
    {
      "inputs": [
        {
          "internalType": "address",
          "name": "owner",
          "type": "address"
        },
        {
          "internalType": "address",
          "name": "operator",
          "type": "address"
        }
      ],
      "name": "isApprovedForAll",
      "outputs": [
        {
          "internalType": "bool",
          "name": "",
          "type": "bool"
        }
      ],
      "stateMutability": "view",
      "type": "function"
    },
    {
      "inputs": [
        {
          "internalType": "string",
          "name": "_genes",
          "type": "string"
        }
      ],
      "name": "mintGenesisDwarf",
      "outputs": [],
      "stateMutability": "nonpayable",
      "type": "function"
    },
    {
      "inputs": [],
      "name": "name",
      "outputs": [
        {
          "internalType": "string",
          "name": "",
          "type": "string"
        }
      ],
      "stateMutability": "view",
      "type": "function"
    },
    {
      "inputs": [
        {
          "internalType": "uint256",
          "name": "tokenId",
          "type": "uint256"
        }
      ],
      "name": "ownerOf",
      "outputs": [
        {
          "internalType": "address",
          "name": "",
          "type": "address"
        }
      ],
      "stateMutability": "view",
      "type": "function"
    },
    {
      "inputs": [
        {
          "internalType": "address",
          "name": "",
          "type": "address"
        },
        {
          "internalType": "uint256",
          "name": "",
          "type": "uint256"
        }
      ],
      "name": "ownersTokenIds",
      "outputs": [
        {
          "internalType": "uint256",
          "name": "",
          "type": "uint256"
        }
      ],
      "stateMutability": "view",
      "type": "function"
    },
    {
      "inputs": [
        {
          "internalType": "uint256",
          "name": "tokenId",
          "type": "uint256"
        }
      ],
      "name": "purchaseDwarfFromDeployer",
      "outputs": [],
      "stateMutability": "payable",
      "type": "function"
    },
    {
      "inputs": [
        {
          "internalType": "address",
          "name": "from",
          "type": "address"
        },
        {
          "internalType": "address",
          "name": "to",
          "type": "address"
        },
        {
          "internalType": "uint256",
          "name": "tokenId",
          "type": "uint256"
        }
      ],
      "name": "safeTransferFrom",
      "outputs": [],
      "stateMutability": "nonpayable",
      "type": "function"
    },
    {
      "inputs": [
        {
          "internalType": "address",
          "name": "from",
          "type": "address"
        },
        {
          "internalType": "address",
          "name": "to",
          "type": "address"
        },
        {
          "internalType": "uint256",
          "name": "tokenId",
          "type": "uint256"
        },
        {
          "internalType": "bytes",
          "name": "_data",
          "type": "bytes"
        }
      ],
      "name": "safeTransferFrom",
      "outputs": [],
      "stateMutability": "nonpayable",
      "type": "function"
    },
    {
      "inputs": [
        {
          "internalType": "address",
          "name": "operator",
          "type": "address"
        },
        {
          "internalType": "bool",
          "name": "approved",
          "type": "bool"
        }
      ],
      "name": "setApprovalForAll",
      "outputs": [],
      "stateMutability": "nonpayable",
      "type": "function"
    },
    {
      "inputs": [
        {
          "internalType": "string",
          "name": "_baseUri",
          "type": "string"
        }
      ],
      "name": "setBaseUri",
      "outputs": [],
      "stateMutability": "nonpayable",
      "type": "function"
    },
    {
      "inputs": [
        {
          "internalType": "bytes4",
          "name": "interfaceId",
          "type": "bytes4"
        }
      ],
      "name": "supportsInterface",
      "outputs": [
        {
          "internalType": "bool",
          "name": "",
          "type": "bool"
        }
      ],
      "stateMutability": "view",
      "type": "function"
    },
    {
      "inputs": [],
      "name": "symbol",
      "outputs": [
        {
          "internalType": "string",
          "name": "",
          "type": "string"
        }
      ],
      "stateMutability": "view",
      "type": "function"
    },
    {
      "inputs": [
        {
          "internalType": "uint256",
          "name": "tokenId",
          "type": "uint256"
        }
      ],
      "name": "tokenURI",
      "outputs": [
        {
          "internalType": "string",
          "name": "",
          "type": "string"
        }
      ],
      "stateMutability": "view",
      "type": "function"
    },
    {
      "inputs": [
        {
          "internalType": "address",
          "name": "from",
          "type": "address"
        },
        {
          "internalType": "address",
          "name": "to",
          "type": "address"
        },
        {
          "internalType": "uint256",
          "name": "tokenId",
          "type": "uint256"
        }
      ],
      "name": "transferFrom",
      "outputs": [],
      "stateMutability": "nonpayable",
      "type": "function"
    },
    {
      "stateMutability": "payable",
      "type": "receive"
    }
  ],
  "bytecode": "0x60806040523480156200001157600080fd5b506040518060400160405280600881526020017f44776172666974790000000000000000000000000000000000000000000000008152506040518060400160405280600281526020017f44570000000000000000000000000000000000000000000000000000000000008152508181816000908051906020019062000098929190620005d8565b508060019080519060200190620000b1929190620005d8565b5050506040518060200160405280600081525060099080519060200190620000db929190620005d8565b505050620001286000806040518060400160405280600981526020017f3030303030303030300000000000000000000000000000000000000000000000815250336200014060201b60201c565b506200013a336200030660201b60201c565b62000986565b600062000153836200034a60201b60201c565b62000195576040517f08c379a00000000000000000000000000000000000000000000000000000000081526004016200018c906200074d565b60405180910390fd5b6000620001ae60066200035d60201b62001c4a1760201c565b905060006040518060600160405280868152602001888152602001878152509050620001e184836200036b60201b60201c565b600781908060018154018082558091505060019003906000526020600020906003020160009091909190915060008201518160000190805190602001906200022b929190620005d8565b5060208201518160010155604082015181600201555050600a60008573ffffffffffffffffffffffffffffffffffffffff1673ffffffffffffffffffffffffffffffffffffffff168152602001908152602001600020829080600181540180825580915050600190039060005260206000200160009091909190915055620002bf60066200055160201b62001c581760201c565b6001600b86604051620002d3919062000734565b90815260200160405180910390206000828254620002f29190620007da565b925050819055508192505050949350505050565b80600860006101000a81548173ffffffffffffffffffffffffffffffffffffffff021916908373ffffffffffffffffffffffffffffffffffffffff16021790555050565b6000808290506009815114915050919050565b600081600001549050919050565b600073ffffffffffffffffffffffffffffffffffffffff168273ffffffffffffffffffffffffffffffffffffffff161415620003de576040517f08c379a0000000000000000000000000000000000000000000000000000000008152600401620003d59062000791565b60405180910390fd5b620003ef816200056760201b60201c565b1562000432576040517f08c379a000000000000000000000000000000000000000000000000000000000815260040162000429906200076f565b60405180910390fd5b6200044660008383620005d360201b60201c565b6001600360008473ffffffffffffffffffffffffffffffffffffffff1673ffffffffffffffffffffffffffffffffffffffff1681526020019081526020016000206000828254620004989190620007da565b92505081905550816002600083815260200190815260200160002060006101000a81548173ffffffffffffffffffffffffffffffffffffffff021916908373ffffffffffffffffffffffffffffffffffffffff160217905550808273ffffffffffffffffffffffffffffffffffffffff16600073ffffffffffffffffffffffffffffffffffffffff167fddf252ad1be2c89b69c2b068fc378daa952ba7f163c4a11628f55a4df523b3ef60405160405180910390a45050565b6001816000016000828254019250508190555050565b60008073ffffffffffffffffffffffffffffffffffffffff166002600084815260200190815260200160002060009054906101000a900473ffffffffffffffffffffffffffffffffffffffff1673ffffffffffffffffffffffffffffffffffffffff1614159050919050565b505050565b828054620005e69062000877565b90600052602060002090601f0160209004810192826200060a576000855562000656565b82601f106200062557805160ff191683800117855562000656565b8280016001018555821562000656579182015b828111156200065557825182559160200191906001019062000638565b5b50905062000665919062000669565b5090565b5b80821115620006845760008160009055506001016200066a565b5090565b60006200069582620007b3565b620006a18185620007cf565b9350620006b381856020860162000841565b80840191505092915050565b6000620006ce601383620007be565b9150620006db826200090b565b602082019050919050565b6000620006f5601c83620007be565b9150620007028262000934565b602082019050919050565b60006200071c602083620007be565b915062000729826200095d565b602082019050919050565b600062000742828462000688565b915081905092915050565b600060208201905081810360008301526200076881620006bf565b9050919050565b600060208201905081810360008301526200078a81620006e6565b9050919050565b60006020820190508181036000830152620007ac816200070d565b9050919050565b600081519050919050565b600082825260208201905092915050565b600081905092915050565b6000620007e78262000837565b9150620007f48362000837565b9250827fffffffffffffffffffffffffffffffffffffffffffffffffffffffffffffffff038211156200082c576200082b620008ad565b5b828201905092915050565b6000819050919050565b60005b838110156200086157808201518184015260208101905062000844565b8381111562000871576000848401525b50505050565b600060028204905060018216806200089057607f821691505b60208210811415620008a757620008a6620008dc565b5b50919050565b7f4e487b7100000000000000000000000000000000000000000000000000000000600052601160045260246000fd5b7f4e487b7100000000000000000000000000000000000000000000000000000000600052602260045260246000fd5b7f47656e6573206d7573742062652076616c696400000000000000000000000000600082015250565b7f4552433732313a20746f6b656e20616c7265616479206d696e74656400000000600082015250565b7f4552433732313a206d696e7420746f20746865207a65726f2061646472657373600082015250565b61497280620009966000396000f3fe6080604052600436106101a05760003560e01c80637783adc6116100ec578063b88d4fde1161008a578063d004b03611610064578063d004b03614610636578063d5f3948814610673578063e985e9c51461069e578063f8e9390c146106db576101e0565b8063b88d4fde14610590578063c87b56dd146105b9578063c912ee20146105f6576101e0565b80639abc8320116100c65780639abc8320146104d6578063a0bcfc7f14610501578063a22cb4651461052a578063b2ef480c14610553576101e0565b80637783adc6146104435780638ed9a4d61461048057806395d89b41146104ab576101e0565b806323b872dd11610159578063442aa76e11610133578063442aa76e146103735780636352211e1461039e5780636f9fb98a146103db57806370a0823114610406576101e0565b806323b872dd146102f857806333dc2d041461032157806342842e0e1461034a576101e0565b806301ffc9a7146101e557806306fdde0314610222578063081812fc1461024d578063095ea7b31461028a5780630fd48434146102b35780631b43783d146102dc576101e0565b366101e0577f88a5966d370b9919b20f3e2c13ff65706f196a4e32cc2c12bf57088f8852587433346040516101d6929190613a4d565b60405180910390a1005b600080fd5b3480156101f157600080fd5b5061020c6004803603810190610207919061334f565b61071a565b6040516102199190613af2565b60405180910390f35b34801561022e57600080fd5b506102376107fc565b6040516102449190613b0d565b60405180910390f35b34801561025957600080fd5b50610274600480360381019061026f91906133e2565b61088e565b60405161028191906139e6565b60405180910390f35b34801561029657600080fd5b506102b160048036038101906102ac9190613313565b610913565b005b3480156102bf57600080fd5b506102da60048036038101906102d591906133a1565b610a2b565b005b6102f660048036038101906102f191906133e2565b610b5e565b005b34801561030457600080fd5b5061031f600480360381019061031a919061320d565b610c9d565b005b34801561032d57600080fd5b506103486004803603810190610343919061340b565b610cfd565b005b34801561035657600080fd5b50610371600480360381019061036c919061320d565b610eff565b005b34801561037f57600080fd5b50610388610f1f565b6040516103959190613ad0565b60405180910390f35b3480156103aa57600080fd5b506103c560048036038101906103c091906133e2565b611068565b6040516103d291906139e6565b60405180910390f35b3480156103e757600080fd5b506103f061111a565b6040516103fd9190613e99565b60405180910390f35b34801561041257600080fd5b5061042d600480360381019061042891906131a8565b611243565b60405161043a9190613e99565b60405180910390f35b34801561044f57600080fd5b5061046a60048036038101906104659190613313565b6112fb565b6040516104779190613e99565b60405180910390f35b34801561048c57600080fd5b5061049561132c565b6040516104a29190613e99565b60405180910390f35b3480156104b757600080fd5b506104c0611338565b6040516104cd9190613b0d565b60405180910390f35b3480156104e257600080fd5b506104eb6113ca565b6040516104f89190613b0d565b60405180910390f35b34801561050d57600080fd5b50610528600480360381019061052391906133a1565b611458565b005b34801561053657600080fd5b50610551600480360381019061054c91906132d7565b611594565b005b34801561055f57600080fd5b5061057a600480360381019061057591906133a1565b611715565b6040516105879190613e99565b60405180910390f35b34801561059c57600080fd5b506105b760048036038101906105b2919061325c565b611743565b005b3480156105c557600080fd5b506105e060048036038101906105db91906133e2565b6117a5565b6040516105ed9190613b0d565b60405180910390f35b34801561060257600080fd5b5061061d600480360381019061061891906133e2565b61184c565b60405161062d9493929190613b6d565b60405180910390f35b34801561064257600080fd5b5061065d600480360381019061065891906131a8565b611a37565b60405161066a9190613ad0565b60405180910390f35b34801561067f57600080fd5b50610688611ace565b60405161069591906139e6565b60405180910390f35b3480156106aa57600080fd5b506106c560048036038101906106c091906131d1565b611af4565b6040516106d29190613af2565b60405180910390f35b3480156106e757600080fd5b5061070260048036038101906106fd91906133e2565b611b88565b60405161071193929190613b2f565b60405180910390f35b60007f80ac58cd000000000000000000000000000000000000000000000000000000007bffffffffffffffffffffffffffffffffffffffffffffffffffffffff1916827bffffffffffffffffffffffffffffffffffffffffffffffffffffffff191614806107e557507f5b5e139f000000000000000000000000000000000000000000000000000000007bffffffffffffffffffffffffffffffffffffffffffffffffffffffff1916827bffffffffffffffffffffffffffffffffffffffffffffffffffffffff1916145b806107f557506107f482611c6e565b5b9050919050565b60606000805461080b906141db565b80601f0160208091040260200160405190810160405280929190818152602001828054610837906141db565b80156108845780601f1061085957610100808354040283529160200191610884565b820191906000526020600020905b81548152906001019060200180831161086757829003601f168201915b5050505050905090565b600061089982611cd8565b6108d8576040517f08c379a00000000000000000000000000000000000000000000000000000000081526004016108cf90613db9565b60405180910390fd5b6004600083815260200190815260200160002060009054906101000a900473ffffffffffffffffffffffffffffffffffffffff169050919050565b600061091e82611068565b90508073ffffffffffffffffffffffffffffffffffffffff168373ffffffffffffffffffffffffffffffffffffffff16141561098f576040517f08c379a000000000000000000000000000000000000000000000000000000000815260040161098690613e39565b60405180910390fd5b8073ffffffffffffffffffffffffffffffffffffffff166109ae611d44565b73ffffffffffffffffffffffffffffffffffffffff1614806109dd57506109dc816109d7611d44565b611af4565b5b610a1c576040517f08c379a0000000000000000000000000000000000000000000000000000000008152600401610a1390613cf9565b60405180910390fd5b610a268383611d4c565b505050565b600073ffffffffffffffffffffffffffffffffffffffff16600860009054906101000a900473ffffffffffffffffffffffffffffffffffffffff1673ffffffffffffffffffffffffffffffffffffffff161415610abd576040517f08c379a0000000000000000000000000000000000000000000000000000000008152600401610ab490613bb9565b60405180910390fd5b600860009054906101000a900473ffffffffffffffffffffffffffffffffffffffff1673ffffffffffffffffffffffffffffffffffffffff163373ffffffffffffffffffffffffffffffffffffffff1614610b4d576040517f08c379a0000000000000000000000000000000000000000000000000000000008152600401610b4490613cd9565b60405180910390fd5b610b5a6000808333611e05565b5050565b3373ffffffffffffffffffffffffffffffffffffffff16610b7e82611068565b73ffffffffffffffffffffffffffffffffffffffff161415610bd5576040517f08c379a0000000000000000000000000000000000000000000000000000000008152600401610bcc90613c99565b60405180910390fd5b600860009054906101000a900473ffffffffffffffffffffffffffffffffffffffff1673ffffffffffffffffffffffffffffffffffffffff16610c1782611068565b73ffffffffffffffffffffffffffffffffffffffff1614610c6d576040517f08c379a0000000000000000000000000000000000000000000000000000000008152600401610c6490613df9565b60405180910390fd5b610c9a600860009054906101000a900473ffffffffffffffffffffffffffffffffffffffff163383611f98565b50565b610cae610ca8611d44565b826121f4565b610ced576040517f08c379a0000000000000000000000000000000000000000000000000000000008152600401610ce490613e79565b60405180910390fd5b610cf8838383611f98565b505050565b600860009054906101000a900473ffffffffffffffffffffffffffffffffffffffff1673ffffffffffffffffffffffffffffffffffffffff163373ffffffffffffffffffffffffffffffffffffffff161415610d8e576040517f08c379a0000000000000000000000000000000000000000000000000000000008152600401610d8590613d79565b60405180910390fd5b3373ffffffffffffffffffffffffffffffffffffffff16610dae83611068565b73ffffffffffffffffffffffffffffffffffffffff1614610e04576040517f08c379a0000000000000000000000000000000000000000000000000000000008152600401610dfb90613d19565b60405180910390fd5b3373ffffffffffffffffffffffffffffffffffffffff16610e2482611068565b73ffffffffffffffffffffffffffffffffffffffff1614610e7a576040517f08c379a0000000000000000000000000000000000000000000000000000000008152600401610e7190613e59565b60405180910390fd5b6000610e858361184c565b50505090506000610e958361184c565b50505090506000610ea683836122d2565b90506000610eb686868433611e05565b90507f4e6455c91928c274385a73f9a414dadc99be42d2c970d057edbebcf5aa1312223382888886604051610eef959493929190613a76565b60405180910390a1505050505050565b610f1a83838360405180602001604052806000815250611743565b505050565b6060600073ffffffffffffffffffffffffffffffffffffffff16600860009054906101000a900473ffffffffffffffffffffffffffffffffffffffff1673ffffffffffffffffffffffffffffffffffffffff161415610fb3576040517f08c379a0000000000000000000000000000000000000000000000000000000008152600401610faa90613bb9565b60405180910390fd5b600a6000600860009054906101000a900473ffffffffffffffffffffffffffffffffffffffff1673ffffffffffffffffffffffffffffffffffffffff1673ffffffffffffffffffffffffffffffffffffffff16815260200190815260200160002080548060200260200160405190810160405280929190818152602001828054801561105e57602002820191906000526020600020905b81548152602001906001019080831161104a575b5050505050905090565b6000806002600084815260200190815260200160002060009054906101000a900473ffffffffffffffffffffffffffffffffffffffff169050600073ffffffffffffffffffffffffffffffffffffffff168173ffffffffffffffffffffffffffffffffffffffff161415611111576040517f08c379a000000000000000000000000000000000000000000000000000000000815260040161110890613d59565b60405180910390fd5b80915050919050565b60008073ffffffffffffffffffffffffffffffffffffffff16600860009054906101000a900473ffffffffffffffffffffffffffffffffffffffff1673ffffffffffffffffffffffffffffffffffffffff1614156111ad576040517f08c379a00000000000000000000000000000000000000000000000000000000081526004016111a490613bb9565b60405180910390fd5b600860009054906101000a900473ffffffffffffffffffffffffffffffffffffffff1673ffffffffffffffffffffffffffffffffffffffff163373ffffffffffffffffffffffffffffffffffffffff161461123d576040517f08c379a000000000000000000000000000000000000000000000000000000000815260040161123490613cd9565b60405180910390fd5b47905090565b60008073ffffffffffffffffffffffffffffffffffffffff168273ffffffffffffffffffffffffffffffffffffffff1614156112b4576040517f08c379a00000000000000000000000000000000000000000000000000000000081526004016112ab90613d39565b60405180910390fd5b600360008373ffffffffffffffffffffffffffffffffffffffff1673ffffffffffffffffffffffffffffffffffffffff168152602001908152602001600020549050919050565b600a602052816000526040600020818154811061131757600080fd5b90600052602060002001600091509150505481565b60068060000154905081565b606060018054611347906141db565b80601f0160208091040260200160405190810160405280929190818152602001828054611373906141db565b80156113c05780601f10611395576101008083540402835291602001916113c0565b820191906000526020600020905b8154815290600101906020018083116113a357829003601f168201915b5050505050905090565b600980546113d7906141db565b80601f0160208091040260200160405190810160405280929190818152602001828054611403906141db565b80156114505780601f1061142557610100808354040283529160200191611450565b820191906000526020600020905b81548152906001019060200180831161143357829003601f168201915b505050505081565b600073ffffffffffffffffffffffffffffffffffffffff16600860009054906101000a900473ffffffffffffffffffffffffffffffffffffffff1673ffffffffffffffffffffffffffffffffffffffff1614156114ea576040517f08c379a00000000000000000000000000000000000000000000000000000000081526004016114e190613bb9565b60405180910390fd5b600860009054906101000a900473ffffffffffffffffffffffffffffffffffffffff1673ffffffffffffffffffffffffffffffffffffffff163373ffffffffffffffffffffffffffffffffffffffff161461157a576040517f08c379a000000000000000000000000000000000000000000000000000000000815260040161157190613cd9565b60405180910390fd5b8060099080519060200190611590929190612fcc565b5050565b61159c611d44565b73ffffffffffffffffffffffffffffffffffffffff168273ffffffffffffffffffffffffffffffffffffffff16141561160a576040517f08c379a000000000000000000000000000000000000000000000000000000000815260040161160190613c59565b60405180910390fd5b8060056000611617611d44565b73ffffffffffffffffffffffffffffffffffffffff1673ffffffffffffffffffffffffffffffffffffffff16815260200190815260200160002060008473ffffffffffffffffffffffffffffffffffffffff1673ffffffffffffffffffffffffffffffffffffffff16815260200190815260200160002060006101000a81548160ff0219169083151502179055508173ffffffffffffffffffffffffffffffffffffffff166116c4611d44565b73ffffffffffffffffffffffffffffffffffffffff167f17307eab39ab6107e8899845ad3d59bd9653f200f220920489ca2b5937696c31836040516117099190613af2565b60405180910390a35050565b600b818051602081018201805184825260208301602085012081835280955050505050506000915090505481565b61175461174e611d44565b836121f4565b611793576040517f08c379a000000000000000000000000000000000000000000000000000000000815260040161178a90613e79565b60405180910390fd5b61179f848484846126bb565b50505050565b60606117b082611cd8565b6117ef576040517f08c379a00000000000000000000000000000000000000000000000000000000081526004016117e690613e19565b60405180910390fd5b60006117f9612717565b905060008151116118195760405180602001604052806000815250611844565b80611823846127a9565b60405160200161183492919061396e565b6040516020818303038152906040525b915050919050565b606060008060006007858154811061188d577f4e487b7100000000000000000000000000000000000000000000000000000000600052603260045260246000fd5b906000526020600020906003020160000180546118a9906141db565b80601f01602080910402602001604051908101604052809291908181526020018280546118d5906141db565b80156119225780601f106118f757610100808354040283529160200191611922565b820191906000526020600020905b81548152906001019060200180831161190557829003601f168201915b5050505050935060078581548110611963577f4e487b7100000000000000000000000000000000000000000000000000000000600052603260045260246000fd5b9060005260206000209060030201600101549250600785815481106119b1577f4e487b7100000000000000000000000000000000000000000000000000000000600052603260045260246000fd5b9060005260206000209060030201600201549150600b60078681548110611a01577f4e487b7100000000000000000000000000000000000000000000000000000000600052603260045260246000fd5b9060005260206000209060030201600001604051611a1f9190613992565b90815260200160405180910390205490509193509193565b6060600a60008373ffffffffffffffffffffffffffffffffffffffff1673ffffffffffffffffffffffffffffffffffffffff168152602001908152602001600020805480602002602001604051908101604052809291908181526020018280548015611ac257602002820191906000526020600020905b815481526020019060010190808311611aae575b50505050509050919050565b600860009054906101000a900473ffffffffffffffffffffffffffffffffffffffff1681565b6000600560008473ffffffffffffffffffffffffffffffffffffffff1673ffffffffffffffffffffffffffffffffffffffff16815260200190815260200160002060008373ffffffffffffffffffffffffffffffffffffffff1673ffffffffffffffffffffffffffffffffffffffff16815260200190815260200160002060009054906101000a900460ff16905092915050565b60078181548110611b9857600080fd5b9060005260206000209060030201600091509050806000018054611bbb906141db565b80601f0160208091040260200160405190810160405280929190818152602001828054611be7906141db565b8015611c345780601f10611c0957610100808354040283529160200191611c34565b820191906000526020600020905b815481529060010190602001808311611c1757829003601f168201915b5050505050908060010154908060020154905083565b600081600001549050919050565b6001816000016000828254019250508190555050565b60007f01ffc9a7000000000000000000000000000000000000000000000000000000007bffffffffffffffffffffffffffffffffffffffffffffffffffffffff1916827bffffffffffffffffffffffffffffffffffffffffffffffffffffffff1916149050919050565b60008073ffffffffffffffffffffffffffffffffffffffff166002600084815260200190815260200160002060009054906101000a900473ffffffffffffffffffffffffffffffffffffffff1673ffffffffffffffffffffffffffffffffffffffff1614159050919050565b600033905090565b816004600083815260200190815260200160002060006101000a81548173ffffffffffffffffffffffffffffffffffffffff021916908373ffffffffffffffffffffffffffffffffffffffff160217905550808273ffffffffffffffffffffffffffffffffffffffff16611dbf83611068565b73ffffffffffffffffffffffffffffffffffffffff167f8c5be1e5ebec7d5bd14f71427d1e84f3dd0314c0f7b2291e5b200ac8c7c3b92560405160405180910390a45050565b6000611e1083612956565b611e4f576040517f08c379a0000000000000000000000000000000000000000000000000000000008152600401611e4690613bd9565b60405180910390fd5b6000611e5b6006611c4a565b905060006040518060600160405280868152602001888152602001878152509050611e868483612969565b60078190806001815401808255809150506001900390600052602060002090600302016000909190919091506000820151816000019080519060200190611ece929190612fcc565b5060208201518160010155604082015181600201555050600a60008573ffffffffffffffffffffffffffffffffffffffff1673ffffffffffffffffffffffffffffffffffffffff168152602001908152602001600020829080600181540180825580915050600190039060005260206000200160009091909190915055611f556006611c58565b6001600b86604051611f679190613957565b90815260200160405180910390206000828254611f849190613fcc565b925050819055508192505050949350505050565b8273ffffffffffffffffffffffffffffffffffffffff16611fb882611068565b73ffffffffffffffffffffffffffffffffffffffff161461200e576040517f08c379a000000000000000000000000000000000000000000000000000000000815260040161200590613dd9565b60405180910390fd5b600073ffffffffffffffffffffffffffffffffffffffff168273ffffffffffffffffffffffffffffffffffffffff16141561207e576040517f08c379a000000000000000000000000000000000000000000000000000000000815260040161207590613c39565b60405180910390fd5b612089838383612b37565b612094600082611d4c565b6001600360008573ffffffffffffffffffffffffffffffffffffffff1673ffffffffffffffffffffffffffffffffffffffff16815260200190815260200160002060008282546120e491906140e4565b925050819055506001600360008473ffffffffffffffffffffffffffffffffffffffff1673ffffffffffffffffffffffffffffffffffffffff168152602001908152602001600020600082825461213b9190613fcc565b92505081905550816002600083815260200190815260200160002060006101000a81548173ffffffffffffffffffffffffffffffffffffffff021916908373ffffffffffffffffffffffffffffffffffffffff160217905550808273ffffffffffffffffffffffffffffffffffffffff168473ffffffffffffffffffffffffffffffffffffffff167fddf252ad1be2c89b69c2b068fc378daa952ba7f163c4a11628f55a4df523b3ef60405160405180910390a4505050565b60006121ff82611cd8565b61223e576040517f08c379a000000000000000000000000000000000000000000000000000000000815260040161223590613c79565b60405180910390fd5b600061224983611068565b90508073ffffffffffffffffffffffffffffffffffffffff168473ffffffffffffffffffffffffffffffffffffffff1614806122b857508373ffffffffffffffffffffffffffffffffffffffff166122a08461088e565b73ffffffffffffffffffffffffffffffffffffffff16145b806122c957506122c88185611af4565b5b91505092915050565b60606122dd83612956565b61231c576040517f08c379a000000000000000000000000000000000000000000000000000000000815260040161231390613cb9565b60405180910390fd5b61232582612956565b612364576040517f08c379a000000000000000000000000000000000000000000000000000000000815260040161235b90613cb9565b60405180910390fd5b600083905060008390506000600967ffffffffffffffff8111156123b1577f4e487b7100000000000000000000000000000000000000000000000000000000600052604160045260246000fd5b6040519080825280601f01601f1916602001820160405280156123e35781602001600182028036833780820191505090505b5090506000600260096123f69190614059565b905060005b818110156124d95784818151811061243c577f4e487b7100000000000000000000000000000000000000000000000000000000600052603260045260246000fd5b602001015160f81c60f81b83600184846124569190613fcc565b6124609190613fcc565b81518110612497577f4e487b7100000000000000000000000000000000000000000000000000000000600052603260045260246000fd5b60200101907effffffffffffffffffffffffffffffffffffffffffffffffffffffffffffff1916908160001a90535080806124d19061423e565b9150506123fb565b5060008190505b60098110156125b357838181518110612522577f4e487b7100000000000000000000000000000000000000000000000000000000600052603260045260246000fd5b602001015160f81c60f81b83838361253a91906140e4565b81518110612571577f4e487b7100000000000000000000000000000000000000000000000000000000600052603260045260246000fd5b60200101907effffffffffffffffffffffffffffffffffffffffffffffffffffffffffffff1916908160001a90535080806125ab9061423e565b9150506124e0565b506000806125bf612b3c565b915091507fffffffffffffffffffffffffffffffffffffffffffffffffffffffffffffffff82146126ac5760006125f582612c4d565b9050600081905080600081518110612636577f4e487b7100000000000000000000000000000000000000000000000000000000600052603260045260246000fd5b602001015160f81c60f81b86858151811061267a577f4e487b7100000000000000000000000000000000000000000000000000000000600052603260045260246000fd5b60200101907effffffffffffffffffffffffffffffffffffffffffffffffffffffffffffff1916908160001a90535050505b83965050505050505092915050565b6126c6848484611f98565b6126d284848484612e22565b612711576040517f08c379a000000000000000000000000000000000000000000000000000000000815260040161270890613bf9565b60405180910390fd5b50505050565b606060098054612726906141db565b80601f0160208091040260200160405190810160405280929190818152602001828054612752906141db565b801561279f5780601f106127745761010080835404028352916020019161279f565b820191906000526020600020905b81548152906001019060200180831161278257829003601f168201915b5050505050905090565b606060008214156127f1576040518060400160405280600181526020017f30000000000000000000000000000000000000000000000000000000000000008152509050612951565b600082905060005b6000821461282357808061280c9061423e565b915050600a8261281c9190614059565b91506127f9565b60008167ffffffffffffffff811115612865577f4e487b7100000000000000000000000000000000000000000000000000000000600052604160045260246000fd5b6040519080825280601f01601f1916602001820160405280156128975781602001600182028036833780820191505090505b5090505b6000851461294a576001826128b091906140e4565b9150600a856128bf9190614291565b60306128cb9190613fcc565b60f81b818381518110612907577f4e487b7100000000000000000000000000000000000000000000000000000000600052603260045260246000fd5b60200101907effffffffffffffffffffffffffffffffffffffffffffffffffffffffffffff1916908160001a905350600a856129439190614059565b945061289b565b8093505050505b919050565b6000808290506009815114915050919050565b600073ffffffffffffffffffffffffffffffffffffffff168273ffffffffffffffffffffffffffffffffffffffff1614156129d9576040517f08c379a00000000000000000000000000000000000000000000000000000000081526004016129d090613d99565b60405180910390fd5b6129e281611cd8565b15612a22576040517f08c379a0000000000000000000000000000000000000000000000000000000008152600401612a1990613c19565b60405180910390fd5b612a2e60008383612b37565b6001600360008473ffffffffffffffffffffffffffffffffffffffff1673ffffffffffffffffffffffffffffffffffffffff1681526020019081526020016000206000828254612a7e9190613fcc565b92505081905550816002600083815260200190815260200160002060006101000a81548173ffffffffffffffffffffffffffffffffffffffff021916908373ffffffffffffffffffffffffffffffffffffffff160217905550808273ffffffffffffffffffffffffffffffffffffffff16600073ffffffffffffffffffffffffffffffffffffffff167fddf252ad1be2c89b69c2b068fc378daa952ba7f163c4a11628f55a4df523b3ef60405160405180910390a45050565b505050565b600080600044426064604051602001612b57939291906139a9565b6040516020818303038152906040528051906020012060001c90506000606482612b819190614291565b90506000600f821090508015612c1f57600044426064604051602001612ba9939291906139a9565b6040516020818303038152906040528051906020012060001c9050600044426064604051602001612bdc939291906139a9565b6040516020818303038152906040528051906020012060001c9050600982612c049190614291565b600382612c119190614291565b965096505050505050612c49565b7fffffffffffffffffffffffffffffffffffffffffffffffffffffffffffffffff80945094505050505b9091565b60606000821415612c95576040518060400160405280600181526020017f30000000000000000000000000000000000000000000000000000000000000008152509050612e1d565b600082905060005b60008214612cc7578080612cb09061423e565b915050600a82612cc09190614059565b9150612c9d565b60008167ffffffffffffffff811115612d09577f4e487b7100000000000000000000000000000000000000000000000000000000600052604160045260246000fd5b6040519080825280601f01601f191660200182016040528015612d3b5781602001600182028036833780820191505090505b50905060008290505b60008614612e1557600181612d5991906140e4565b90506000600a8088612d6b9190614059565b612d75919061408a565b87612d8091906140e4565b6030612d8c9190614022565b905060008160f81b905080848481518110612dd0577f4e487b7100000000000000000000000000000000000000000000000000000000600052603260045260246000fd5b60200101907effffffffffffffffffffffffffffffffffffffffffffffffffffffffffffff1916908160001a905350600a88612e0c9190614059565b97505050612d44565b819450505050505b919050565b6000612e438473ffffffffffffffffffffffffffffffffffffffff16612fb9565b15612fac578373ffffffffffffffffffffffffffffffffffffffff1663150b7a02612e6c611d44565b8786866040518563ffffffff1660e01b8152600401612e8e9493929190613a01565b602060405180830381600087803b158015612ea857600080fd5b505af1925050508015612ed957506040513d601f19601f82011682018060405250810190612ed69190613378565b60015b612f5c573d8060008114612f09576040519150601f19603f3d011682016040523d82523d6000602084013e612f0e565b606091505b50600081511415612f54576040517f08c379a0000000000000000000000000000000000000000000000000000000008152600401612f4b90613bf9565b60405180910390fd5b805181602001fd5b63150b7a0260e01b7bffffffffffffffffffffffffffffffffffffffffffffffffffffffff1916817bffffffffffffffffffffffffffffffffffffffffffffffffffffffff191614915050612fb1565b600190505b949350505050565b600080823b905060008111915050919050565b828054612fd8906141db565b90600052602060002090601f016020900481019282612ffa5760008555613041565b82601f1061301357805160ff1916838001178555613041565b82800160010185558215613041579182015b82811115613040578251825591602001919060010190613025565b5b50905061304e9190613052565b5090565b5b8082111561306b576000816000905550600101613053565b5090565b600061308261307d84613ed9565b613eb4565b90508281526020810184848401111561309a57600080fd5b6130a5848285614199565b509392505050565b60006130c06130bb84613f0a565b613eb4565b9050828152602081018484840111156130d857600080fd5b6130e3848285614199565b509392505050565b6000813590506130fa816148e0565b92915050565b60008135905061310f816148f7565b92915050565b6000813590506131248161490e565b92915050565b6000815190506131398161490e565b92915050565b600082601f83011261315057600080fd5b813561316084826020860161306f565b91505092915050565b600082601f83011261317a57600080fd5b813561318a8482602086016130ad565b91505092915050565b6000813590506131a281614925565b92915050565b6000602082840312156131ba57600080fd5b60006131c8848285016130eb565b91505092915050565b600080604083850312156131e457600080fd5b60006131f2858286016130eb565b9250506020613203858286016130eb565b9150509250929050565b60008060006060848603121561322257600080fd5b6000613230868287016130eb565b9350506020613241868287016130eb565b925050604061325286828701613193565b9150509250925092565b6000806000806080858703121561327257600080fd5b6000613280878288016130eb565b9450506020613291878288016130eb565b93505060406132a287828801613193565b925050606085013567ffffffffffffffff8111156132bf57600080fd5b6132cb8782880161313f565b91505092959194509250565b600080604083850312156132ea57600080fd5b60006132f8858286016130eb565b925050602061330985828601613100565b9150509250929050565b6000806040838503121561332657600080fd5b6000613334858286016130eb565b925050602061334585828601613193565b9150509250929050565b60006020828403121561336157600080fd5b600061336f84828501613115565b91505092915050565b60006020828403121561338a57600080fd5b60006133988482850161312a565b91505092915050565b6000602082840312156133b357600080fd5b600082013567ffffffffffffffff8111156133cd57600080fd5b6133d984828501613169565b91505092915050565b6000602082840312156133f457600080fd5b600061340284828501613193565b91505092915050565b6000806040838503121561341e57600080fd5b600061342c85828601613193565b925050602061343d85828601613193565b9150509250929050565b60006134538383613922565b60208301905092915050565b61346881614118565b82525050565b600061347982613f60565b6134838185613f8e565b935061348e83613f3b565b8060005b838110156134bf5781516134a68882613447565b97506134b183613f81565b925050600181019050613492565b5085935050505092915050565b6134d58161412a565b82525050565b60006134e682613f6b565b6134f08185613f9f565b93506135008185602086016141a8565b6135098161437e565b840191505092915050565b600061351f82613f76565b6135298185613fb0565b93506135398185602086016141a8565b6135428161437e565b840191505092915050565b600061355882613f76565b6135628185613fc1565b93506135728185602086016141a8565b80840191505092915050565b6000815461358b816141db565b6135958186613fc1565b945060018216600081146135b057600181146135c1576135f4565b60ff198316865281860193506135f4565b6135ca85613f4b565b60005b838110156135ec578154818901526001820191506020810190506135cd565b838801955050505b50505092915050565b600061360a601783613fb0565b91506136158261438f565b602082019050919050565b600061362d601383613fb0565b9150613638826143b8565b602082019050919050565b6000613650603283613fb0565b915061365b826143e1565b604082019050919050565b6000613673601c83613fb0565b915061367e82614430565b602082019050919050565b6000613696602483613fb0565b91506136a182614459565b604082019050919050565b60006136b9601983613fb0565b91506136c4826144a8565b602082019050919050565b60006136dc602c83613fb0565b91506136e7826144d1565b604082019050919050565b60006136ff601383613fb0565b915061370a82614520565b602082019050919050565b6000613722601483613fb0565b915061372d82614549565b602082019050919050565b6000613745600d83613fb0565b915061375082614572565b602082019050919050565b6000613768603883613fb0565b91506137738261459b565b604082019050919050565b600061378b601983613fb0565b9150613796826145ea565b602082019050919050565b60006137ae602a83613fb0565b91506137b982614613565b604082019050919050565b60006137d1602983613fb0565b91506137dc82614662565b604082019050919050565b60006137f4601a83613fb0565b91506137ff826146b1565b602082019050919050565b6000613817602083613fb0565b9150613822826146da565b602082019050919050565b600061383a602c83613fb0565b915061384582614703565b604082019050919050565b600061385d602983613fb0565b915061386882614752565b604082019050919050565b6000613880601b83613fb0565b915061388b826147a1565b602082019050919050565b60006138a3602f83613fb0565b91506138ae826147ca565b604082019050919050565b60006138c6602183613fb0565b91506138d182614819565b604082019050919050565b60006138e9601983613fb0565b91506138f482614868565b602082019050919050565b600061390c603183613fb0565b915061391782614891565b604082019050919050565b61392b81614182565b82525050565b61393a81614182565b82525050565b61395161394c82614182565b614287565b82525050565b6000613963828461354d565b915081905092915050565b600061397a828561354d565b9150613986828461354d565b91508190509392505050565b600061399e828461357e565b915081905092915050565b60006139b58286613940565b6020820191506139c58285613940565b6020820191506139d58284613940565b602082019150819050949350505050565b60006020820190506139fb600083018461345f565b92915050565b6000608082019050613a16600083018761345f565b613a23602083018661345f565b613a306040830185613931565b8181036060830152613a4281846134db565b905095945050505050565b6000604082019050613a62600083018561345f565b613a6f6020830184613931565b9392505050565b600060a082019050613a8b600083018861345f565b613a986020830187613931565b613aa56040830186613931565b613ab26060830185613931565b8181036080830152613ac48184613514565b90509695505050505050565b60006020820190508181036000830152613aea818461346e565b905092915050565b6000602082019050613b0760008301846134cc565b92915050565b60006020820190508181036000830152613b278184613514565b905092915050565b60006060820190508181036000830152613b498186613514565b9050613b586020830185613931565b613b656040830184613931565b949350505050565b60006080820190508181036000830152613b878187613514565b9050613b966020830186613931565b613ba36040830185613931565b613bb06060830184613931565b95945050505050565b60006020820190508181036000830152613bd2816135fd565b9050919050565b60006020820190508181036000830152613bf281613620565b9050919050565b60006020820190508181036000830152613c1281613643565b9050919050565b60006020820190508181036000830152613c3281613666565b9050919050565b60006020820190508181036000830152613c5281613689565b9050919050565b60006020820190508181036000830152613c72816136ac565b9050919050565b60006020820190508181036000830152613c92816136cf565b9050919050565b60006020820190508181036000830152613cb2816136f2565b9050919050565b60006020820190508181036000830152613cd281613715565b9050919050565b60006020820190508181036000830152613cf281613738565b9050919050565b60006020820190508181036000830152613d128161375b565b9050919050565b60006020820190508181036000830152613d328161377e565b9050919050565b60006020820190508181036000830152613d52816137a1565b9050919050565b60006020820190508181036000830152613d72816137c4565b9050919050565b60006020820190508181036000830152613d92816137e7565b9050919050565b60006020820190508181036000830152613db28161380a565b9050919050565b60006020820190508181036000830152613dd28161382d565b9050919050565b60006020820190508181036000830152613df281613850565b9050919050565b60006020820190508181036000830152613e1281613873565b9050919050565b60006020820190508181036000830152613e3281613896565b9050919050565b60006020820190508181036000830152613e52816138b9565b9050919050565b60006020820190508181036000830152613e72816138dc565b9050919050565b60006020820190508181036000830152613e92816138ff565b9050919050565b6000602082019050613eae6000830184613931565b92915050565b6000613ebe613ecf565b9050613eca828261420d565b919050565b6000604051905090565b600067ffffffffffffffff821115613ef457613ef361434f565b5b613efd8261437e565b9050602081019050919050565b600067ffffffffffffffff821115613f2557613f2461434f565b5b613f2e8261437e565b9050602081019050919050565b6000819050602082019050919050565b60008190508160005260206000209050919050565b600081519050919050565b600081519050919050565b600081519050919050565b6000602082019050919050565b600082825260208201905092915050565b600082825260208201905092915050565b600082825260208201905092915050565b600081905092915050565b6000613fd782614182565b9150613fe283614182565b9250827fffffffffffffffffffffffffffffffffffffffffffffffffffffffffffffffff03821115614017576140166142c2565b5b828201905092915050565b600061402d8261418c565b91506140388361418c565b92508260ff0382111561404e5761404d6142c2565b5b828201905092915050565b600061406482614182565b915061406f83614182565b92508261407f5761407e6142f1565b5b828204905092915050565b600061409582614182565b91506140a083614182565b9250817fffffffffffffffffffffffffffffffffffffffffffffffffffffffffffffffff04831182151516156140d9576140d86142c2565b5b828202905092915050565b60006140ef82614182565b91506140fa83614182565b92508282101561410d5761410c6142c2565b5b828203905092915050565b600061412382614162565b9050919050565b60008115159050919050565b60007fffffffff0000000000000000000000000000000000000000000000000000000082169050919050565b600073ffffffffffffffffffffffffffffffffffffffff82169050919050565b6000819050919050565b600060ff82169050919050565b82818337600083830152505050565b60005b838110156141c65780820151818401526020810190506141ab565b838111156141d5576000848401525b50505050565b600060028204905060018216806141f357607f821691505b6020821081141561420757614206614320565b5b50919050565b6142168261437e565b810181811067ffffffffffffffff821117156142355761423461434f565b5b80604052505050565b600061424982614182565b91507fffffffffffffffffffffffffffffffffffffffffffffffffffffffffffffffff82141561427c5761427b6142c2565b5b600182019050919050565b6000819050919050565b600061429c82614182565b91506142a783614182565b9250826142b7576142b66142f1565b5b828206905092915050565b7f4e487b7100000000000000000000000000000000000000000000000000000000600052601160045260246000fd5b7f4e487b7100000000000000000000000000000000000000000000000000000000600052601260045260246000fd5b7f4e487b7100000000000000000000000000000000000000000000000000000000600052602260045260246000fd5b7f4e487b7100000000000000000000000000000000000000000000000000000000600052604160045260246000fd5b6000601f19601f8301169050919050565b7f4465706c6f796572206d75737420736574206669727374000000000000000000600082015250565b7f47656e6573206d7573742062652076616c696400000000000000000000000000600082015250565b7f4552433732313a207472616e7366657220746f206e6f6e20455243373231526560008201527f63656976657220696d706c656d656e7465720000000000000000000000000000602082015250565b7f4552433732313a20746f6b656e20616c7265616479206d696e74656400000000600082015250565b7f4552433732313a207472616e7366657220746f20746865207a65726f2061646460008201527f7265737300000000000000000000000000000000000000000000000000000000602082015250565b7f4552433732313a20617070726f766520746f2063616c6c657200000000000000600082015250565b7f4552433732313a206f70657261746f7220717565727920666f72206e6f6e657860008201527f697374656e7420746f6b656e0000000000000000000000000000000000000000602082015250565b7f41766f69642073656c6620707572636861736500000000000000000000000000600082015250565b7f4d75737420626520612076616c69642067656e65000000000000000000000000600082015250565b7f4d757374204465706c6f79657200000000000000000000000000000000000000600082015250565b7f4552433732313a20617070726f76652063616c6c6572206973206e6f74206f7760008201527f6e6572206e6f7220617070726f76656420666f7220616c6c0000000000000000602082015250565b7f53656e646572206d757374206f776e2074686520746f6b656e00000000000000600082015250565b7f4552433732313a2062616c616e636520717565727920666f7220746865207a6560008201527f726f206164647265737300000000000000000000000000000000000000000000602082015250565b7f4552433732313a206f776e657220717565727920666f72206e6f6e657869737460008201527f656e7420746f6b656e0000000000000000000000000000000000000000000000602082015250565b7f446973616c6c6f77206465706c6f79657220746f206272656564000000000000600082015250565b7f4552433732313a206d696e7420746f20746865207a65726f2061646472657373600082015250565b7f4552433732313a20617070726f76656420717565727920666f72206e6f6e657860008201527f697374656e7420746f6b656e0000000000000000000000000000000000000000602082015250565b7f4552433732313a207472616e73666572206f6620746f6b656e2074686174206960008201527f73206e6f74206f776e0000000000000000000000000000000000000000000000602082015250565b7f5075726368617365206f6e6c792066726f6d206465706c6f7965720000000000600082015250565b7f4552433732314d657461646174613a2055524920717565727920666f72206e6f60008201527f6e6578697374656e7420746f6b656e0000000000000000000000000000000000602082015250565b7f4552433732313a20617070726f76616c20746f2063757272656e74206f776e6560008201527f7200000000000000000000000000000000000000000000000000000000000000602082015250565b7f53656e646572206d757374206f776e2074686520746f6b656d00000000000000600082015250565b7f4552433732313a207472616e736665722063616c6c6572206973206e6f74206f60008201527f776e6572206e6f7220617070726f766564000000000000000000000000000000602082015250565b6148e981614118565b81146148f457600080fd5b50565b6149008161412a565b811461490b57600080fd5b50565b61491781614136565b811461492257600080fd5b50565b61492e81614182565b811461493957600080fd5b5056fea2646970667358221220805fcdfe962c10d4f9df47409db14c480b9b34d61b7a226bc0c730874ff5612064736f6c63430008040033",
  "linkReferences": {},
  "deployedLinkReferences": {}
}