{
  "_format": "hh-sol-artifact-1",
  "contractName": "DwarfityCore",
  "sourceName": "contracts/DwarfityCore.sol",
  "abi": [
    {
      "inputs": [],
      "stateMutability": "nonpayable",
      "type": "constructor"
    },
    {
      "anonymous": false,
      "inputs": [
        {
          "indexed": true,
          "internalType": "address",
          "name": "owner",
          "type": "address"
        },
        {
          "indexed": true,
          "internalType": "address",
          "name": "approved",
          "type": "address"
        },
        {
          "indexed": true,
          "internalType": "uint256",
          "name": "tokenId",
          "type": "uint256"
        }
      ],
      "name": "Approval",
      "type": "event"
    },
    {
      "anonymous": false,
      "inputs": [
        {
          "indexed": true,
          "internalType": "address",
          "name": "owner",
          "type": "address"
        },
        {
          "indexed": true,
          "internalType": "address",
          "name": "operator",
          "type": "address"
        },
        {
          "indexed": false,
          "internalType": "bool",
          "name": "approved",
          "type": "bool"
        }
      ],
      "name": "ApprovalForAll",
      "type": "event"
    },
    {
      "anonymous": false,
      "inputs": [
        {
          "indexed": false,
          "internalType": "address",
          "name": "owner",
          "type": "address"
        },
        {
          "indexed": false,
          "internalType": "uint256",
          "name": "tokenId",
          "type": "uint256"
        },
        {
          "indexed": false,
          "internalType": "uint256",
          "name": "fatherTokenId",
          "type": "uint256"
        },
        {
          "indexed": false,
          "internalType": "uint256",
          "name": "motherTokenId",
          "type": "uint256"
        },
        {
          "indexed": false,
          "internalType": "string",
          "name": "genes",
          "type": "string"
        }
      ],
      "name": "Birth",
      "type": "event"
    },
    {
      "anonymous": false,
      "inputs": [
        {
          "indexed": false,
          "internalType": "address",
          "name": "",
          "type": "address"
        },
        {
          "indexed": false,
          "internalType": "uint256",
          "name": "",
          "type": "uint256"
        }
      ],
      "name": "Received",
      "type": "event"
    },
    {
      "anonymous": false,
      "inputs": [
        {
          "indexed": true,
          "internalType": "address",
          "name": "from",
          "type": "address"
        },
        {
          "indexed": true,
          "internalType": "address",
          "name": "to",
          "type": "address"
        },
        {
          "indexed": true,
          "internalType": "uint256",
          "name": "tokenId",
          "type": "uint256"
        }
      ],
      "name": "Transfer",
      "type": "event"
    },
    {
      "inputs": [
        {
          "internalType": "address",
          "name": "to",
          "type": "address"
        },
        {
          "internalType": "uint256",
          "name": "tokenId",
          "type": "uint256"
        }
      ],
      "name": "approve",
      "outputs": [],
      "stateMutability": "nonpayable",
      "type": "function"
    },
    {
      "inputs": [
        {
          "internalType": "address",
          "name": "owner",
          "type": "address"
        }
      ],
      "name": "balanceOf",
      "outputs": [
        {
          "internalType": "uint256",
          "name": "",
          "type": "uint256"
        }
      ],
      "stateMutability": "view",
      "type": "function"
    },
    {
      "inputs": [
        {
          "internalType": "uint256",
          "name": "_fatherTokenId",
          "type": "uint256"
        },
        {
          "internalType": "uint256",
          "name": "_motherTokenId",
          "type": "uint256"
        }
      ],
      "name": "breedDwarves",
      "outputs": [],
      "stateMutability": "nonpayable",
      "type": "function"
    },
    {
      "inputs": [],
      "name": "deployer",
      "outputs": [
        {
          "internalType": "address",
          "name": "",
          "type": "address"
        }
      ],
      "stateMutability": "view",
      "type": "function"
    },
    {
      "inputs": [
        {
          "internalType": "string",
          "name": "",
          "type": "string"
        }
      ],
      "name": "dwarfCountPerGene",
      "outputs": [
        {
          "internalType": "uint256",
          "name": "",
          "type": "uint256"
        }
      ],
      "stateMutability": "view",
      "type": "function"
    },
    {
      "inputs": [],
      "name": "dwarfIndexTracker",
      "outputs": [
        {
          "internalType": "uint256",
          "name": "_value",
          "type": "uint256"
        }
      ],
      "stateMutability": "view",
      "type": "function"
    },
    {
      "inputs": [
        {
          "internalType": "uint256",
          "name": "",
          "type": "uint256"
        }
      ],
      "name": "dwarves",
      "outputs": [
        {
          "internalType": "string",
          "name": "genes",
          "type": "string"
        },
        {
          "internalType": "uint256",
          "name": "fatherTokenId",
          "type": "uint256"
        },
        {
          "internalType": "uint256",
          "name": "motherTokenId",
          "type": "uint256"
        }
      ],
      "stateMutability": "view",
      "type": "function"
    },
    {
      "inputs": [
        {
          "internalType": "uint256",
          "name": "tokenId",
          "type": "uint256"
        }
      ],
      "name": "getApproved",
      "outputs": [
        {
          "internalType": "address",
          "name": "",
          "type": "address"
        }
      ],
      "stateMutability": "view",
      "type": "function"
    },
    {
      "inputs": [],
      "name": "getContractBalance",
      "outputs": [
        {
          "internalType": "uint256",
          "name": "",
          "type": "uint256"
        }
      ],
      "stateMutability": "view",
      "type": "function"
    },
    {
      "inputs": [
        {
          "internalType": "uint256",
          "name": "_tokenId",
          "type": "uint256"
        }
      ],
      "name": "getDwarfByTokenId",
      "outputs": [
        {
          "internalType": "string",
          "name": "_genes",
          "type": "string"
        },
        {
          "internalType": "uint256",
          "name": "_fatherTokenId",
          "type": "uint256"
        },
        {
          "internalType": "uint256",
          "name": "_motherTokenId",
          "type": "uint256"
        },
        {
          "internalType": "uint256",
          "name": "_rarity",
          "type": "uint256"
        }
      ],
      "stateMutability": "view",
      "type": "function"
    },
    {
      "inputs": [
        {
          "internalType": "address",
          "name": "_owner",
          "type": "address"
        }
      ],
      "name": "getTokenIds",
      "outputs": [
        {
          "internalType": "uint256[]",
          "name": "",
          "type": "uint256[]"
        }
      ],
      "stateMutability": "view",
      "type": "function"
    },
    {
      "inputs": [
        {
          "internalType": "address",
          "name": "owner",
          "type": "address"
        },
        {
          "internalType": "address",
          "name": "operator",
          "type": "address"
        }
      ],
      "name": "isApprovedForAll",
      "outputs": [
        {
          "internalType": "bool",
          "name": "",
          "type": "bool"
        }
      ],
      "stateMutability": "view",
      "type": "function"
    },
    {
      "inputs": [
        {
          "internalType": "string",
          "name": "_genes",
          "type": "string"
        }
      ],
      "name": "mintGenesisDwarf",
      "outputs": [],
      "stateMutability": "nonpayable",
      "type": "function"
    },
    {
      "inputs": [],
      "name": "name",
      "outputs": [
        {
          "internalType": "string",
          "name": "",
          "type": "string"
        }
      ],
      "stateMutability": "view",
      "type": "function"
    },
    {
      "inputs": [
        {
          "internalType": "uint256",
          "name": "tokenId",
          "type": "uint256"
        }
      ],
      "name": "ownerOf",
      "outputs": [
        {
          "internalType": "address",
          "name": "",
          "type": "address"
        }
      ],
      "stateMutability": "view",
      "type": "function"
    },
    {
      "inputs": [
        {
          "internalType": "address",
          "name": "",
          "type": "address"
        },
        {
          "internalType": "uint256",
          "name": "",
          "type": "uint256"
        }
      ],
      "name": "ownersTokenIds",
      "outputs": [
        {
          "internalType": "uint256",
          "name": "",
          "type": "uint256"
        }
      ],
      "stateMutability": "view",
      "type": "function"
    },
    {
      "inputs": [
        {
          "internalType": "uint256",
          "name": "tokenId",
          "type": "uint256"
        }
      ],
      "name": "purchaseDwarfFromDeployer",
      "outputs": [],
      "stateMutability": "payable",
      "type": "function"
    },
    {
      "inputs": [
        {
          "internalType": "address",
          "name": "from",
          "type": "address"
        },
        {
          "internalType": "address",
          "name": "to",
          "type": "address"
        },
        {
          "internalType": "uint256",
          "name": "tokenId",
          "type": "uint256"
        }
      ],
      "name": "safeTransferFrom",
      "outputs": [],
      "stateMutability": "nonpayable",
      "type": "function"
    },
    {
      "inputs": [
        {
          "internalType": "address",
          "name": "from",
          "type": "address"
        },
        {
          "internalType": "address",
          "name": "to",
          "type": "address"
        },
        {
          "internalType": "uint256",
          "name": "tokenId",
          "type": "uint256"
        },
        {
          "internalType": "bytes",
          "name": "_data",
          "type": "bytes"
        }
      ],
      "name": "safeTransferFrom",
      "outputs": [],
      "stateMutability": "nonpayable",
      "type": "function"
    },
    {
      "inputs": [
        {
          "internalType": "address",
          "name": "operator",
          "type": "address"
        },
        {
          "internalType": "bool",
          "name": "approved",
          "type": "bool"
        }
      ],
      "name": "setApprovalForAll",
      "outputs": [],
      "stateMutability": "nonpayable",
      "type": "function"
    },
    {
      "inputs": [
        {
          "internalType": "bytes4",
          "name": "interfaceId",
          "type": "bytes4"
        }
      ],
      "name": "supportsInterface",
      "outputs": [
        {
          "internalType": "bool",
          "name": "",
          "type": "bool"
        }
      ],
      "stateMutability": "view",
      "type": "function"
    },
    {
      "inputs": [],
      "name": "symbol",
      "outputs": [
        {
          "internalType": "string",
          "name": "",
          "type": "string"
        }
      ],
      "stateMutability": "view",
      "type": "function"
    },
    {
      "inputs": [
        {
          "internalType": "uint256",
          "name": "tokenId",
          "type": "uint256"
        }
      ],
      "name": "tokenURI",
      "outputs": [
        {
          "internalType": "string",
          "name": "",
          "type": "string"
        }
      ],
      "stateMutability": "view",
      "type": "function"
    },
    {
      "inputs": [
        {
          "internalType": "address",
          "name": "from",
          "type": "address"
        },
        {
          "internalType": "address",
          "name": "to",
          "type": "address"
        },
        {
          "internalType": "uint256",
          "name": "tokenId",
          "type": "uint256"
        }
      ],
      "name": "transferFrom",
      "outputs": [],
      "stateMutability": "nonpayable",
      "type": "function"
    },
    {
      "stateMutability": "payable",
      "type": "receive"
    }
  ],
  "bytecode": "0x60806040523480156200001157600080fd5b506040518060400160405280600881526020017f44776172666974790000000000000000000000000000000000000000000000008152506040518060400160405280600281526020017f44570000000000000000000000000000000000000000000000000000000000008152508181816000908051906020019062000098929190620005cb565b508060019080519060200190620000b1929190620005cb565b5050506001600860146101000a81548160ff02191690831515021790555050506200011b6000806040518060400160405280600981526020017f3030303030303030300000000000000000000000000000000000000000000000815250336200013360201b60201c565b506200012d33620002f960201b60201c565b62000979565b600062000146836200033d60201b60201c565b62000188576040517f08c379a00000000000000000000000000000000000000000000000000000000081526004016200017f9062000740565b60405180910390fd5b6000620001a160076200035060201b620018671760201c565b905060006040518060600160405280868152602001888152602001878152509050620001d484836200035e60201b60201c565b600681908060018154018082558091505060019003906000526020600020906003020160009091909190915060008201518160000190805190602001906200021e929190620005cb565b5060208201518160010155604082015181600201555050600960008573ffffffffffffffffffffffffffffffffffffffff1673ffffffffffffffffffffffffffffffffffffffff168152602001908152602001600020829080600181540180825580915050600190039060005260206000200160009091909190915055620002b260076200054460201b620018751760201c565b6001600a86604051620002c6919062000727565b90815260200160405180910390206000828254620002e59190620007cd565b925050819055508192505050949350505050565b80600860006101000a81548173ffffffffffffffffffffffffffffffffffffffff021916908373ffffffffffffffffffffffffffffffffffffffff16021790555050565b6000808290506009815114915050919050565b600081600001549050919050565b600073ffffffffffffffffffffffffffffffffffffffff168273ffffffffffffffffffffffffffffffffffffffff161415620003d1576040517f08c379a0000000000000000000000000000000000000000000000000000000008152600401620003c89062000784565b60405180910390fd5b620003e2816200055a60201b60201c565b1562000425576040517f08c379a00000000000000000000000000000000000000000000000000000000081526004016200041c9062000762565b60405180910390fd5b6200043960008383620005c660201b60201c565b6001600360008473ffffffffffffffffffffffffffffffffffffffff1673ffffffffffffffffffffffffffffffffffffffff16815260200190815260200160002060008282546200048b9190620007cd565b92505081905550816002600083815260200190815260200160002060006101000a81548173ffffffffffffffffffffffffffffffffffffffff021916908373ffffffffffffffffffffffffffffffffffffffff160217905550808273ffffffffffffffffffffffffffffffffffffffff16600073ffffffffffffffffffffffffffffffffffffffff167fddf252ad1be2c89b69c2b068fc378daa952ba7f163c4a11628f55a4df523b3ef60405160405180910390a45050565b6001816000016000828254019250508190555050565b60008073ffffffffffffffffffffffffffffffffffffffff166002600084815260200190815260200160002060009054906101000a900473ffffffffffffffffffffffffffffffffffffffff1673ffffffffffffffffffffffffffffffffffffffff1614159050919050565b505050565b828054620005d9906200086a565b90600052602060002090601f016020900481019282620005fd576000855562000649565b82601f106200061857805160ff191683800117855562000649565b8280016001018555821562000649579182015b82811115620006485782518255916020019190600101906200062b565b5b5090506200065891906200065c565b5090565b5b80821115620006775760008160009055506001016200065d565b5090565b60006200068882620007a6565b620006948185620007c2565b9350620006a681856020860162000834565b80840191505092915050565b6000620006c1601383620007b1565b9150620006ce82620008fe565b602082019050919050565b6000620006e8601c83620007b1565b9150620006f58262000927565b602082019050919050565b60006200070f602083620007b1565b91506200071c8262000950565b602082019050919050565b60006200073582846200067b565b915081905092915050565b600060208201905081810360008301526200075b81620006b2565b9050919050565b600060208201905081810360008301526200077d81620006d9565b9050919050565b600060208201905081810360008301526200079f8162000700565b9050919050565b600081519050919050565b600082825260208201905092915050565b600081905092915050565b6000620007da826200082a565b9150620007e7836200082a565b9250827fffffffffffffffffffffffffffffffffffffffffffffffffffffffffffffffff038211156200081f576200081e620008a0565b5b828201905092915050565b6000819050919050565b60005b838110156200085457808201518184015260208101905062000837565b8381111562000864576000848401525b50505050565b600060028204905060018216806200088357607f821691505b602082108114156200089a5762000899620008cf565b5b50919050565b7f4e487b7100000000000000000000000000000000000000000000000000000000600052601160045260246000fd5b7f4e487b7100000000000000000000000000000000000000000000000000000000600052602260045260246000fd5b7f47656e6573206d7573742062652076616c696400000000000000000000000000600082015250565b7f4552433732313a20746f6b656e20616c7265616479206d696e74656400000000600082015250565b7f4552433732313a206d696e7420746f20746865207a65726f2061646472657373600082015250565b61451480620009896000396000f3fe60806040526004361061014f5760003560e01c80637783adc6116100b6578063c87b56dd1161006f578063c87b56dd146104e9578063c912ee2014610526578063d004b03614610566578063d5f39488146105a3578063e985e9c5146105ce578063f8e9390c1461060b5761018f565b80637783adc6146103c75780638ed9a4d61461040457806395d89b411461042f578063a22cb4651461045a578063b2ef480c14610483578063b88d4fde146104c05761018f565b806323b872dd1161010857806323b872dd146102a757806333dc2d04146102d057806342842e0e146102f95780636352211e146103225780636f9fb98a1461035f57806370a082311461038a5761018f565b806301ffc9a71461019457806306fdde03146101d1578063081812fc146101fc578063095ea7b3146102395780630fd48434146102625780631b43783d1461028b5761018f565b3661018f577f88a5966d370b9919b20f3e2c13ff65706f196a4e32cc2c12bf57088f8852587433346040516101859291906135ef565b60405180910390a1005b600080fd5b3480156101a057600080fd5b506101bb60048036038101906101b69190612ef1565b61064a565b6040516101c89190613694565b60405180910390f35b3480156101dd57600080fd5b506101e661072c565b6040516101f391906136af565b60405180910390f35b34801561020857600080fd5b50610223600480360381019061021e9190612f84565b6107be565b6040516102309190613588565b60405180910390f35b34801561024557600080fd5b50610260600480360381019061025b9190612eb5565b610843565b005b34801561026e57600080fd5b5061028960048036038101906102849190612f43565b61095b565b005b6102a560048036038101906102a09190612f84565b610a8e565b005b3480156102b357600080fd5b506102ce60048036038101906102c99190612daf565b610bcd565b005b3480156102dc57600080fd5b506102f760048036038101906102f29190612fad565b610c2d565b005b34801561030557600080fd5b50610320600480360381019061031b9190612daf565b610e2f565b005b34801561032e57600080fd5b5061034960048036038101906103449190612f84565b610e4f565b6040516103569190613588565b60405180910390f35b34801561036b57600080fd5b50610374610f01565b6040516103819190613a3b565b60405180910390f35b34801561039657600080fd5b506103b160048036038101906103ac9190612d4a565b61102a565b6040516103be9190613a3b565b60405180910390f35b3480156103d357600080fd5b506103ee60048036038101906103e99190612eb5565b6110e2565b6040516103fb9190613a3b565b60405180910390f35b34801561041057600080fd5b50610419611113565b6040516104269190613a3b565b60405180910390f35b34801561043b57600080fd5b5061044461111f565b60405161045191906136af565b60405180910390f35b34801561046657600080fd5b50610481600480360381019061047c9190612e79565b6111b1565b005b34801561048f57600080fd5b506104aa60048036038101906104a59190612f43565b611332565b6040516104b79190613a3b565b60405180910390f35b3480156104cc57600080fd5b506104e760048036038101906104e29190612dfe565b611360565b005b3480156104f557600080fd5b50610510600480360381019061050b9190612f84565b6113c2565b60405161051d91906136af565b60405180910390f35b34801561053257600080fd5b5061054d60048036038101906105489190612f84565b611469565b60405161055d949392919061370f565b60405180910390f35b34801561057257600080fd5b5061058d60048036038101906105889190612d4a565b611654565b60405161059a9190613672565b60405180910390f35b3480156105af57600080fd5b506105b86116eb565b6040516105c59190613588565b60405180910390f35b3480156105da57600080fd5b506105f560048036038101906105f09190612d73565b611711565b6040516106029190613694565b60405180910390f35b34801561061757600080fd5b50610632600480360381019061062d9190612f84565b6117a5565b604051610641939291906136d1565b60405180910390f35b60007f80ac58cd000000000000000000000000000000000000000000000000000000007bffffffffffffffffffffffffffffffffffffffffffffffffffffffff1916827bffffffffffffffffffffffffffffffffffffffffffffffffffffffff1916148061071557507f5b5e139f000000000000000000000000000000000000000000000000000000007bffffffffffffffffffffffffffffffffffffffffffffffffffffffff1916827bffffffffffffffffffffffffffffffffffffffffffffffffffffffff1916145b8061072557506107248261188b565b5b9050919050565b60606000805461073b90613d7d565b80601f016020809104026020016040519081016040528092919081815260200182805461076790613d7d565b80156107b45780601f10610789576101008083540402835291602001916107b4565b820191906000526020600020905b81548152906001019060200180831161079757829003601f168201915b5050505050905090565b60006107c9826118f5565b610808576040517f08c379a00000000000000000000000000000000000000000000000000000000081526004016107ff9061393b565b60405180910390fd5b6004600083815260200190815260200160002060009054906101000a900473ffffffffffffffffffffffffffffffffffffffff169050919050565b600061084e82610e4f565b90508073ffffffffffffffffffffffffffffffffffffffff168373ffffffffffffffffffffffffffffffffffffffff1614156108bf576040517f08c379a00000000000000000000000000000000000000000000000000000000081526004016108b6906139bb565b60405180910390fd5b8073ffffffffffffffffffffffffffffffffffffffff166108de611961565b73ffffffffffffffffffffffffffffffffffffffff16148061090d575061090c81610907611961565b611711565b5b61094c576040517f08c379a00000000000000000000000000000000000000000000000000000000081526004016109439061387b565b60405180910390fd5b6109568383611969565b505050565b600073ffffffffffffffffffffffffffffffffffffffff16600860009054906101000a900473ffffffffffffffffffffffffffffffffffffffff1673ffffffffffffffffffffffffffffffffffffffff1614156109ed576040517f08c379a00000000000000000000000000000000000000000000000000000000081526004016109e49061375b565b60405180910390fd5b600860009054906101000a900473ffffffffffffffffffffffffffffffffffffffff1673ffffffffffffffffffffffffffffffffffffffff163373ffffffffffffffffffffffffffffffffffffffff1614610a7d576040517f08c379a0000000000000000000000000000000000000000000000000000000008152600401610a7490613a1b565b60405180910390fd5b610a8a6000808333611a22565b5050565b3373ffffffffffffffffffffffffffffffffffffffff16610aae82610e4f565b73ffffffffffffffffffffffffffffffffffffffff161415610b05576040517f08c379a0000000000000000000000000000000000000000000000000000000008152600401610afc9061383b565b60405180910390fd5b600860009054906101000a900473ffffffffffffffffffffffffffffffffffffffff1673ffffffffffffffffffffffffffffffffffffffff16610b4782610e4f565b73ffffffffffffffffffffffffffffffffffffffff1614610b9d576040517f08c379a0000000000000000000000000000000000000000000000000000000008152600401610b949061397b565b60405180910390fd5b610bca600860009054906101000a900473ffffffffffffffffffffffffffffffffffffffff163383611bb5565b50565b610bde610bd8611961565b82611e11565b610c1d576040517f08c379a0000000000000000000000000000000000000000000000000000000008152600401610c14906139fb565b60405180910390fd5b610c28838383611bb5565b505050565b600860009054906101000a900473ffffffffffffffffffffffffffffffffffffffff1673ffffffffffffffffffffffffffffffffffffffff163373ffffffffffffffffffffffffffffffffffffffff161415610cbe576040517f08c379a0000000000000000000000000000000000000000000000000000000008152600401610cb5906138fb565b60405180910390fd5b3373ffffffffffffffffffffffffffffffffffffffff16610cde83610e4f565b73ffffffffffffffffffffffffffffffffffffffff1614610d34576040517f08c379a0000000000000000000000000000000000000000000000000000000008152600401610d2b9061389b565b60405180910390fd5b3373ffffffffffffffffffffffffffffffffffffffff16610d5482610e4f565b73ffffffffffffffffffffffffffffffffffffffff1614610daa576040517f08c379a0000000000000000000000000000000000000000000000000000000008152600401610da1906139db565b60405180910390fd5b6000610db583611469565b50505090506000610dc583611469565b50505090506000610dd68383611eef565b90506000610de686868433611a22565b90507f4e6455c91928c274385a73f9a414dadc99be42d2c970d057edbebcf5aa1312223382888886604051610e1f959493929190613618565b60405180910390a1505050505050565b610e4a83838360405180602001604052806000815250611360565b505050565b6000806002600084815260200190815260200160002060009054906101000a900473ffffffffffffffffffffffffffffffffffffffff169050600073ffffffffffffffffffffffffffffffffffffffff168173ffffffffffffffffffffffffffffffffffffffff161415610ef8576040517f08c379a0000000000000000000000000000000000000000000000000000000008152600401610eef906138db565b60405180910390fd5b80915050919050565b60008073ffffffffffffffffffffffffffffffffffffffff16600860009054906101000a900473ffffffffffffffffffffffffffffffffffffffff1673ffffffffffffffffffffffffffffffffffffffff161415610f94576040517f08c379a0000000000000000000000000000000000000000000000000000000008152600401610f8b9061375b565b60405180910390fd5b600860009054906101000a900473ffffffffffffffffffffffffffffffffffffffff1673ffffffffffffffffffffffffffffffffffffffff163373ffffffffffffffffffffffffffffffffffffffff1614611024576040517f08c379a000000000000000000000000000000000000000000000000000000000815260040161101b90613a1b565b60405180910390fd5b47905090565b60008073ffffffffffffffffffffffffffffffffffffffff168273ffffffffffffffffffffffffffffffffffffffff16141561109b576040517f08c379a0000000000000000000000000000000000000000000000000000000008152600401611092906138bb565b60405180910390fd5b600360008373ffffffffffffffffffffffffffffffffffffffff1673ffffffffffffffffffffffffffffffffffffffff168152602001908152602001600020549050919050565b600960205281600052604060002081815481106110fe57600080fd5b90600052602060002001600091509150505481565b60078060000154905081565b60606001805461112e90613d7d565b80601f016020809104026020016040519081016040528092919081815260200182805461115a90613d7d565b80156111a75780601f1061117c576101008083540402835291602001916111a7565b820191906000526020600020905b81548152906001019060200180831161118a57829003601f168201915b5050505050905090565b6111b9611961565b73ffffffffffffffffffffffffffffffffffffffff168273ffffffffffffffffffffffffffffffffffffffff161415611227576040517f08c379a000000000000000000000000000000000000000000000000000000000815260040161121e906137fb565b60405180910390fd5b8060056000611234611961565b73ffffffffffffffffffffffffffffffffffffffff1673ffffffffffffffffffffffffffffffffffffffff16815260200190815260200160002060008473ffffffffffffffffffffffffffffffffffffffff1673ffffffffffffffffffffffffffffffffffffffff16815260200190815260200160002060006101000a81548160ff0219169083151502179055508173ffffffffffffffffffffffffffffffffffffffff166112e1611961565b73ffffffffffffffffffffffffffffffffffffffff167f17307eab39ab6107e8899845ad3d59bd9653f200f220920489ca2b5937696c31836040516113269190613694565b60405180910390a35050565b600a818051602081018201805184825260208301602085012081835280955050505050506000915090505481565b61137161136b611961565b83611e11565b6113b0576040517f08c379a00000000000000000000000000000000000000000000000000000000081526004016113a7906139fb565b60405180910390fd5b6113bc848484846122d8565b50505050565b60606113cd826118f5565b61140c576040517f08c379a00000000000000000000000000000000000000000000000000000000081526004016114039061399b565b60405180910390fd5b6000611416612334565b905060008151116114365760405180602001604052806000815250611461565b806114408461234b565b604051602001611451929190613510565b6040516020818303038152906040525b915050919050565b60606000806000600685815481106114aa577f4e487b7100000000000000000000000000000000000000000000000000000000600052603260045260246000fd5b906000526020600020906003020160000180546114c690613d7d565b80601f01602080910402602001604051908101604052809291908181526020018280546114f290613d7d565b801561153f5780601f106115145761010080835404028352916020019161153f565b820191906000526020600020905b81548152906001019060200180831161152257829003601f168201915b5050505050935060068581548110611580577f4e487b7100000000000000000000000000000000000000000000000000000000600052603260045260246000fd5b9060005260206000209060030201600101549250600685815481106115ce577f4e487b7100000000000000000000000000000000000000000000000000000000600052603260045260246000fd5b9060005260206000209060030201600201549150600a6006868154811061161e577f4e487b7100000000000000000000000000000000000000000000000000000000600052603260045260246000fd5b906000526020600020906003020160000160405161163c9190613534565b90815260200160405180910390205490509193509193565b6060600960008373ffffffffffffffffffffffffffffffffffffffff1673ffffffffffffffffffffffffffffffffffffffff1681526020019081526020016000208054806020026020016040519081016040528092919081815260200182805480156116df57602002820191906000526020600020905b8154815260200190600101908083116116cb575b50505050509050919050565b600860009054906101000a900473ffffffffffffffffffffffffffffffffffffffff1681565b6000600560008473ffffffffffffffffffffffffffffffffffffffff1673ffffffffffffffffffffffffffffffffffffffff16815260200190815260200160002060008373ffffffffffffffffffffffffffffffffffffffff1673ffffffffffffffffffffffffffffffffffffffff16815260200190815260200160002060009054906101000a900460ff16905092915050565b600681815481106117b557600080fd5b90600052602060002090600302016000915090508060000180546117d890613d7d565b80601f016020809104026020016040519081016040528092919081815260200182805461180490613d7d565b80156118515780601f1061182657610100808354040283529160200191611851565b820191906000526020600020905b81548152906001019060200180831161183457829003601f168201915b5050505050908060010154908060020154905083565b600081600001549050919050565b6001816000016000828254019250508190555050565b60007f01ffc9a7000000000000000000000000000000000000000000000000000000007bffffffffffffffffffffffffffffffffffffffffffffffffffffffff1916827bffffffffffffffffffffffffffffffffffffffffffffffffffffffff1916149050919050565b60008073ffffffffffffffffffffffffffffffffffffffff166002600084815260200190815260200160002060009054906101000a900473ffffffffffffffffffffffffffffffffffffffff1673ffffffffffffffffffffffffffffffffffffffff1614159050919050565b600033905090565b816004600083815260200190815260200160002060006101000a81548173ffffffffffffffffffffffffffffffffffffffff021916908373ffffffffffffffffffffffffffffffffffffffff160217905550808273ffffffffffffffffffffffffffffffffffffffff166119dc83610e4f565b73ffffffffffffffffffffffffffffffffffffffff167f8c5be1e5ebec7d5bd14f71427d1e84f3dd0314c0f7b2291e5b200ac8c7c3b92560405160405180910390a45050565b6000611a2d836124f8565b611a6c576040517f08c379a0000000000000000000000000000000000000000000000000000000008152600401611a639061377b565b60405180910390fd5b6000611a786007611867565b905060006040518060600160405280868152602001888152602001878152509050611aa3848361250b565b60068190806001815401808255809150506001900390600052602060002090600302016000909190919091506000820151816000019080519060200190611aeb929190612b6e565b5060208201518160010155604082015181600201555050600960008573ffffffffffffffffffffffffffffffffffffffff1673ffffffffffffffffffffffffffffffffffffffff168152602001908152602001600020829080600181540180825580915050600190039060005260206000200160009091909190915055611b726007611875565b6001600a86604051611b8491906134f9565b90815260200160405180910390206000828254611ba19190613b6e565b925050819055508192505050949350505050565b8273ffffffffffffffffffffffffffffffffffffffff16611bd582610e4f565b73ffffffffffffffffffffffffffffffffffffffff1614611c2b576040517f08c379a0000000000000000000000000000000000000000000000000000000008152600401611c229061395b565b60405180910390fd5b600073ffffffffffffffffffffffffffffffffffffffff168273ffffffffffffffffffffffffffffffffffffffff161415611c9b576040517f08c379a0000000000000000000000000000000000000000000000000000000008152600401611c92906137db565b60405180910390fd5b611ca68383836126d9565b611cb1600082611969565b6001600360008573ffffffffffffffffffffffffffffffffffffffff1673ffffffffffffffffffffffffffffffffffffffff1681526020019081526020016000206000828254611d019190613c86565b925050819055506001600360008473ffffffffffffffffffffffffffffffffffffffff1673ffffffffffffffffffffffffffffffffffffffff1681526020019081526020016000206000828254611d589190613b6e565b92505081905550816002600083815260200190815260200160002060006101000a81548173ffffffffffffffffffffffffffffffffffffffff021916908373ffffffffffffffffffffffffffffffffffffffff160217905550808273ffffffffffffffffffffffffffffffffffffffff168473ffffffffffffffffffffffffffffffffffffffff167fddf252ad1be2c89b69c2b068fc378daa952ba7f163c4a11628f55a4df523b3ef60405160405180910390a4505050565b6000611e1c826118f5565b611e5b576040517f08c379a0000000000000000000000000000000000000000000000000000000008152600401611e529061381b565b60405180910390fd5b6000611e6683610e4f565b90508073ffffffffffffffffffffffffffffffffffffffff168473ffffffffffffffffffffffffffffffffffffffff161480611ed557508373ffffffffffffffffffffffffffffffffffffffff16611ebd846107be565b73ffffffffffffffffffffffffffffffffffffffff16145b80611ee65750611ee58185611711565b5b91505092915050565b6060611efa836124f8565b611f39576040517f08c379a0000000000000000000000000000000000000000000000000000000008152600401611f309061385b565b60405180910390fd5b611f42826124f8565b611f81576040517f08c379a0000000000000000000000000000000000000000000000000000000008152600401611f789061385b565b60405180910390fd5b600083905060008390506000600967ffffffffffffffff811115611fce577f4e487b7100000000000000000000000000000000000000000000000000000000600052604160045260246000fd5b6040519080825280601f01601f1916602001820160405280156120005781602001600182028036833780820191505090505b5090506000600260096120139190613bfb565b905060005b818110156120f657848181518110612059577f4e487b7100000000000000000000000000000000000000000000000000000000600052603260045260246000fd5b602001015160f81c60f81b83600184846120739190613b6e565b61207d9190613b6e565b815181106120b4577f4e487b7100000000000000000000000000000000000000000000000000000000600052603260045260246000fd5b60200101907effffffffffffffffffffffffffffffffffffffffffffffffffffffffffffff1916908160001a90535080806120ee90613de0565b915050612018565b5060008190505b60098110156121d05783818151811061213f577f4e487b7100000000000000000000000000000000000000000000000000000000600052603260045260246000fd5b602001015160f81c60f81b8383836121579190613c86565b8151811061218e577f4e487b7100000000000000000000000000000000000000000000000000000000600052603260045260246000fd5b60200101907effffffffffffffffffffffffffffffffffffffffffffffffffffffffffffff1916908160001a90535080806121c890613de0565b9150506120fd565b506000806121dc6126de565b915091507fffffffffffffffffffffffffffffffffffffffffffffffffffffffffffffffff82146122c9576000612212826127ef565b9050600081905080600081518110612253577f4e487b7100000000000000000000000000000000000000000000000000000000600052603260045260246000fd5b602001015160f81c60f81b868581518110612297577f4e487b7100000000000000000000000000000000000000000000000000000000600052603260045260246000fd5b60200101907effffffffffffffffffffffffffffffffffffffffffffffffffffffffffffff1916908160001a90535050505b83965050505050505092915050565b6122e3848484611bb5565b6122ef848484846129c4565b61232e576040517f08c379a00000000000000000000000000000000000000000000000000000000081526004016123259061379b565b60405180910390fd5b50505050565b606060405180602001604052806000815250905090565b60606000821415612393576040518060400160405280600181526020017f300000000000000000000000000000000000000000000000000000000000000081525090506124f3565b600082905060005b600082146123c55780806123ae90613de0565b915050600a826123be9190613bfb565b915061239b565b60008167ffffffffffffffff811115612407577f4e487b7100000000000000000000000000000000000000000000000000000000600052604160045260246000fd5b6040519080825280601f01601f1916602001820160405280156124395781602001600182028036833780820191505090505b5090505b600085146124ec576001826124529190613c86565b9150600a856124619190613e33565b603061246d9190613b6e565b60f81b8183815181106124a9577f4e487b7100000000000000000000000000000000000000000000000000000000600052603260045260246000fd5b60200101907effffffffffffffffffffffffffffffffffffffffffffffffffffffffffffff1916908160001a905350600a856124e59190613bfb565b945061243d565b8093505050505b919050565b6000808290506009815114915050919050565b600073ffffffffffffffffffffffffffffffffffffffff168273ffffffffffffffffffffffffffffffffffffffff16141561257b576040517f08c379a00000000000000000000000000000000000000000000000000000000081526004016125729061391b565b60405180910390fd5b612584816118f5565b156125c4576040517f08c379a00000000000000000000000000000000000000000000000000000000081526004016125bb906137bb565b60405180910390fd5b6125d0600083836126d9565b6001600360008473ffffffffffffffffffffffffffffffffffffffff1673ffffffffffffffffffffffffffffffffffffffff16815260200190815260200160002060008282546126209190613b6e565b92505081905550816002600083815260200190815260200160002060006101000a81548173ffffffffffffffffffffffffffffffffffffffff021916908373ffffffffffffffffffffffffffffffffffffffff160217905550808273ffffffffffffffffffffffffffffffffffffffff16600073ffffffffffffffffffffffffffffffffffffffff167fddf252ad1be2c89b69c2b068fc378daa952ba7f163c4a11628f55a4df523b3ef60405160405180910390a45050565b505050565b6000806000444260646040516020016126f99392919061354b565b6040516020818303038152906040528051906020012060001c905060006064826127239190613e33565b90506000600f8210905080156127c15760004442606460405160200161274b9392919061354b565b6040516020818303038152906040528051906020012060001c905060004442606460405160200161277e9392919061354b565b6040516020818303038152906040528051906020012060001c90506009826127a69190613e33565b6003826127b39190613e33565b9650965050505050506127eb565b7fffffffffffffffffffffffffffffffffffffffffffffffffffffffffffffffff80945094505050505b9091565b60606000821415612837576040518060400160405280600181526020017f300000000000000000000000000000000000000000000000000000000000000081525090506129bf565b600082905060005b6000821461286957808061285290613de0565b915050600a826128629190613bfb565b915061283f565b60008167ffffffffffffffff8111156128ab577f4e487b7100000000000000000000000000000000000000000000000000000000600052604160045260246000fd5b6040519080825280601f01601f1916602001820160405280156128dd5781602001600182028036833780820191505090505b50905060008290505b600086146129b7576001816128fb9190613c86565b90506000600a808861290d9190613bfb565b6129179190613c2c565b876129229190613c86565b603061292e9190613bc4565b905060008160f81b905080848481518110612972577f4e487b7100000000000000000000000000000000000000000000000000000000600052603260045260246000fd5b60200101907effffffffffffffffffffffffffffffffffffffffffffffffffffffffffffff1916908160001a905350600a886129ae9190613bfb565b975050506128e6565b819450505050505b919050565b60006129e58473ffffffffffffffffffffffffffffffffffffffff16612b5b565b15612b4e578373ffffffffffffffffffffffffffffffffffffffff1663150b7a02612a0e611961565b8786866040518563ffffffff1660e01b8152600401612a3094939291906135a3565b602060405180830381600087803b158015612a4a57600080fd5b505af1925050508015612a7b57506040513d601f19601f82011682018060405250810190612a789190612f1a565b60015b612afe573d8060008114612aab576040519150601f19603f3d011682016040523d82523d6000602084013e612ab0565b606091505b50600081511415612af6576040517f08c379a0000000000000000000000000000000000000000000000000000000008152600401612aed9061379b565b60405180910390fd5b805181602001fd5b63150b7a0260e01b7bffffffffffffffffffffffffffffffffffffffffffffffffffffffff1916817bffffffffffffffffffffffffffffffffffffffffffffffffffffffff191614915050612b53565b600190505b949350505050565b600080823b905060008111915050919050565b828054612b7a90613d7d565b90600052602060002090601f016020900481019282612b9c5760008555612be3565b82601f10612bb557805160ff1916838001178555612be3565b82800160010185558215612be3579182015b82811115612be2578251825591602001919060010190612bc7565b5b509050612bf09190612bf4565b5090565b5b80821115612c0d576000816000905550600101612bf5565b5090565b6000612c24612c1f84613a7b565b613a56565b905082815260208101848484011115612c3c57600080fd5b612c47848285613d3b565b509392505050565b6000612c62612c5d84613aac565b613a56565b905082815260208101848484011115612c7a57600080fd5b612c85848285613d3b565b509392505050565b600081359050612c9c81614482565b92915050565b600081359050612cb181614499565b92915050565b600081359050612cc6816144b0565b92915050565b600081519050612cdb816144b0565b92915050565b600082601f830112612cf257600080fd5b8135612d02848260208601612c11565b91505092915050565b600082601f830112612d1c57600080fd5b8135612d2c848260208601612c4f565b91505092915050565b600081359050612d44816144c7565b92915050565b600060208284031215612d5c57600080fd5b6000612d6a84828501612c8d565b91505092915050565b60008060408385031215612d8657600080fd5b6000612d9485828601612c8d565b9250506020612da585828601612c8d565b9150509250929050565b600080600060608486031215612dc457600080fd5b6000612dd286828701612c8d565b9350506020612de386828701612c8d565b9250506040612df486828701612d35565b9150509250925092565b60008060008060808587031215612e1457600080fd5b6000612e2287828801612c8d565b9450506020612e3387828801612c8d565b9350506040612e4487828801612d35565b925050606085013567ffffffffffffffff811115612e6157600080fd5b612e6d87828801612ce1565b91505092959194509250565b60008060408385031215612e8c57600080fd5b6000612e9a85828601612c8d565b9250506020612eab85828601612ca2565b9150509250929050565b60008060408385031215612ec857600080fd5b6000612ed685828601612c8d565b9250506020612ee785828601612d35565b9150509250929050565b600060208284031215612f0357600080fd5b6000612f1184828501612cb7565b91505092915050565b600060208284031215612f2c57600080fd5b6000612f3a84828501612ccc565b91505092915050565b600060208284031215612f5557600080fd5b600082013567ffffffffffffffff811115612f6f57600080fd5b612f7b84828501612d0b565b91505092915050565b600060208284031215612f9657600080fd5b6000612fa484828501612d35565b91505092915050565b60008060408385031215612fc057600080fd5b6000612fce85828601612d35565b9250506020612fdf85828601612d35565b9150509250929050565b6000612ff583836134c4565b60208301905092915050565b61300a81613cba565b82525050565b600061301b82613b02565b6130258185613b30565b935061303083613add565b8060005b838110156130615781516130488882612fe9565b975061305383613b23565b925050600181019050613034565b5085935050505092915050565b61307781613ccc565b82525050565b600061308882613b0d565b6130928185613b41565b93506130a2818560208601613d4a565b6130ab81613f20565b840191505092915050565b60006130c182613b18565b6130cb8185613b52565b93506130db818560208601613d4a565b6130e481613f20565b840191505092915050565b60006130fa82613b18565b6131048185613b63565b9350613114818560208601613d4a565b80840191505092915050565b6000815461312d81613d7d565b6131378186613b63565b94506001821660008114613152576001811461316357613196565b60ff19831686528186019350613196565b61316c85613aed565b60005b8381101561318e5781548189015260018201915060208101905061316f565b838801955050505b50505092915050565b60006131ac601483613b52565b91506131b782613f31565b602082019050919050565b60006131cf601383613b52565b91506131da82613f5a565b602082019050919050565b60006131f2603283613b52565b91506131fd82613f83565b604082019050919050565b6000613215601c83613b52565b915061322082613fd2565b602082019050919050565b6000613238602483613b52565b915061324382613ffb565b604082019050919050565b600061325b601983613b52565b91506132668261404a565b602082019050919050565b600061327e602c83613b52565b915061328982614073565b604082019050919050565b60006132a1601383613b52565b91506132ac826140c2565b602082019050919050565b60006132c4601483613b52565b91506132cf826140eb565b602082019050919050565b60006132e7603883613b52565b91506132f282614114565b604082019050919050565b600061330a601983613b52565b915061331582614163565b602082019050919050565b600061332d602a83613b52565b91506133388261418c565b604082019050919050565b6000613350602983613b52565b915061335b826141db565b604082019050919050565b6000613373601a83613b52565b915061337e8261422a565b602082019050919050565b6000613396602083613b52565b91506133a182614253565b602082019050919050565b60006133b9602c83613b52565b91506133c48261427c565b604082019050919050565b60006133dc602983613b52565b91506133e7826142cb565b604082019050919050565b60006133ff601b83613b52565b915061340a8261431a565b602082019050919050565b6000613422602f83613b52565b915061342d82614343565b604082019050919050565b6000613445602183613b52565b915061345082614392565b604082019050919050565b6000613468601983613b52565b9150613473826143e1565b602082019050919050565b600061348b603183613b52565b91506134968261440a565b604082019050919050565b60006134ae600a83613b52565b91506134b982614459565b602082019050919050565b6134cd81613d24565b82525050565b6134dc81613d24565b82525050565b6134f36134ee82613d24565b613e29565b82525050565b600061350582846130ef565b915081905092915050565b600061351c82856130ef565b915061352882846130ef565b91508190509392505050565b60006135408284613120565b915081905092915050565b600061355782866134e2565b60208201915061356782856134e2565b60208201915061357782846134e2565b602082019150819050949350505050565b600060208201905061359d6000830184613001565b92915050565b60006080820190506135b86000830187613001565b6135c56020830186613001565b6135d260408301856134d3565b81810360608301526135e4818461307d565b905095945050505050565b60006040820190506136046000830185613001565b61361160208301846134d3565b9392505050565b600060a08201905061362d6000830188613001565b61363a60208301876134d3565b61364760408301866134d3565b61365460608301856134d3565b818103608083015261366681846130b6565b90509695505050505050565b6000602082019050818103600083015261368c8184613010565b905092915050565b60006020820190506136a9600083018461306e565b92915050565b600060208201905081810360008301526136c981846130b6565b905092915050565b600060608201905081810360008301526136eb81866130b6565b90506136fa60208301856134d3565b61370760408301846134d3565b949350505050565b6000608082019050818103600083015261372981876130b6565b905061373860208301866134d3565b61374560408301856134d3565b61375260608301846134d3565b95945050505050565b600060208201905081810360008301526137748161319f565b9050919050565b60006020820190508181036000830152613794816131c2565b9050919050565b600060208201905081810360008301526137b4816131e5565b9050919050565b600060208201905081810360008301526137d481613208565b9050919050565b600060208201905081810360008301526137f48161322b565b9050919050565b600060208201905081810360008301526138148161324e565b9050919050565b6000602082019050818103600083015261383481613271565b9050919050565b6000602082019050818103600083015261385481613294565b9050919050565b60006020820190508181036000830152613874816132b7565b9050919050565b60006020820190508181036000830152613894816132da565b9050919050565b600060208201905081810360008301526138b4816132fd565b9050919050565b600060208201905081810360008301526138d481613320565b9050919050565b600060208201905081810360008301526138f481613343565b9050919050565b6000602082019050818103600083015261391481613366565b9050919050565b6000602082019050818103600083015261393481613389565b9050919050565b60006020820190508181036000830152613954816133ac565b9050919050565b60006020820190508181036000830152613974816133cf565b9050919050565b60006020820190508181036000830152613994816133f2565b9050919050565b600060208201905081810360008301526139b481613415565b9050919050565b600060208201905081810360008301526139d481613438565b9050919050565b600060208201905081810360008301526139f48161345b565b9050919050565b60006020820190508181036000830152613a148161347e565b9050919050565b60006020820190508181036000830152613a34816134a1565b9050919050565b6000602082019050613a5060008301846134d3565b92915050565b6000613a60613a71565b9050613a6c8282613daf565b919050565b6000604051905090565b600067ffffffffffffffff821115613a9657613a95613ef1565b5b613a9f82613f20565b9050602081019050919050565b600067ffffffffffffffff821115613ac757613ac6613ef1565b5b613ad082613f20565b9050602081019050919050565b6000819050602082019050919050565b60008190508160005260206000209050919050565b600081519050919050565b600081519050919050565b600081519050919050565b6000602082019050919050565b600082825260208201905092915050565b600082825260208201905092915050565b600082825260208201905092915050565b600081905092915050565b6000613b7982613d24565b9150613b8483613d24565b9250827fffffffffffffffffffffffffffffffffffffffffffffffffffffffffffffffff03821115613bb957613bb8613e64565b5b828201905092915050565b6000613bcf82613d2e565b9150613bda83613d2e565b92508260ff03821115613bf057613bef613e64565b5b828201905092915050565b6000613c0682613d24565b9150613c1183613d24565b925082613c2157613c20613e93565b5b828204905092915050565b6000613c3782613d24565b9150613c4283613d24565b9250817fffffffffffffffffffffffffffffffffffffffffffffffffffffffffffffffff0483118215151615613c7b57613c7a613e64565b5b828202905092915050565b6000613c9182613d24565b9150613c9c83613d24565b925082821015613caf57613cae613e64565b5b828203905092915050565b6000613cc582613d04565b9050919050565b60008115159050919050565b60007fffffffff0000000000000000000000000000000000000000000000000000000082169050919050565b600073ffffffffffffffffffffffffffffffffffffffff82169050919050565b6000819050919050565b600060ff82169050919050565b82818337600083830152505050565b60005b83811015613d68578082015181840152602081019050613d4d565b83811115613d77576000848401525b50505050565b60006002820490506001821680613d9557607f821691505b60208210811415613da957613da8613ec2565b5b50919050565b613db882613f20565b810181811067ffffffffffffffff82111715613dd757613dd6613ef1565b5b80604052505050565b6000613deb82613d24565b91507fffffffffffffffffffffffffffffffffffffffffffffffffffffffffffffffff821415613e1e57613e1d613e64565b5b600182019050919050565b6000819050919050565b6000613e3e82613d24565b9150613e4983613d24565b925082613e5957613e58613e93565b5b828206905092915050565b7f4e487b7100000000000000000000000000000000000000000000000000000000600052601160045260246000fd5b7f4e487b7100000000000000000000000000000000000000000000000000000000600052601260045260246000fd5b7f4e487b7100000000000000000000000000000000000000000000000000000000600052602260045260246000fd5b7f4e487b7100000000000000000000000000000000000000000000000000000000600052604160045260246000fd5b6000601f19601f8301169050919050565b7f4f776e6572206d75737420736574206669727374000000000000000000000000600082015250565b7f47656e6573206d7573742062652076616c696400000000000000000000000000600082015250565b7f4552433732313a207472616e7366657220746f206e6f6e20455243373231526560008201527f63656976657220696d706c656d656e7465720000000000000000000000000000602082015250565b7f4552433732313a20746f6b656e20616c7265616479206d696e74656400000000600082015250565b7f4552433732313a207472616e7366657220746f20746865207a65726f2061646460008201527f7265737300000000000000000000000000000000000000000000000000000000602082015250565b7f4552433732313a20617070726f766520746f2063616c6c657200000000000000600082015250565b7f4552433732313a206f70657261746f7220717565727920666f72206e6f6e657860008201527f697374656e7420746f6b656e0000000000000000000000000000000000000000602082015250565b7f41766f69642073656c6620707572636861736500000000000000000000000000600082015250565b7f4d75737420626520612076616c69642067656e65000000000000000000000000600082015250565b7f4552433732313a20617070726f76652063616c6c6572206973206e6f74206f7760008201527f6e6572206e6f7220617070726f76656420666f7220616c6c0000000000000000602082015250565b7f53656e646572206d757374206f776e2074686520746f6b656e00000000000000600082015250565b7f4552433732313a2062616c616e636520717565727920666f7220746865207a6560008201527f726f206164647265737300000000000000000000000000000000000000000000602082015250565b7f4552433732313a206f776e657220717565727920666f72206e6f6e657869737460008201527f656e7420746f6b656e0000000000000000000000000000000000000000000000602082015250565b7f446973616c6c6f77206465706c6f79657220746f206272656564000000000000600082015250565b7f4552433732313a206d696e7420746f20746865207a65726f2061646472657373600082015250565b7f4552433732313a20617070726f76656420717565727920666f72206e6f6e657860008201527f697374656e7420746f6b656e0000000000000000000000000000000000000000602082015250565b7f4552433732313a207472616e73666572206f6620746f6b656e2074686174206960008201527f73206e6f74206f776e0000000000000000000000000000000000000000000000602082015250565b7f5075726368617365206f6e6c792066726f6d206465706c6f7965720000000000600082015250565b7f4552433732314d657461646174613a2055524920717565727920666f72206e6f60008201527f6e6578697374656e7420746f6b656e0000000000000000000000000000000000602082015250565b7f4552433732313a20617070726f76616c20746f2063757272656e74206f776e6560008201527f7200000000000000000000000000000000000000000000000000000000000000602082015250565b7f53656e646572206d757374206f776e2074686520746f6b656d00000000000000600082015250565b7f4552433732313a207472616e736665722063616c6c6572206973206e6f74206f60008201527f776e6572206e6f7220617070726f766564000000000000000000000000000000602082015250565b7f4d757374206f776e657200000000000000000000000000000000000000000000600082015250565b61448b81613cba565b811461449657600080fd5b50565b6144a281613ccc565b81146144ad57600080fd5b50565b6144b981613cd8565b81146144c457600080fd5b50565b6144d081613d24565b81146144db57600080fd5b5056fea2646970667358221220d0a0377b5dd2ea9c5c2730c32c12decbe4bfd777266bd036a89a42484fbd488364736f6c63430008040033",
  "linkReferences": {},
  "deployedLinkReferences": {}
}